{
  "_format": "hh-sol-artifact-1",
  "contractName": "BlackjackSettlement",
  "sourceName": "contracts/blackjack_settlement.sol",
  "abi": [
    {
      "inputs": [
        {
          "internalType": "address",
          "name": "vaultAddr",
          "type": "address"
        }
      ],
      "stateMutability": "nonpayable",
      "type": "constructor"
    },
    {
      "anonymous": false,
      "inputs": [
        {
          "indexed": true,
          "internalType": "uint256",
          "name": "roundId",
          "type": "uint256"
        },
        {
          "indexed": true,
          "internalType": "address",
          "name": "player",
          "type": "address"
        },
        {
          "indexed": false,
          "internalType": "uint128",
          "name": "stakeWei",
          "type": "uint128"
        },
        {
          "indexed": false,
          "internalType": "uint128",
          "name": "payoutWei",
          "type": "uint128"
        },
        {
          "indexed": false,
          "internalType": "uint8[]",
          "name": "playerCards",
          "type": "uint8[]"
        },
        {
          "indexed": false,
          "internalType": "uint8",
          "name": "dealerUp",
          "type": "uint8"
        },
        {
          "indexed": false,
          "internalType": "uint8",
          "name": "dealerHole",
          "type": "uint8"
        },
        {
          "indexed": false,
          "internalType": "uint8[]",
          "name": "dealerDraws",
          "type": "uint8[]"
        }
      ],
      "name": "RoundSettled",
      "type": "event"
    },
    {
      "anonymous": false,
      "inputs": [
        {
          "indexed": true,
          "internalType": "uint256",
          "name": "roundId",
          "type": "uint256"
        },
        {
          "indexed": true,
          "internalType": "address",
          "name": "player",
          "type": "address"
        },
        {
          "indexed": false,
          "internalType": "uint128",
          "name": "stakeWei",
          "type": "uint128"
        },
        {
          "indexed": false,
          "internalType": "bytes32",
          "name": "deckRoot",
          "type": "bytes32"
        },
        {
          "indexed": false,
          "internalType": "uint8",
          "name": "holePos",
          "type": "uint8"
        },
        {
          "indexed": false,
          "internalType": "bytes32",
          "name": "holeLeaf",
          "type": "bytes32"
        }
      ],
      "name": "RoundStarted",
      "type": "event"
    },
    {
      "inputs": [],
      "name": "MAX_BET",
      "outputs": [
        {
          "internalType": "uint256",
          "name": "",
          "type": "uint256"
        }
      ],
      "stateMutability": "view",
      "type": "function"
    },
    {
      "inputs": [
        {
          "internalType": "uint256",
          "name": "",
          "type": "uint256"
        }
      ],
      "name": "R",
      "outputs": [
        {
          "internalType": "address",
          "name": "player",
          "type": "address"
        },
        {
          "internalType": "uint128",
          "name": "stakeWei",
          "type": "uint128"
        },
        {
          "internalType": "bytes32",
          "name": "deckRoot",
          "type": "bytes32"
        },
        {
          "internalType": "uint8",
          "name": "holePos",
          "type": "uint8"
        },
        {
          "internalType": "bytes32",
          "name": "holeLeaf",
          "type": "bytes32"
        },
        {
          "internalType": "bool",
          "name": "settled",
          "type": "bool"
        }
      ],
      "stateMutability": "view",
      "type": "function"
    },
    {
      "inputs": [
        {
          "internalType": "uint8",
          "name": "id",
          "type": "uint8"
        }
      ],
      "name": "cardName",
      "outputs": [
        {
          "internalType": "string",
          "name": "",
          "type": "string"
        }
      ],
      "stateMutability": "pure",
      "type": "function"
    },
    {
      "inputs": [],
      "name": "nextRoundId",
      "outputs": [
        {
          "internalType": "uint256",
          "name": "",
          "type": "uint256"
        }
      ],
      "stateMutability": "view",
      "type": "function"
    },
    {
      "inputs": [
        {
          "internalType": "uint256",
          "name": "roundId",
          "type": "uint256"
        },
        {
          "internalType": "uint8",
          "name": "holeCardId",
          "type": "uint8"
        },
        {
          "internalType": "bytes32",
          "name": "holeSalt",
          "type": "bytes32"
        },
        {
          "internalType": "bytes32[]",
          "name": "holeProof",
          "type": "bytes32[]"
        },
        {
          "components": [
            {
              "internalType": "uint8",
              "name": "pos",
              "type": "uint8"
            },
            {
              "internalType": "uint8",
              "name": "cardId",
              "type": "uint8"
            },
            {
              "internalType": "bytes32",
              "name": "salt",
              "type": "bytes32"
            },
            {
              "internalType": "bytes32[]",
              "name": "proof",
              "type": "bytes32[]"
            }
          ],
          "internalType": "struct BlackjackSettlement.Reveal[]",
          "name": "initial3",
          "type": "tuple[]"
        },
        {
          "components": [
            {
              "internalType": "uint8",
              "name": "pos",
              "type": "uint8"
            },
            {
              "internalType": "uint8",
              "name": "cardId",
              "type": "uint8"
            },
            {
              "internalType": "bytes32",
              "name": "salt",
              "type": "bytes32"
            },
            {
              "internalType": "bytes32[]",
              "name": "proof",
              "type": "bytes32[]"
            }
          ],
          "internalType": "struct BlackjackSettlement.Reveal[]",
          "name": "playerExtra",
          "type": "tuple[]"
        },
        {
          "components": [
            {
              "internalType": "uint8",
              "name": "pos",
              "type": "uint8"
            },
            {
              "internalType": "uint8",
              "name": "cardId",
              "type": "uint8"
            },
            {
              "internalType": "bytes32",
              "name": "salt",
              "type": "bytes32"
            },
            {
              "internalType": "bytes32[]",
              "name": "proof",
              "type": "bytes32[]"
            }
          ],
          "internalType": "struct BlackjackSettlement.Reveal[]",
          "name": "dealerDraws",
          "type": "tuple[]"
        },
        {
          "internalType": "bool",
          "name": "doubled",
          "type": "bool"
        },
        {
          "internalType": "bool",
          "name": "split",
          "type": "bool"
        },
        {
          "components": [
            {
              "internalType": "uint8",
              "name": "pos",
              "type": "uint8"
            },
            {
              "internalType": "uint8",
              "name": "cardId",
              "type": "uint8"
            },
            {
              "internalType": "bytes32",
              "name": "salt",
              "type": "bytes32"
            },
            {
              "internalType": "bytes32[]",
              "name": "proof",
              "type": "bytes32[]"
            }
          ],
          "internalType": "struct BlackjackSettlement.Reveal[]",
          "name": "hand1Extra",
          "type": "tuple[]"
        },
        {
          "components": [
            {
              "internalType": "uint8",
              "name": "pos",
              "type": "uint8"
            },
            {
              "internalType": "uint8",
              "name": "cardId",
              "type": "uint8"
            },
            {
              "internalType": "bytes32",
              "name": "salt",
              "type": "bytes32"
            },
            {
              "internalType": "bytes32[]",
              "name": "proof",
              "type": "bytes32[]"
            }
          ],
          "internalType": "struct BlackjackSettlement.Reveal[]",
          "name": "hand2Extra",
          "type": "tuple[]"
        }
      ],
      "name": "settle",
      "outputs": [],
      "stateMutability": "nonpayable",
      "type": "function"
    },
    {
      "inputs": [
        {
          "internalType": "bytes32",
          "name": "deckRoot",
          "type": "bytes32"
        },
        {
          "internalType": "uint8",
          "name": "holePos",
          "type": "uint8"
        },
        {
          "internalType": "bytes32",
          "name": "holeLeaf",
          "type": "bytes32"
        },
        {
          "internalType": "uint128",
          "name": "stakeWei",
          "type": "uint128"
        }
      ],
      "name": "startRound",
      "outputs": [
        {
          "internalType": "uint256",
          "name": "roundId",
          "type": "uint256"
        }
      ],
      "stateMutability": "nonpayable",
      "type": "function"
    },
    {
      "inputs": [],
      "name": "vault",
      "outputs": [
        {
          "internalType": "contract IUserVaultSystem",
          "name": "",
          "type": "address"
        }
      ],
      "stateMutability": "view",
      "type": "function"
    }
  ],
  "bytecode": "0x60803461007457601f61190038819003918201601f19168301916001600160401b038311848410176100795780849260209460405283398101031261007457516001600160a01b0381169081900361007457600080546001600160a01b03191691909117905560405161187090816100908239f35b600080fd5b634e487b7160e01b600052604160045260246000fdfe61030080604052600436101561001457600080fd5b60006102c05260003560e01c9081631367d0ab14611022575080634002eda6146110015780636ece35531461046f5780637e95b52314610449578063c45ac77c14610127578063e5cfd849146100a75763fbfa77cf1461007357600080fd5b346100a0576102c0518060031936011261009d57546040516001600160a01b039091168152602090f35b80fd5b6102c05180fd5b346100a05760203660031901126100a0576004356102c05152600260205260c060406102c0512060018060a01b03815416906001600160801b0360018201541690600281015460ff6003830154169060ff6005600485015494015416936040519586526020860152604085015260608401526080830152151560a0820152f35b346100a0576020806003193601126100a05760043560ff811680910361044457604051906001600160401b036101a083018181118482101761042e5780604052610170816112d9565b600190818152604160f81b6101c0860152845260405161018f816112d9565b818152601960f91b86820152858501526040516101ab816112d9565b818152603360f81b8682015260408501526040516101c8816112d9565b818152600d60fa1b8682015260608501526040516101e5816112d9565b818152603560f81b868201526080850152604051610202816112d9565b818152601b60f91b8682015260a085015260405161021f816112d9565b818152603760f81b8682015260c085015260405161023c816112d9565b818152600760fb1b8682015260e0850152604051610259816112d9565b818152603960f81b86820152610100850152604051610277816112d9565b6002815261031360f41b86820152610120850152604051610297816112d9565b818152602560f91b868201526101408501526040516102b5816112d9565b818152605160f81b86820152610160850152604051906102d4826112d9565b8152604b60f81b8582015261018084015260405190608082019081118282101761042e5780604052610305816112d9565b6003815262e299a360e81b60a08301528152604051610323816112d9565b6003815262714cd360e91b8582015281850152604051610342816112d9565b6003815262e299a560e81b858201526040820152604051610362816112d9565b60038152620714cd60ed1b858201526060820152600d808306939060ff8516101561041457600d90611fe0809560051b160151920492600460ff851610156104145760409360051b160151906103ea8484518094826103ca818401968781519384920161129b565b82016103de8251809386808501910161129b565b010380855201836112f4565b610406835194859381855251928380928601528585019061129b565b601f01601f19168101030190f35b634e487b7160e01b6102c05152603260045260246102c051fd5b634e487b7160e01b600052604160045260246000fd5b600080fd5b346100a0576102c0518060031936011261009d576020604051670de0b6b3a76400008152f35b346100a0576101603660031901126100a05761048961125b565b610220526064356001600160401b0381116100a0576104ac90369060040161126b565b9060c0526084356001600160401b0381116100a0576104cf90369060040161126b565b610140526102405260a4356001600160401b0381116100a0576104f690369060040161126b565b6101c05260c4356001600160401b0381116100a05761051990369060040161126b565b610200526102a05260e435151560e435036100a05761010435151561010435036100a057610124356001600160401b0381116100a05761055d90369060040161126b565b906001600160401b0361014435116100a05761057f366101443560040161126b565b60a052610260526102c080516004359052600260205251604090206101e0819052546001600160a01b031693338503610fd35760ff60056101e05101806102e0525416610fa45760036101405103610f775761010435610f41575b6040516102205160f81b6001600160f81b0319166020820152604435602182015261061281604181015b03601f1981018352826112f4565b6020815191012060046101e051015403610f1157610657906101e05160ff60036002830154928361016052015416806101205260c05191604435916102205191611659565b6102c0515060ff61067b610671610140516102405161133a565b80610100526113b9565b16610ee6576101205160ff610692610100516113b9565b1614610eb757610100516106a5816113b9565b6106b1602083016113b9565b918260e052606081013591601e19823603018312156100a0576001600160401b0383830135116100a0578282013560051b3603602084840101136100a05761070c936040602085850135958501019301359161016051611659565b61075460405161071b816112be565b6102c05181526102c05160208201526102c051604082015261074e6020610748610140516102405161133a565b016113b9565b9061148e565b6102805261012051600194908514610eae575b6107848561077b6101405161024051611355565b6101e0516115c8565b6108086107d16107c6604051610799816112be565b6102c05181526102c05160208201526102c051604082015261074e60206107486101405161024051611355565b9661012051906115ac565b6107e58161077b6101405161024051611376565b6107fa60206107486101405161024051611376565b6101805261012051906115ac565b926101043515610e36576102c0959395515b818110610dec57506102c051935b60a0518086101561087c576108646108759261084f8a61077b8a61086f9661026051611397565b61074e60206107488a60a05161026051611397565b9761012051906115ac565b94611315565b9395610828565b50909493509490945b6108c3604051610894816112be565b6102c05181526102c05160208201526102c05160408201526108be6102205191610180519061148e565b61148e565b916102c051925b601160ff8251161015610de45761020051841015610db357610911906108fb8361077b87610200516102a051611397565b61074e602061074887610200516102a051611397565b90601560ff61092e610928859461012051906115ac565b96611315565b9351161161093e579290926108ca565b92505b6102005103610d815760016101e051018060805254916102c05161010435600014610cf3575060ff926109a1610995928561028051511690866001600160801b039788968780971680958386511690611761565b97511691511690611761565b16911601908111610bb157935b6001600160801b038516610c63575b506102e051805460ff191660011790556102c051916101043515610c5957835b6101043515610c535760a051935b85600201600211610c3b5750610a0c610a0785876002016113c7565b6113eb565b6101a052610a256020610748610140516102405161133a565b6101a05190815115610c255760ff60209116910152610a4f60206107486101405161024051611355565b6101a05190815160011015610c255760ff604091169101526102c0515b858110610bcb57505050506102c0515b818110610b6c5783610a90610200516113eb565b6102c0515b610200519081811015610ad257610ab8602061074883610acd956102a051611397565b60ff610ac4838661141d565b91169052611315565b610a95565b50507ff318021f962a9c9cad487b96b26dd3147dcd3f7e80a70db0fb0deef0daa4499560018060a01b036101e0515416926001600160801b038060805154169160405192835216602082015260c0604082015280610b62610b3960c083016101a051611431565b60ff6101805116606084015260ff6102205116608084015282810360a084015260043595611431565b0390a36102c05180f35b610b8160206107488360a05161026051611397565b9083600201600211610bb157610bac9160ff610ac4610ba384886002016113c7565b6101a05161141d565b610a7c565b634e487b7160e01b6102c05152601160045260246102c051fd5b6101043515610c0c57610be46020610748838588611397565b905b80600201600211610bb157610c079160ff610ac4836002016101a05161141d565b610a6c565b610c1f6020610748836101c05187611397565b90610be6565b634e487b7160e01b600052603260045260246000fd5b634e487b7160e01b905260116004526102c051602490fd5b836109eb565b6101c051936109dd565b6102c05180546001600160a01b031690813b1561009d575060405191634fee0bd560e11b835260048301526001600160801b0386166024830152816044816102c05180945af18015610ce557156109bd576001600160401b038111610ccb57604052846109bd565b634e487b7160e01b6102c05152604160045260246102c051fd5b6040513d6102c051823e3d90fd5b91506102805192600260ff604086015116149384610d72575b506001600160801b0381169260e435610d3e575b5050610d389260ff80610280515116925116916117b3565b936109ae565b909192806002600160811b038460011b160460021490151715610c3b575060011b6002600160801b031690610d3888610d20565b5160ff16601514935088610d0c565b60405162461bcd60e51b815260206004820152600a602482015269115615149057d0d0549160b21b6044820152606490fd5b60405162461bcd60e51b81526020600482015260096024820152681391515117d0d0549160ba1b6044820152606490fd5b929050610941565b939561086f81610e04610e2e9361077b89878a611397565b610e20610e1760206107488a888b611397565b6102805161148e565b6102805261012051906115ac565b95939561081a565b610e54610e1760206107486101409996999897985161024051611355565b610280526102c051945b6101c05180871015610ea25781610e80610e9c9361077b8a610e96958b611397565b610e20610e1760206107488b6101c0518c611397565b95611315565b94610e5e565b50919592909450610885565b60029450610767565b60405162461bcd60e51b8152602060048201526007602482015266484f4c45504f5360c81b6044820152606490fd5b60405162461bcd60e51b8152602060048201526003602482015262504f5360e81b6044820152606490fd5b60405162461bcd60e51b81526020600482015260086024820152672427a622a622a0a360c11b6044820152606490fd5b60e435156105da5760405162461bcd60e51b81526020600482015260066024820152654e4f5f44415360d01b6044820152606490fd5b60405162461bcd60e51b8152602060048201526005602482015264494e49543360d81b6044820152606490fd5b60405162461bcd60e51b815260206004820152600760248201526614d1551513115160ca1b6044820152606490fd5b60405162461bcd60e51b8152602060048201526006602482015265282620aca2a960d11b6044820152606490fd5b346100a0576102c0518060031936011261009d576020600154604051908152f35b346104445760803660031901126104445760043561103e61125b565b90604435606435916001600160801b03948584168094036104445783151580611249575b1561122157506102c05154604051639ac27dd360e01b81526020966001600160a01b03939290919088908290600490829088165afa8015610ce55786916102c051916111f0575b50106111c5576110ba600154611315565b95866001556040519360c08501928584106001600160401b03851117610ccb5789958760ff936005938c97604052338452898401908c825260408501928a8452600288606088019a169c8d8b526080880196875260a088019b6102c0518d526102c051525260406102c051209551166bffffffffffffffffffffffff60a01b865416178555600185019151166001600160801b03198254161790555160028301558360038301955116948419958682541617905551600482015501925115159183541691161790556040519384528584015260408301526060820152817f851245cf748ea7f1e668be9648987eea87fcca7f0889f05ff24cd794581af96860803393a3604051908152f35b60405162461bcd60e51b815260048082018990526024820152631413d3d360e21b6044820152606490fd5b809250898092503d831161121a575b61120981836112f4565b810103126100a057859051896110a9565b503d6111ff565b62461bcd60e51b815260206004820152600360248201526210915560ea1b6044820152606490fd5b50670de0b6b3a7640000841115611062565b6024359060ff8216820361044457565b9181601f84011215610444578235916001600160401b038311610444576020808501948460051b01011161044457565b60005b8381106112ae5750506000910152565b818101518382015260200161129e565b606081019081106001600160401b0382111761042e57604052565b604081019081106001600160401b0382111761042e57604052565b90601f801991011681019081106001600160401b0382111761042e57604052565b60001981146113245760010190565b634e487b7160e01b600052601160045260246000fd5b9015610c2557803590607e1981360301821215610444570190565b9060011015610c2557602081013590607e1981360301821215610444570190565b9060021015610c2557604081013590607e1981360301821215610444570190565b9190811015610c255760051b81013590607e1981360301821215610444570190565b3560ff811681036104445790565b9190820180921161132457565b6001600160401b03811161042e5760051b60200190565b906113f5826113d4565b61140260405191826112f4565b8281528092611413601f19916113d4565b0190602036910137565b8051821015610c255760209160051b010190565b90815180825260208080930193019160005b828110611451575050505090565b835160ff1685529381019392810192600101611443565b60ff60019116019060ff821161132457565b9060ff8091169116019060ff821161132457565b91604092835161149d816112be565b60009481868093528260208201520152600d60ff809416069183831692831593846000146115835750506114f16114d9600b5b8685511661147a565b93856020850151169060001461157c5760019061147a565b925b848116906015821180611571575b156115395750600919018481116115255792841680156115255760001901926114f3565b634e487b7160e01b86526011600452602486fd5b948094938193975061155092506040015116611468565b91816040519561155f876112be565b16855216602084015216604082015290565b508585161515611501565b869061147a565b60091061159e576114d96115996114f192611468565b6114d0565b506114f16114d9600a6114d0565b60ff600181920116911681146115bf5790565b60010160ff1690565b909160ff806115d6856113b9565b9216911603610ee6576115e8826113b9565b60ff80600384015416911614610eb75760020154611605826113b9565b611611602084016113b9565b916060840135601e1985360301811215610444578401928335936001600160401b03851161044457602001928460051b3603841361044457604061165796013592611659565b565b92949093919360ff604095865161168f8161060460209b8c83019586909160219260ff60f81b9060f81b16825260018201520190565b519020911690926000915b8383106116d95750505050036116ae575050565b60649250519062461bcd60e51b825260048201526005602482015264282927a7a360d91b6044820152fd5b611718908360051b830135956001968783161560001461171e578951908b82019283528a82015289815261170c816112be565b519020955b1c92611315565b9161169a565b908951908b82019283528a820152898152611738816112be565b51902095611711565b60011b906002600160811b036002600160801b0383169216820361132457565b60ff169190601583116117ab5760ff16601581116117a05780831461179a576000921115611796576117939150611741565b90565b5090565b50905090565b506117939150611741565b505050600090565b909291926117ec5760ff1691601583116117ab5760ff16601581116117a05780831461179a576000921115611796576117939150611741565b509060009060ff166015036117ff575090565b6001600160801b0380921690600582029180830460051490151715611826575060011c1690565b634e487b7160e01b81526011600452602490fdfea264697066735822122065ff156a0c1bdbbd539a05b2d78f16912970d22301e9b3e82485ceee5a30d49e64736f6c63430008140033",
  "linkReferences": {},
  "deployedLinkReferences": {}
}