{"contracts/UserVaultSystem.sol":{"UserVaultSystem":{"abi":[{"inputs":[],"stateMutability":"nonpayable","type":"constructor"},{"anonymous":false,"inputs":[{"indexed":true,"internalType":"address","name":"userAddress","type":"address"},{"indexed":false,"internalType":"uint256","name":"amount","type":"uint256"}],"name":"Deposited","type":"event"},{"anonymous":false,"inputs":[{"indexed":true,"internalType":"address","name":"userAddress","type":"address"}],"name":"LoggedIn","type":"event"},{"anonymous":false,"inputs":[{"indexed":true,"internalType":"address","name":"userAddress","type":"address"}],"name":"LoggedOut","type":"event"},{"anonymous":false,"inputs":[{"indexed":true,"internalType":"address","name":"user","type":"address"},{"indexed":false,"internalType":"uint256","name":"amount","type":"uint256"}],"name":"PushedToPool","type":"event"},{"anonymous":false,"inputs":[{"indexed":true,"internalType":"address","name":"user","type":"address"},{"indexed":false,"internalType":"uint256","name":"amount","type":"uint256"}],"name":"ScoopedFromPool","type":"event"},{"anonymous":false,"inputs":[{"indexed":true,"internalType":"address","name":"userAddress","type":"address"}],"name":"UserFrozen","type":"event"},{"anonymous":false,"inputs":[{"indexed":true,"internalType":"address","name":"userAddress","type":"address"},{"indexed":false,"internalType":"string","name":"username","type":"string"}],"name":"UserRegistered","type":"event"},{"anonymous":false,"inputs":[{"indexed":true,"internalType":"address","name":"userAddress","type":"address"}],"name":"UserUnfrozen","type":"event"},{"anonymous":false,"inputs":[{"indexed":true,"internalType":"address","name":"account","type":"address"}],"name":"WhitelistAdded","type":"event"},{"anonymous":false,"inputs":[{"indexed":true,"internalType":"address","name":"account","type":"address"}],"name":"WhitelistRemoved","type":"event"},{"anonymous":false,"inputs":[{"indexed":true,"internalType":"address","name":"userAddress","type":"address"},{"indexed":false,"internalType":"uint256","name":"amount","type":"uint256"}],"name":"Withdrawn","type":"event"},{"inputs":[{"internalType":"uint256","name":"amount","type":"uint256"}],"name":"addToPool","outputs":[],"stateMutability":"nonpayable","type":"function"},{"inputs":[{"internalType":"address","name":"account","type":"address"}],"name":"addToWhitelist","outputs":[],"stateMutability":"nonpayable","type":"function"},{"inputs":[{"internalType":"string","name":"oldPassword","type":"string"},{"internalType":"string","name":"newPassword","type":"string"}],"name":"changePassword","outputs":[],"stateMutability":"nonpayable","type":"function"},{"inputs":[],"name":"checkLoginStatus","outputs":[{"internalType":"bool","name":"","type":"bool"}],"stateMutability":"view","type":"function"},{"inputs":[],"name":"deposit","outputs":[],"stateMutability":"payable","type":"function"},{"inputs":[],"name":"gamePoolBalance","outputs":[{"internalType":"uint256","name":"","type":"uint256"}],"stateMutability":"view","type":"function"},{"inputs":[],"name":"getUserInfo","outputs":[{"internalType":"string","name":"username","type":"string"},{"internalType":"uint256","name":"balance","type":"uint256"},{"internalType":"bool","name":"frozen","type":"bool"}],"stateMutability":"view","type":"function"},{"inputs":[],"name":"getVaultBalance","outputs":[{"internalType":"uint256","name":"","type":"uint256"}],"stateMutability":"view","type":"function"},{"inputs":[{"internalType":"address","name":"account","type":"address"}],"name":"isAdmin","outputs":[{"internalType":"bool","name":"","type":"bool"}],"stateMutability":"view","type":"function"},{"inputs":[{"internalType":"address","name":"userAddress","type":"address"},{"internalType":"uint256","name":"amount","type":"uint256"}],"name":"isBalanceGreaterThan","outputs":[{"internalType":"bool","name":"","type":"bool"}],"stateMutability":"view","type":"function"},{"inputs":[{"internalType":"address","name":"userAddress","type":"address"}],"name":"isSessionExpired","outputs":[{"internalType":"bool","name":"","type":"bool"}],"stateMutability":"view","type":"function"},{"inputs":[{"internalType":"string","name":"password","type":"string"}],"name":"login","outputs":[],"stateMutability":"nonpayable","type":"function"},{"inputs":[],"name":"logout","outputs":[],"stateMutability":"nonpayable","type":"function"},{"inputs":[],"name":"owner","outputs":[{"internalType":"address","name":"","type":"address"}],"stateMutability":"view","type":"function"},{"inputs":[{"internalType":"uint256","name":"amount","type":"uint256"}],"name":"pushToPool","outputs":[],"stateMutability":"nonpayable","type":"function"},{"inputs":[{"internalType":"string","name":"username","type":"string"},{"internalType":"string","name":"password","type":"string"}],"name":"registerUser","outputs":[],"stateMutability":"nonpayable","type":"function"},{"inputs":[{"internalType":"uint256","name":"amount","type":"uint256"}],"name":"removeFromPool","outputs":[],"stateMutability":"nonpayable","type":"function"},{"inputs":[{"internalType":"address","name":"account","type":"address"}],"name":"removeFromWhitelist","outputs":[],"stateMutability":"nonpayable","type":"function"},{"inputs":[{"internalType":"address","name":"to","type":"address"},{"internalType":"uint256","name":"amount","type":"uint256"}],"name":"scoopFromPool","outputs":[],"stateMutability":"nonpayable","type":"function"},{"inputs":[],"name":"sessionTimeout","outputs":[{"internalType":"uint256","name":"","type":"uint256"}],"stateMutability":"view","type":"function"},{"inputs":[],"name":"updateLastActivity","outputs":[],"stateMutability":"nonpayable","type":"function"},{"inputs":[{"internalType":"address","name":"","type":"address"}],"name":"users","outputs":[{"internalType":"string","name":"username","type":"string"},{"internalType":"uint256","name":"balance","type":"uint256"},{"internalType":"bytes32","name":"password","type":"bytes32"},{"internalType":"bool","name":"exists","type":"bool"},{"internalType":"uint256","name":"lastActivity","type":"uint256"},{"internalType":"bool","name":"frozen","type":"bool"},{"internalType":"bool","name":"isLoggedIn","type":"bool"}],"stateMutability":"view","type":"function"},{"inputs":[{"internalType":"string","name":"password","type":"string"}],"name":"verifyPassword","outputs":[{"internalType":"bool","name":"","type":"bool"}],"stateMutability":"view","type":"function"},{"inputs":[{"internalType":"address","name":"","type":"address"}],"name":"whitelist","outputs":[{"internalType":"bool","name":"","type":"bool"}],"stateMutability":"view","type":"function"},{"inputs":[{"internalType":"uint256","name":"amount","type":"uint256"}],"name":"withdraw","outputs":[],"stateMutability":"nonpayable","type":"function"}],"evm":{"bytecode":{"linkReferences":{},"object":"6080806040523461003c5762057e4060015568056bc75e2d63100000600455600080546001600160a01b031916331790556118d490816100428239f35b600080fdfe6080604052600436101561001257600080fd5b60003560e01c8063080683e4146112eb57806309c01e8f146112cd5780631c5fc4831461126d5780631d2e4afd14610e9a5780631f3c99c314610e0a57806324d7806c14610db25780632e1a7d4d14610ba3578063347c9e4214610b0a578063398d536c14610add5780633a7d280c146109cc57806343589db81461093c5780635d8d15851461089557806384a836621461072a5780638ab1d681146106b95780638da5cb5b146106905780639ac27dd3146106725780639b19251a146106335780639fdc17aa14610511578063a87430ba14610471578063cee6b53c14610446578063d0a8bc2c146103d5578063d0e30db0146102c3578063e43252d71461024f578063e8812805146101505763ed12e8ef1461012f57600080fd5b3461014b57600036600319011261014b57602047604051908152f35b600080fd5b3461014b5760208060031936011261014b577f5e0dbd03b3e7ce681d3f44a00947feb8fb1231568a4f453b29c99c242f72a90c6004359133600052600281526101a360ff600360406000200154166114f3565b33600052600281526101c260ff60056040600020015460081c16611535565b6101d46101ce336115eb565b1561164a565b6101df831515611780565b33600052600281526101fb8360016040600020015410156116e7565b336000526002815261021860ff60056040600020015416156116a2565b336000526002815260016040600020016102338482546115de565b905561024183600454611576565b6004556040519283523392a2005b3461014b57602036600319011261014b5761026861137f565b6000546001600160a01b039190610282908316331461172a565b168060005260036020526040600020600160ff198254161790557f4790a4adb426ca2345bb5108f6e454eae852a7bf687544cd66a7270dff3a41d6600080a2005b600036600319011261014b573360005260026020526102ec60ff600360406000200154166114f3565b33600052600260205261030c60ff60056040600020015460081c16611535565b6103186101ce336115eb565b341561038257336000526002602052600160406000200161033a348254611576565b905561035433600052600260205242600460406000200155565b6040513481527f2da466a7b24304f47e87fa2e1e5a81b9831ce54fec19055ce277ca2f39ba42c460203392a2005b60405162461bcd60e51b815260206004820152602560248201527f4465706f73697420616d6f756e74206d75737420626520677265617465722074604482015264068616e20360dc1b6064820152608490fd5b3461014b57602036600319011261014b5761042860043560018060a01b03600054163314801561042d575b610409906117cc565b61041481151561185d565b60045461042382821015611811565b6115de565b600455005b503360009081526003602052604090205460ff16610400565b3461014b57600036600319011261014b5761046f33600052600260205242600460406000200155565b005b3461014b57602036600319011261014b576001600160a01b0361049261137f565b1660005260026020526104e160406000206104ac81611431565b9060ff60018201549160028101549082600382015416600560048301549201549260405197889760e0895260e0890190611395565b9560208801526040870152151560608601526080850152818116151560a085015260081c16151560c08301520390f35b3461014b57604036600319011261014b5761052a61137f565b600054602435916001600160a01b039182163314801561061a575b61054e906117cc565b1680600052600260205260ff60036040600020015416156105d557610574821515611780565b6105878260045461042382821015611811565b600455600052600260205260016040600020016105a5828254611576565b90556040519081527f74dd68f11699d5255cfb547532712e0bd75fbe11c35383a62c0142adf2a79b7f60203392a2005b60405162461bcd60e51b815260206004820152601860248201527f526563697069656e74206e6f74207265676973746572656400000000000000006044820152606490fd5b503360009081526003602052604090205460ff16610545565b3461014b57602036600319011261014b576001600160a01b0361065461137f565b166000526003602052602060ff604060002054166040519015158152f35b3461014b57600036600319011261014b576020600454604051908152f35b3461014b57600036600319011261014b576000546040516001600160a01b039091168152602090f35b3461014b57602036600319011261014b576106d261137f565b6000546001600160a01b0391906106ec908316331461172a565b16806000526003602052604060002060ff1981541690557fde8cf212af7ce38b2840785a2768d97ff2dbf3c21b516961cec0061e134c2a1e600080a2005b3461014b5761073836611334565b3360005260029260209484865261075960ff600360406000200154166114f3565b3360005284865261077760ff60056040600020015460081c16611535565b6107836101ce336115eb565b336000528486528460406000200154916107b687604051838194838301968737810160008382015203808452018261140f565b51902003610857578015610812579082916107ea85604051838194838301968737810160008382015203808452018261140f565b5190209233600052526040600020015561046f33600052600260205242600460406000200155565b60405162461bcd60e51b815260048101859052601c60248201527f4e65772070617373776f72642063616e6e6f7420626520656d707479000000006044820152606490fd5b60405162461bcd60e51b815260048101859052601660248201527513db19081c185cdcdddbdc99081a5b98dbdc9c9958dd60521b6044820152606490fd5b3461014b57600036600319011261014b573360005260026020526108c360ff600360406000200154166114f3565b3360005260026020526108e360ff60056040600020015460081c16611535565b6108ef6101ce336115eb565b33600052600260205261092b6040600020600181015461091660ff60058401541692611431565b91604051938493606085526060850190611395565b916020840152151560408301520390f35b3461014b5760208060031936011261014b5760043567ffffffffffffffff811161014b5761096e903690600401611306565b90336000526002835261098b60ff600360406000200154166114f3565b3360005260028352600260406000200154916109c084604051838194838301968737810160008382015203808452018261140f565b51902014604051908152f35b3461014b5760208060031936011261014b5760043567ffffffffffffffff811161014b576109fe903690600401611306565b903360005260028352610a1b60ff600360406000200154166114f3565b336000526002835260026040600020015491610a5084604051838194838301968737810160008382015203808452018261140f565b51902003610aa457600290336000525260406000206005810161010061ff0019825416179055600442910155337f0a581ae4192c44a0074ccc9c655d264ea6a838e99ca8dfc8ca439aee62cb5183600080a2005b6064906040519062461bcd60e51b825260048201526012602482015271125b98dbdc9c9958dd081c185cdcdddbdc9960721b6044820152fd5b3461014b57602036600319011261014b576020610b00610afb61137f565b6115eb565b6040519015158152f35b3461014b57604036600319011261014b576001600160a01b03610b2b61137f565b1680600052600260205260ff6003604060002001541615610b65576000526002602052602060243560016040600020015411604051908152f35b60405162461bcd60e51b8152602060048201526016602482015275155cd95c881a5cc81b9bdd081c9959da5cdd195c995960521b6044820152606490fd5b3461014b5760208060031936011261014b57600435903360005260028152610bd560ff600360406000200154166114f3565b3360005260028152610bf460ff60056040600020015460081c16611535565b610c006101ce336115eb565b3360005260028152610c1d60ff60056040600020015416156116a2565b8115610d5d573360005260028152610c3f8260016040600020015410156116e7565b814710610d195733600052600281526001604060002001610c618382546115de565b9055610c7b33600052600260205242600460406000200155565b600080808085335af13d15610d14573d610c94816114d7565b90610ca2604051928361140f565b81526000833d92013e5b15610cde577f7084f5476618d8e60b11ef0d7d3f06914655adb8793e28ff7f018d4c76d505d5906040519283523392a2005b6064906040519062461bcd60e51b82526004820152600f60248201526e151c985b9cd9995c8819985a5b1959608a1b6044820152fd5b610cac565b6064906040519062461bcd60e51b82526004820152601c60248201527f5661756c742068617320696e73756666696369656e742066756e6473000000006044820152fd5b6084906040519062461bcd60e51b82526004820152602860248201527f5769746864726177616c20616d6f756e74206d75737420626520677265617465604482015267072207468616e20360c41b6064820152fd5b3461014b57602036600319011261014b57610dcb61137f565b6000546001600160a01b03918216911681148015610df1575b6020906040519015158152f35b506000526003602052602060ff60406000205416610de4565b3461014b57600036600319011261014b57336000526002602052610e3860ff600360406000200154166114f3565b336000526002602052610e5860ff60056040600020015460081c16611535565b336000526002602052600560406000200161ff00198154169055337f8d11ef6404d9eeb0a13d346ad9b49adf23be5a095f5efb8741c3eec74e43ee9c600080a2005b3461014b57610ea836611334565b33600052600260205260ff600360406000200154166112285782156111e357600381111561118f57610ef46020604051838194838301968737810160008382015203808452018261140f565b51902060405167ffffffffffffffff939160e082018581118382101761117957604052610f20846114d7565b610f2d604051918261140f565b848152368585011161014b5784846020830137600060208683010152825260006020830152604082015260016060820152426080820152600060a0820152600160c08201523360005260026020526040600020938151805191821161117957610f9686546113d5565b601f8111611135575b50602090601f83116001146110a457958260c0936005937f48cac28ad4dc618e15f4c2dd5e97751182f166de97b25618318b2112aa951a2f9899600092611099575b50508160011b916000199060031b1c19161781555b602084015160018201556040840151600282015561102960608501511515600383019060ff801983541691151516179055565b60808401516004820155019161105160a08201511515849060ff801983541691151516179055565b0151151561ff0082549160081b169061ff00191617905582604051916020835281602084015260408301376000604084830101526040813394601f80199101168101030190a2005b015190508980610fe1565b908660005260206000209160005b601f198516811061111d5750836005937f48cac28ad4dc618e15f4c2dd5e97751182f166de97b25618318b2112aa951a2f98999360019360c097601f19811610611104575b505050811b018155610ff6565b015160001960f88460031b161c191690558980806110f7565b919260206001819286850151815501940192016110b2565b866000526020600020601f840160051c810160208510611172575b601f830160051c82018110611166575050610f9f565b60008155600101611150565b5080611150565b634e487b7160e01b600052604160045260246000fd5b60405162461bcd60e51b815260206004820152602660248201527f50617373776f7264206d757374206265206174206c656173742034206368617260448201526561637465727360d01b6064820152608490fd5b60405162461bcd60e51b815260206004820152601860248201527f557365726e616d652063616e6e6f7420626520656d70747900000000000000006044820152606490fd5b60405162461bcd60e51b815260206004820152601760248201527f5573657220616c726561647920726567697374657265640000000000000000006044820152606490fd5b3461014b57602036600319011261014b5761042860043560018060a01b0360005416331480156112b4575b6112a1906117cc565b6112ac81151561185d565b600454611576565b503360009081526003602052604090205460ff16611298565b3461014b57600036600319011261014b576020600154604051908152f35b3461014b57600036600319011261014b576020610b00611599565b9181601f8401121561014b5782359167ffffffffffffffff831161014b576020838186019501011161014b57565b604060031982011261014b5767ffffffffffffffff9160043583811161014b578261136191600401611306565b9390939260243591821161014b5761137b91600401611306565b9091565b600435906001600160a01b038216820361014b57565b919082519283825260005b8481106113c1575050826000602080949584010152601f8019910116010190565b6020818301810151848301820152016113a0565b90600182811c92168015611405575b60208310146113ef57565b634e487b7160e01b600052602260045260246000fd5b91607f16916113e4565b90601f8019910116810190811067ffffffffffffffff82111761117957604052565b9060405191826000825492611445846113d5565b9081845260019485811690816000146114b45750600114611471575b505061146f9250038361140f565b565b9093915060005260209081600020936000915b81831061149c57505061146f93508201013880611461565b85548884018501529485019487945091830191611484565b91505061146f94506020925060ff191682840152151560051b8201013880611461565b67ffffffffffffffff811161117957601f01601f191660200190565b156114fa57565b60405162461bcd60e51b8152602060048201526013602482015272155cd95c881b9bdd081c9959da5cdd195c9959606a1b6044820152606490fd5b1561153c57565b60405162461bcd60e51b81526020600482015260126024820152712ab9b2b9103737ba103637b3b3b2b21034b760711b6044820152606490fd5b9190820180921161158357565b634e487b7160e01b600052601160045260246000fd5b336000526002602052604060002060ff600382015416156115d8576115c5600482015460015490611576565b42116115d8576005015460081c60ff1690565b50600090565b9190820391821161158357565b6001600160a01b03166000818152600260205260409020600301546116129060ff166114f3565b6000526002602052604060002060ff600582015460081c161561164457600461163d910154426115de565b6001541090565b50600190565b1561165157565b60405162461bcd60e51b8152602060048201526024808201527f53657373696f6e20657870697265642c20706c65617365206c6f6720696e206160448201526333b0b4b760e11b6064820152608490fd5b156116a957565b60405162461bcd60e51b81526020600482015260166024820152752ab9b2b91030b1b1b7bab73a1034b990333937bd32b760511b6044820152606490fd5b156116ee57565b60405162461bcd60e51b8152602060048201526014602482015273496e73756666696369656e742062616c616e636560601b6044820152606490fd5b1561173157565b60405162461bcd60e51b815260206004820152602160248201527f4f6e6c79206f776e65722063616e2063616c6c20746869732066756e6374696f6044820152603760f91b6064820152608490fd5b1561178757565b60405162461bcd60e51b815260206004820152601d60248201527f416d6f756e74206d7573742062652067726561746572207468616e20300000006044820152606490fd5b156117d357565b60405162461bcd60e51b8152602060048201526016602482015275139bdd081bdddb995c881bdc881dda1a5d195b1a5cdd60521b6044820152606490fd5b1561181857565b60405162461bcd60e51b815260206004820152601960248201527f496e73756666696369656e7420706f6f6c2062616c616e6365000000000000006044820152606490fd5b1561186457565b60405162461bcd60e51b81526020600482015260126024820152710416d6f756e74206d757374206265203e20360741b6044820152606490fdfea2646970667358221220e90d1c2da89a1bd8a8a991451911f41e53dfdaa822b05c794de7b95c021a5f6764736f6c63430008140033","opcodes":"PUSH1 0x80 DUP1 PUSH1 0x40 MSTORE CALLVALUE PUSH2 0x3C JUMPI PUSH3 0x57E40 PUSH1 0x1 SSTORE PUSH9 0x56BC75E2D63100000 PUSH1 0x4 SSTORE PUSH1 0x0 DUP1 SLOAD PUSH1 0x1 PUSH1 0x1 PUSH1 0xA0 SHL SUB NOT AND CALLER OR SWAP1 SSTORE PUSH2 0x18D4 SWAP1 DUP2 PUSH2 0x42 DUP3 CODECOPY RETURN JUMPDEST PUSH1 0x0 DUP1 REVERT INVALID PUSH1 0x80 PUSH1 0x40 MSTORE PUSH1 0x4 CALLDATASIZE LT ISZERO PUSH2 0x12 JUMPI PUSH1 0x0 DUP1 REVERT JUMPDEST PUSH1 0x0 CALLDATALOAD PUSH1 0xE0 SHR DUP1 PUSH4 0x80683E4 EQ PUSH2 0x12EB JUMPI DUP1 PUSH4 0x9C01E8F EQ PUSH2 0x12CD JUMPI DUP1 PUSH4 0x1C5FC483 EQ PUSH2 0x126D JUMPI DUP1 PUSH4 0x1D2E4AFD EQ PUSH2 0xE9A JUMPI DUP1 PUSH4 0x1F3C99C3 EQ PUSH2 0xE0A JUMPI DUP1 PUSH4 0x24D7806C EQ PUSH2 0xDB2 JUMPI DUP1 PUSH4 0x2E1A7D4D EQ PUSH2 0xBA3 JUMPI DUP1 PUSH4 0x347C9E42 EQ PUSH2 0xB0A JUMPI DUP1 PUSH4 0x398D536C EQ PUSH2 0xADD JUMPI DUP1 PUSH4 0x3A7D280C EQ PUSH2 0x9CC JUMPI DUP1 PUSH4 0x43589DB8 EQ PUSH2 0x93C JUMPI DUP1 PUSH4 0x5D8D1585 EQ PUSH2 0x895 JUMPI DUP1 PUSH4 0x84A83662 EQ PUSH2 0x72A JUMPI DUP1 PUSH4 0x8AB1D681 EQ PUSH2 0x6B9 JUMPI DUP1 PUSH4 0x8DA5CB5B EQ PUSH2 0x690 JUMPI DUP1 PUSH4 0x9AC27DD3 EQ PUSH2 0x672 JUMPI DUP1 PUSH4 0x9B19251A EQ PUSH2 0x633 JUMPI DUP1 PUSH4 0x9FDC17AA EQ PUSH2 0x511 JUMPI DUP1 PUSH4 0xA87430BA EQ PUSH2 0x471 JUMPI DUP1 PUSH4 0xCEE6B53C EQ PUSH2 0x446 JUMPI DUP1 PUSH4 0xD0A8BC2C EQ PUSH2 0x3D5 JUMPI DUP1 PUSH4 0xD0E30DB0 EQ PUSH2 0x2C3 JUMPI DUP1 PUSH4 0xE43252D7 EQ PUSH2 0x24F JUMPI DUP1 PUSH4 0xE8812805 EQ PUSH2 0x150 JUMPI PUSH4 0xED12E8EF EQ PUSH2 0x12F JUMPI PUSH1 0x0 DUP1 REVERT JUMPDEST CALLVALUE PUSH2 0x14B JUMPI PUSH1 0x0 CALLDATASIZE PUSH1 0x3 NOT ADD SLT PUSH2 0x14B JUMPI PUSH1 0x20 SELFBALANCE PUSH1 0x40 MLOAD SWAP1 DUP2 MSTORE RETURN JUMPDEST PUSH1 0x0 DUP1 REVERT JUMPDEST CALLVALUE PUSH2 0x14B JUMPI PUSH1 0x20 DUP1 PUSH1 0x3 NOT CALLDATASIZE ADD SLT PUSH2 0x14B JUMPI PUSH32 0x5E0DBD03B3E7CE681D3F44A00947FEB8FB1231568A4F453B29C99C242F72A90C PUSH1 0x4 CALLDATALOAD SWAP2 CALLER PUSH1 0x0 MSTORE PUSH1 0x2 DUP2 MSTORE PUSH2 0x1A3 PUSH1 0xFF PUSH1 0x3 PUSH1 0x40 PUSH1 0x0 KECCAK256 ADD SLOAD AND PUSH2 0x14F3 JUMP JUMPDEST CALLER PUSH1 0x0 MSTORE PUSH1 0x2 DUP2 MSTORE PUSH2 0x1C2 PUSH1 0xFF PUSH1 0x5 PUSH1 0x40 PUSH1 0x0 KECCAK256 ADD SLOAD PUSH1 0x8 SHR AND PUSH2 0x1535 JUMP JUMPDEST PUSH2 0x1D4 PUSH2 0x1CE CALLER PUSH2 0x15EB JUMP JUMPDEST ISZERO PUSH2 0x164A JUMP JUMPDEST PUSH2 0x1DF DUP4 ISZERO ISZERO PUSH2 0x1780 JUMP JUMPDEST CALLER PUSH1 0x0 MSTORE PUSH1 0x2 DUP2 MSTORE PUSH2 0x1FB DUP4 PUSH1 0x1 PUSH1 0x40 PUSH1 0x0 KECCAK256 ADD SLOAD LT ISZERO PUSH2 0x16E7 JUMP JUMPDEST CALLER PUSH1 0x0 MSTORE PUSH1 0x2 DUP2 MSTORE PUSH2 0x218 PUSH1 0xFF PUSH1 0x5 PUSH1 0x40 PUSH1 0x0 KECCAK256 ADD SLOAD AND ISZERO PUSH2 0x16A2 JUMP JUMPDEST CALLER PUSH1 0x0 MSTORE PUSH1 0x2 DUP2 MSTORE PUSH1 0x1 PUSH1 0x40 PUSH1 0x0 KECCAK256 ADD PUSH2 0x233 DUP5 DUP3 SLOAD PUSH2 0x15DE JUMP JUMPDEST SWAP1 SSTORE PUSH2 0x241 DUP4 PUSH1 0x4 SLOAD PUSH2 0x1576 JUMP JUMPDEST PUSH1 0x4 SSTORE PUSH1 0x40 MLOAD SWAP3 DUP4 MSTORE CALLER SWAP3 LOG2 STOP JUMPDEST CALLVALUE PUSH2 0x14B JUMPI PUSH1 0x20 CALLDATASIZE PUSH1 0x3 NOT ADD SLT PUSH2 0x14B JUMPI PUSH2 0x268 PUSH2 0x137F JUMP JUMPDEST PUSH1 0x0 SLOAD PUSH1 0x1 PUSH1 0x1 PUSH1 0xA0 SHL SUB SWAP2 SWAP1 PUSH2 0x282 SWAP1 DUP4 AND CALLER EQ PUSH2 0x172A JUMP JUMPDEST AND DUP1 PUSH1 0x0 MSTORE PUSH1 0x3 PUSH1 0x20 MSTORE PUSH1 0x40 PUSH1 0x0 KECCAK256 PUSH1 0x1 PUSH1 0xFF NOT DUP3 SLOAD AND OR SWAP1 SSTORE PUSH32 0x4790A4ADB426CA2345BB5108F6E454EAE852A7BF687544CD66A7270DFF3A41D6 PUSH1 0x0 DUP1 LOG2 STOP JUMPDEST PUSH1 0x0 CALLDATASIZE PUSH1 0x3 NOT ADD SLT PUSH2 0x14B JUMPI CALLER PUSH1 0x0 MSTORE PUSH1 0x2 PUSH1 0x20 MSTORE PUSH2 0x2EC PUSH1 0xFF PUSH1 0x3 PUSH1 0x40 PUSH1 0x0 KECCAK256 ADD SLOAD AND PUSH2 0x14F3 JUMP JUMPDEST CALLER PUSH1 0x0 MSTORE PUSH1 0x2 PUSH1 0x20 MSTORE PUSH2 0x30C PUSH1 0xFF PUSH1 0x5 PUSH1 0x40 PUSH1 0x0 KECCAK256 ADD SLOAD PUSH1 0x8 SHR AND PUSH2 0x1535 JUMP JUMPDEST PUSH2 0x318 PUSH2 0x1CE CALLER PUSH2 0x15EB JUMP JUMPDEST CALLVALUE ISZERO PUSH2 0x382 JUMPI CALLER PUSH1 0x0 MSTORE PUSH1 0x2 PUSH1 0x20 MSTORE PUSH1 0x1 PUSH1 0x40 PUSH1 0x0 KECCAK256 ADD PUSH2 0x33A CALLVALUE DUP3 SLOAD PUSH2 0x1576 JUMP JUMPDEST SWAP1 SSTORE PUSH2 0x354 CALLER PUSH1 0x0 MSTORE PUSH1 0x2 PUSH1 0x20 MSTORE TIMESTAMP PUSH1 0x4 PUSH1 0x40 PUSH1 0x0 KECCAK256 ADD SSTORE JUMP JUMPDEST PUSH1 0x40 MLOAD CALLVALUE DUP2 MSTORE PUSH32 0x2DA466A7B24304F47E87FA2E1E5A81B9831CE54FEC19055CE277CA2F39BA42C4 PUSH1 0x20 CALLER SWAP3 LOG2 STOP JUMPDEST PUSH1 0x40 MLOAD PUSH3 0x461BCD PUSH1 0xE5 SHL DUP2 MSTORE PUSH1 0x20 PUSH1 0x4 DUP3 ADD MSTORE PUSH1 0x25 PUSH1 0x24 DUP3 ADD MSTORE PUSH32 0x4465706F73697420616D6F756E74206D75737420626520677265617465722074 PUSH1 0x44 DUP3 ADD MSTORE PUSH5 0x68616E203 PUSH1 0xDC SHL PUSH1 0x64 DUP3 ADD MSTORE PUSH1 0x84 SWAP1 REVERT JUMPDEST CALLVALUE PUSH2 0x14B JUMPI PUSH1 0x20 CALLDATASIZE PUSH1 0x3 NOT ADD SLT PUSH2 0x14B JUMPI PUSH2 0x428 PUSH1 0x4 CALLDATALOAD PUSH1 0x1 DUP1 PUSH1 0xA0 SHL SUB PUSH1 0x0 SLOAD AND CALLER EQ DUP1 ISZERO PUSH2 0x42D JUMPI JUMPDEST PUSH2 0x409 SWAP1 PUSH2 0x17CC JUMP JUMPDEST PUSH2 0x414 DUP2 ISZERO ISZERO PUSH2 0x185D JUMP JUMPDEST PUSH1 0x4 SLOAD PUSH2 0x423 DUP3 DUP3 LT ISZERO PUSH2 0x1811 JUMP JUMPDEST PUSH2 0x15DE JUMP JUMPDEST PUSH1 0x4 SSTORE STOP JUMPDEST POP CALLER PUSH1 0x0 SWAP1 DUP2 MSTORE PUSH1 0x3 PUSH1 0x20 MSTORE PUSH1 0x40 SWAP1 KECCAK256 SLOAD PUSH1 0xFF AND PUSH2 0x400 JUMP JUMPDEST CALLVALUE PUSH2 0x14B JUMPI PUSH1 0x0 CALLDATASIZE PUSH1 0x3 NOT ADD SLT PUSH2 0x14B JUMPI PUSH2 0x46F CALLER PUSH1 0x0 MSTORE PUSH1 0x2 PUSH1 0x20 MSTORE TIMESTAMP PUSH1 0x4 PUSH1 0x40 PUSH1 0x0 KECCAK256 ADD SSTORE JUMP JUMPDEST STOP JUMPDEST CALLVALUE PUSH2 0x14B JUMPI PUSH1 0x20 CALLDATASIZE PUSH1 0x3 NOT ADD SLT PUSH2 0x14B JUMPI PUSH1 0x1 PUSH1 0x1 PUSH1 0xA0 SHL SUB PUSH2 0x492 PUSH2 0x137F JUMP JUMPDEST AND PUSH1 0x0 MSTORE PUSH1 0x2 PUSH1 0x20 MSTORE PUSH2 0x4E1 PUSH1 0x40 PUSH1 0x0 KECCAK256 PUSH2 0x4AC DUP2 PUSH2 0x1431 JUMP JUMPDEST SWAP1 PUSH1 0xFF PUSH1 0x1 DUP3 ADD SLOAD SWAP2 PUSH1 0x2 DUP2 ADD SLOAD SWAP1 DUP3 PUSH1 0x3 DUP3 ADD SLOAD AND PUSH1 0x5 PUSH1 0x4 DUP4 ADD SLOAD SWAP3 ADD SLOAD SWAP3 PUSH1 0x40 MLOAD SWAP8 DUP9 SWAP8 PUSH1 0xE0 DUP10 MSTORE PUSH1 0xE0 DUP10 ADD SWAP1 PUSH2 0x1395 JUMP JUMPDEST SWAP6 PUSH1 0x20 DUP9 ADD MSTORE PUSH1 0x40 DUP8 ADD MSTORE ISZERO ISZERO PUSH1 0x60 DUP7 ADD MSTORE PUSH1 0x80 DUP6 ADD MSTORE DUP2 DUP2 AND ISZERO ISZERO PUSH1 0xA0 DUP6 ADD MSTORE PUSH1 0x8 SHR AND ISZERO ISZERO PUSH1 0xC0 DUP4 ADD MSTORE SUB SWAP1 RETURN JUMPDEST CALLVALUE PUSH2 0x14B JUMPI PUSH1 0x40 CALLDATASIZE PUSH1 0x3 NOT ADD SLT PUSH2 0x14B JUMPI PUSH2 0x52A PUSH2 0x137F JUMP JUMPDEST PUSH1 0x0 SLOAD PUSH1 0x24 CALLDATALOAD SWAP2 PUSH1 0x1 PUSH1 0x1 PUSH1 0xA0 SHL SUB SWAP2 DUP3 AND CALLER EQ DUP1 ISZERO PUSH2 0x61A JUMPI JUMPDEST PUSH2 0x54E SWAP1 PUSH2 0x17CC JUMP JUMPDEST AND DUP1 PUSH1 0x0 MSTORE PUSH1 0x2 PUSH1 0x20 MSTORE PUSH1 0xFF PUSH1 0x3 PUSH1 0x40 PUSH1 0x0 KECCAK256 ADD SLOAD AND ISZERO PUSH2 0x5D5 JUMPI PUSH2 0x574 DUP3 ISZERO ISZERO PUSH2 0x1780 JUMP JUMPDEST PUSH2 0x587 DUP3 PUSH1 0x4 SLOAD PUSH2 0x423 DUP3 DUP3 LT ISZERO PUSH2 0x1811 JUMP JUMPDEST PUSH1 0x4 SSTORE PUSH1 0x0 MSTORE PUSH1 0x2 PUSH1 0x20 MSTORE PUSH1 0x1 PUSH1 0x40 PUSH1 0x0 KECCAK256 ADD PUSH2 0x5A5 DUP3 DUP3 SLOAD PUSH2 0x1576 JUMP JUMPDEST SWAP1 SSTORE PUSH1 0x40 MLOAD SWAP1 DUP2 MSTORE PUSH32 0x74DD68F11699D5255CFB547532712E0BD75FBE11C35383A62C0142ADF2A79B7F PUSH1 0x20 CALLER SWAP3 LOG2 STOP JUMPDEST PUSH1 0x40 MLOAD PUSH3 0x461BCD PUSH1 0xE5 SHL DUP2 MSTORE PUSH1 0x20 PUSH1 0x4 DUP3 ADD MSTORE PUSH1 0x18 PUSH1 0x24 DUP3 ADD MSTORE PUSH32 0x526563697069656E74206E6F7420726567697374657265640000000000000000 PUSH1 0x44 DUP3 ADD MSTORE PUSH1 0x64 SWAP1 REVERT JUMPDEST POP CALLER PUSH1 0x0 SWAP1 DUP2 MSTORE PUSH1 0x3 PUSH1 0x20 MSTORE PUSH1 0x40 SWAP1 KECCAK256 SLOAD PUSH1 0xFF AND PUSH2 0x545 JUMP JUMPDEST CALLVALUE PUSH2 0x14B JUMPI PUSH1 0x20 CALLDATASIZE PUSH1 0x3 NOT ADD SLT PUSH2 0x14B JUMPI PUSH1 0x1 PUSH1 0x1 PUSH1 0xA0 SHL SUB PUSH2 0x654 PUSH2 0x137F JUMP JUMPDEST AND PUSH1 0x0 MSTORE PUSH1 0x3 PUSH1 0x20 MSTORE PUSH1 0x20 PUSH1 0xFF PUSH1 0x40 PUSH1 0x0 KECCAK256 SLOAD AND PUSH1 0x40 MLOAD SWAP1 ISZERO ISZERO DUP2 MSTORE RETURN JUMPDEST CALLVALUE PUSH2 0x14B JUMPI PUSH1 0x0 CALLDATASIZE PUSH1 0x3 NOT ADD SLT PUSH2 0x14B JUMPI PUSH1 0x20 PUSH1 0x4 SLOAD PUSH1 0x40 MLOAD SWAP1 DUP2 MSTORE RETURN JUMPDEST CALLVALUE PUSH2 0x14B JUMPI PUSH1 0x0 CALLDATASIZE PUSH1 0x3 NOT ADD SLT PUSH2 0x14B JUMPI PUSH1 0x0 SLOAD PUSH1 0x40 MLOAD PUSH1 0x1 PUSH1 0x1 PUSH1 0xA0 SHL SUB SWAP1 SWAP2 AND DUP2 MSTORE PUSH1 0x20 SWAP1 RETURN JUMPDEST CALLVALUE PUSH2 0x14B JUMPI PUSH1 0x20 CALLDATASIZE PUSH1 0x3 NOT ADD SLT PUSH2 0x14B JUMPI PUSH2 0x6D2 PUSH2 0x137F JUMP JUMPDEST PUSH1 0x0 SLOAD PUSH1 0x1 PUSH1 0x1 PUSH1 0xA0 SHL SUB SWAP2 SWAP1 PUSH2 0x6EC SWAP1 DUP4 AND CALLER EQ PUSH2 0x172A JUMP JUMPDEST AND DUP1 PUSH1 0x0 MSTORE PUSH1 0x3 PUSH1 0x20 MSTORE PUSH1 0x40 PUSH1 0x0 KECCAK256 PUSH1 0xFF NOT DUP2 SLOAD AND SWAP1 SSTORE PUSH32 0xDE8CF212AF7CE38B2840785A2768D97FF2DBF3C21B516961CEC0061E134C2A1E PUSH1 0x0 DUP1 LOG2 STOP JUMPDEST CALLVALUE PUSH2 0x14B JUMPI PUSH2 0x738 CALLDATASIZE PUSH2 0x1334 JUMP JUMPDEST CALLER PUSH1 0x0 MSTORE PUSH1 0x2 SWAP3 PUSH1 0x20 SWAP5 DUP5 DUP7 MSTORE PUSH2 0x759 PUSH1 0xFF PUSH1 0x3 PUSH1 0x40 PUSH1 0x0 KECCAK256 ADD SLOAD AND PUSH2 0x14F3 JUMP JUMPDEST CALLER PUSH1 0x0 MSTORE DUP5 DUP7 MSTORE PUSH2 0x777 PUSH1 0xFF PUSH1 0x5 PUSH1 0x40 PUSH1 0x0 KECCAK256 ADD SLOAD PUSH1 0x8 SHR AND PUSH2 0x1535 JUMP JUMPDEST PUSH2 0x783 PUSH2 0x1CE CALLER PUSH2 0x15EB JUMP JUMPDEST CALLER PUSH1 0x0 MSTORE DUP5 DUP7 MSTORE DUP5 PUSH1 0x40 PUSH1 0x0 KECCAK256 ADD SLOAD SWAP2 PUSH2 0x7B6 DUP8 PUSH1 0x40 MLOAD DUP4 DUP2 SWAP5 DUP4 DUP4 ADD SWAP7 DUP8 CALLDATACOPY DUP2 ADD PUSH1 0x0 DUP4 DUP3 ADD MSTORE SUB DUP1 DUP5 MSTORE ADD DUP3 PUSH2 0x140F JUMP JUMPDEST MLOAD SWAP1 KECCAK256 SUB PUSH2 0x857 JUMPI DUP1 ISZERO PUSH2 0x812 JUMPI SWAP1 DUP3 SWAP2 PUSH2 0x7EA DUP6 PUSH1 0x40 MLOAD DUP4 DUP2 SWAP5 DUP4 DUP4 ADD SWAP7 DUP8 CALLDATACOPY DUP2 ADD PUSH1 0x0 DUP4 DUP3 ADD MSTORE SUB DUP1 DUP5 MSTORE ADD DUP3 PUSH2 0x140F JUMP JUMPDEST MLOAD SWAP1 KECCAK256 SWAP3 CALLER PUSH1 0x0 MSTORE MSTORE PUSH1 0x40 PUSH1 0x0 KECCAK256 ADD SSTORE PUSH2 0x46F CALLER PUSH1 0x0 MSTORE PUSH1 0x2 PUSH1 0x20 MSTORE TIMESTAMP PUSH1 0x4 PUSH1 0x40 PUSH1 0x0 KECCAK256 ADD SSTORE JUMP JUMPDEST PUSH1 0x40 MLOAD PUSH3 0x461BCD PUSH1 0xE5 SHL DUP2 MSTORE PUSH1 0x4 DUP2 ADD DUP6 SWAP1 MSTORE PUSH1 0x1C PUSH1 0x24 DUP3 ADD MSTORE PUSH32 0x4E65772070617373776F72642063616E6E6F7420626520656D70747900000000 PUSH1 0x44 DUP3 ADD MSTORE PUSH1 0x64 SWAP1 REVERT JUMPDEST PUSH1 0x40 MLOAD PUSH3 0x461BCD PUSH1 0xE5 SHL DUP2 MSTORE PUSH1 0x4 DUP2 ADD DUP6 SWAP1 MSTORE PUSH1 0x16 PUSH1 0x24 DUP3 ADD MSTORE PUSH22 0x13DB19081C185CDCDDDBDC99081A5B98DBDC9C9958DD PUSH1 0x52 SHL PUSH1 0x44 DUP3 ADD MSTORE PUSH1 0x64 SWAP1 REVERT JUMPDEST CALLVALUE PUSH2 0x14B JUMPI PUSH1 0x0 CALLDATASIZE PUSH1 0x3 NOT ADD SLT PUSH2 0x14B JUMPI CALLER PUSH1 0x0 MSTORE PUSH1 0x2 PUSH1 0x20 MSTORE PUSH2 0x8C3 PUSH1 0xFF PUSH1 0x3 PUSH1 0x40 PUSH1 0x0 KECCAK256 ADD SLOAD AND PUSH2 0x14F3 JUMP JUMPDEST CALLER PUSH1 0x0 MSTORE PUSH1 0x2 PUSH1 0x20 MSTORE PUSH2 0x8E3 PUSH1 0xFF PUSH1 0x5 PUSH1 0x40 PUSH1 0x0 KECCAK256 ADD SLOAD PUSH1 0x8 SHR AND PUSH2 0x1535 JUMP JUMPDEST PUSH2 0x8EF PUSH2 0x1CE CALLER PUSH2 0x15EB JUMP JUMPDEST CALLER PUSH1 0x0 MSTORE PUSH1 0x2 PUSH1 0x20 MSTORE PUSH2 0x92B PUSH1 0x40 PUSH1 0x0 KECCAK256 PUSH1 0x1 DUP2 ADD SLOAD PUSH2 0x916 PUSH1 0xFF PUSH1 0x5 DUP5 ADD SLOAD AND SWAP3 PUSH2 0x1431 JUMP JUMPDEST SWAP2 PUSH1 0x40 MLOAD SWAP4 DUP5 SWAP4 PUSH1 0x60 DUP6 MSTORE PUSH1 0x60 DUP6 ADD SWAP1 PUSH2 0x1395 JUMP JUMPDEST SWAP2 PUSH1 0x20 DUP5 ADD MSTORE ISZERO ISZERO PUSH1 0x40 DUP4 ADD MSTORE SUB SWAP1 RETURN JUMPDEST CALLVALUE PUSH2 0x14B JUMPI PUSH1 0x20 DUP1 PUSH1 0x3 NOT CALLDATASIZE ADD SLT PUSH2 0x14B JUMPI PUSH1 0x4 CALLDATALOAD PUSH8 0xFFFFFFFFFFFFFFFF DUP2 GT PUSH2 0x14B JUMPI PUSH2 0x96E SWAP1 CALLDATASIZE SWAP1 PUSH1 0x4 ADD PUSH2 0x1306 JUMP JUMPDEST SWAP1 CALLER PUSH1 0x0 MSTORE PUSH1 0x2 DUP4 MSTORE PUSH2 0x98B PUSH1 0xFF PUSH1 0x3 PUSH1 0x40 PUSH1 0x0 KECCAK256 ADD SLOAD AND PUSH2 0x14F3 JUMP JUMPDEST CALLER PUSH1 0x0 MSTORE PUSH1 0x2 DUP4 MSTORE PUSH1 0x2 PUSH1 0x40 PUSH1 0x0 KECCAK256 ADD SLOAD SWAP2 PUSH2 0x9C0 DUP5 PUSH1 0x40 MLOAD DUP4 DUP2 SWAP5 DUP4 DUP4 ADD SWAP7 DUP8 CALLDATACOPY DUP2 ADD PUSH1 0x0 DUP4 DUP3 ADD MSTORE SUB DUP1 DUP5 MSTORE ADD DUP3 PUSH2 0x140F JUMP JUMPDEST MLOAD SWAP1 KECCAK256 EQ PUSH1 0x40 MLOAD SWAP1 DUP2 MSTORE RETURN JUMPDEST CALLVALUE PUSH2 0x14B JUMPI PUSH1 0x20 DUP1 PUSH1 0x3 NOT CALLDATASIZE ADD SLT PUSH2 0x14B JUMPI PUSH1 0x4 CALLDATALOAD PUSH8 0xFFFFFFFFFFFFFFFF DUP2 GT PUSH2 0x14B JUMPI PUSH2 0x9FE SWAP1 CALLDATASIZE SWAP1 PUSH1 0x4 ADD PUSH2 0x1306 JUMP JUMPDEST SWAP1 CALLER PUSH1 0x0 MSTORE PUSH1 0x2 DUP4 MSTORE PUSH2 0xA1B PUSH1 0xFF PUSH1 0x3 PUSH1 0x40 PUSH1 0x0 KECCAK256 ADD SLOAD AND PUSH2 0x14F3 JUMP JUMPDEST CALLER PUSH1 0x0 MSTORE PUSH1 0x2 DUP4 MSTORE PUSH1 0x2 PUSH1 0x40 PUSH1 0x0 KECCAK256 ADD SLOAD SWAP2 PUSH2 0xA50 DUP5 PUSH1 0x40 MLOAD DUP4 DUP2 SWAP5 DUP4 DUP4 ADD SWAP7 DUP8 CALLDATACOPY DUP2 ADD PUSH1 0x0 DUP4 DUP3 ADD MSTORE SUB DUP1 DUP5 MSTORE ADD DUP3 PUSH2 0x140F JUMP JUMPDEST MLOAD SWAP1 KECCAK256 SUB PUSH2 0xAA4 JUMPI PUSH1 0x2 SWAP1 CALLER PUSH1 0x0 MSTORE MSTORE PUSH1 0x40 PUSH1 0x0 KECCAK256 PUSH1 0x5 DUP2 ADD PUSH2 0x100 PUSH2 0xFF00 NOT DUP3 SLOAD AND OR SWAP1 SSTORE PUSH1 0x4 TIMESTAMP SWAP2 ADD SSTORE CALLER PUSH32 0xA581AE4192C44A0074CCC9C655D264EA6A838E99CA8DFC8CA439AEE62CB5183 PUSH1 0x0 DUP1 LOG2 STOP JUMPDEST PUSH1 0x64 SWAP1 PUSH1 0x40 MLOAD SWAP1 PUSH3 0x461BCD PUSH1 0xE5 SHL DUP3 MSTORE PUSH1 0x4 DUP3 ADD MSTORE PUSH1 0x12 PUSH1 0x24 DUP3 ADD MSTORE PUSH18 0x125B98DBDC9C9958DD081C185CDCDDDBDC99 PUSH1 0x72 SHL PUSH1 0x44 DUP3 ADD MSTORE REVERT JUMPDEST CALLVALUE PUSH2 0x14B JUMPI PUSH1 0x20 CALLDATASIZE PUSH1 0x3 NOT ADD SLT PUSH2 0x14B JUMPI PUSH1 0x20 PUSH2 0xB00 PUSH2 0xAFB PUSH2 0x137F JUMP JUMPDEST PUSH2 0x15EB JUMP JUMPDEST PUSH1 0x40 MLOAD SWAP1 ISZERO ISZERO DUP2 MSTORE RETURN JUMPDEST CALLVALUE PUSH2 0x14B JUMPI PUSH1 0x40 CALLDATASIZE PUSH1 0x3 NOT ADD SLT PUSH2 0x14B JUMPI PUSH1 0x1 PUSH1 0x1 PUSH1 0xA0 SHL SUB PUSH2 0xB2B PUSH2 0x137F JUMP JUMPDEST AND DUP1 PUSH1 0x0 MSTORE PUSH1 0x2 PUSH1 0x20 MSTORE PUSH1 0xFF PUSH1 0x3 PUSH1 0x40 PUSH1 0x0 KECCAK256 ADD SLOAD AND ISZERO PUSH2 0xB65 JUMPI PUSH1 0x0 MSTORE PUSH1 0x2 PUSH1 0x20 MSTORE PUSH1 0x20 PUSH1 0x24 CALLDATALOAD PUSH1 0x1 PUSH1 0x40 PUSH1 0x0 KECCAK256 ADD SLOAD GT PUSH1 0x40 MLOAD SWAP1 DUP2 MSTORE RETURN JUMPDEST PUSH1 0x40 MLOAD PUSH3 0x461BCD PUSH1 0xE5 SHL DUP2 MSTORE PUSH1 0x20 PUSH1 0x4 DUP3 ADD MSTORE PUSH1 0x16 PUSH1 0x24 DUP3 ADD MSTORE PUSH22 0x155CD95C881A5CC81B9BDD081C9959DA5CDD195C9959 PUSH1 0x52 SHL PUSH1 0x44 DUP3 ADD MSTORE PUSH1 0x64 SWAP1 REVERT JUMPDEST CALLVALUE PUSH2 0x14B JUMPI PUSH1 0x20 DUP1 PUSH1 0x3 NOT CALLDATASIZE ADD SLT PUSH2 0x14B JUMPI PUSH1 0x4 CALLDATALOAD SWAP1 CALLER PUSH1 0x0 MSTORE PUSH1 0x2 DUP2 MSTORE PUSH2 0xBD5 PUSH1 0xFF PUSH1 0x3 PUSH1 0x40 PUSH1 0x0 KECCAK256 ADD SLOAD AND PUSH2 0x14F3 JUMP JUMPDEST CALLER PUSH1 0x0 MSTORE PUSH1 0x2 DUP2 MSTORE PUSH2 0xBF4 PUSH1 0xFF PUSH1 0x5 PUSH1 0x40 PUSH1 0x0 KECCAK256 ADD SLOAD PUSH1 0x8 SHR AND PUSH2 0x1535 JUMP JUMPDEST PUSH2 0xC00 PUSH2 0x1CE CALLER PUSH2 0x15EB JUMP JUMPDEST CALLER PUSH1 0x0 MSTORE PUSH1 0x2 DUP2 MSTORE PUSH2 0xC1D PUSH1 0xFF PUSH1 0x5 PUSH1 0x40 PUSH1 0x0 KECCAK256 ADD SLOAD AND ISZERO PUSH2 0x16A2 JUMP JUMPDEST DUP2 ISZERO PUSH2 0xD5D JUMPI CALLER PUSH1 0x0 MSTORE PUSH1 0x2 DUP2 MSTORE PUSH2 0xC3F DUP3 PUSH1 0x1 PUSH1 0x40 PUSH1 0x0 KECCAK256 ADD SLOAD LT ISZERO PUSH2 0x16E7 JUMP JUMPDEST DUP2 SELFBALANCE LT PUSH2 0xD19 JUMPI CALLER PUSH1 0x0 MSTORE PUSH1 0x2 DUP2 MSTORE PUSH1 0x1 PUSH1 0x40 PUSH1 0x0 KECCAK256 ADD PUSH2 0xC61 DUP4 DUP3 SLOAD PUSH2 0x15DE JUMP JUMPDEST SWAP1 SSTORE PUSH2 0xC7B CALLER PUSH1 0x0 MSTORE PUSH1 0x2 PUSH1 0x20 MSTORE TIMESTAMP PUSH1 0x4 PUSH1 0x40 PUSH1 0x0 KECCAK256 ADD SSTORE JUMP JUMPDEST PUSH1 0x0 DUP1 DUP1 DUP1 DUP6 CALLER GAS CALL RETURNDATASIZE ISZERO PUSH2 0xD14 JUMPI RETURNDATASIZE PUSH2 0xC94 DUP2 PUSH2 0x14D7 JUMP JUMPDEST SWAP1 PUSH2 0xCA2 PUSH1 0x40 MLOAD SWAP3 DUP4 PUSH2 0x140F JUMP JUMPDEST DUP2 MSTORE PUSH1 0x0 DUP4 RETURNDATASIZE SWAP3 ADD RETURNDATACOPY JUMPDEST ISZERO PUSH2 0xCDE JUMPI PUSH32 0x7084F5476618D8E60B11EF0D7D3F06914655ADB8793E28FF7F018D4C76D505D5 SWAP1 PUSH1 0x40 MLOAD SWAP3 DUP4 MSTORE CALLER SWAP3 LOG2 STOP JUMPDEST PUSH1 0x64 SWAP1 PUSH1 0x40 MLOAD SWAP1 PUSH3 0x461BCD PUSH1 0xE5 SHL DUP3 MSTORE PUSH1 0x4 DUP3 ADD MSTORE PUSH1 0xF PUSH1 0x24 DUP3 ADD MSTORE PUSH15 0x151C985B9CD9995C8819985A5B1959 PUSH1 0x8A SHL PUSH1 0x44 DUP3 ADD MSTORE REVERT JUMPDEST PUSH2 0xCAC JUMP JUMPDEST PUSH1 0x64 SWAP1 PUSH1 0x40 MLOAD SWAP1 PUSH3 0x461BCD PUSH1 0xE5 SHL DUP3 MSTORE PUSH1 0x4 DUP3 ADD MSTORE PUSH1 0x1C PUSH1 0x24 DUP3 ADD MSTORE PUSH32 0x5661756C742068617320696E73756666696369656E742066756E647300000000 PUSH1 0x44 DUP3 ADD MSTORE REVERT JUMPDEST PUSH1 0x84 SWAP1 PUSH1 0x40 MLOAD SWAP1 PUSH3 0x461BCD PUSH1 0xE5 SHL DUP3 MSTORE PUSH1 0x4 DUP3 ADD MSTORE PUSH1 0x28 PUSH1 0x24 DUP3 ADD MSTORE PUSH32 0x5769746864726177616C20616D6F756E74206D75737420626520677265617465 PUSH1 0x44 DUP3 ADD MSTORE PUSH8 0x72207468616E203 PUSH1 0xC4 SHL PUSH1 0x64 DUP3 ADD MSTORE REVERT JUMPDEST CALLVALUE PUSH2 0x14B JUMPI PUSH1 0x20 CALLDATASIZE PUSH1 0x3 NOT ADD SLT PUSH2 0x14B JUMPI PUSH2 0xDCB PUSH2 0x137F JUMP JUMPDEST PUSH1 0x0 SLOAD PUSH1 0x1 PUSH1 0x1 PUSH1 0xA0 SHL SUB SWAP2 DUP3 AND SWAP2 AND DUP2 EQ DUP1 ISZERO PUSH2 0xDF1 JUMPI JUMPDEST PUSH1 0x20 SWAP1 PUSH1 0x40 MLOAD SWAP1 ISZERO ISZERO DUP2 MSTORE RETURN JUMPDEST POP PUSH1 0x0 MSTORE PUSH1 0x3 PUSH1 0x20 MSTORE PUSH1 0x20 PUSH1 0xFF PUSH1 0x40 PUSH1 0x0 KECCAK256 SLOAD AND PUSH2 0xDE4 JUMP JUMPDEST CALLVALUE PUSH2 0x14B JUMPI PUSH1 0x0 CALLDATASIZE PUSH1 0x3 NOT ADD SLT PUSH2 0x14B JUMPI CALLER PUSH1 0x0 MSTORE PUSH1 0x2 PUSH1 0x20 MSTORE PUSH2 0xE38 PUSH1 0xFF PUSH1 0x3 PUSH1 0x40 PUSH1 0x0 KECCAK256 ADD SLOAD AND PUSH2 0x14F3 JUMP JUMPDEST CALLER PUSH1 0x0 MSTORE PUSH1 0x2 PUSH1 0x20 MSTORE PUSH2 0xE58 PUSH1 0xFF PUSH1 0x5 PUSH1 0x40 PUSH1 0x0 KECCAK256 ADD SLOAD PUSH1 0x8 SHR AND PUSH2 0x1535 JUMP JUMPDEST CALLER PUSH1 0x0 MSTORE PUSH1 0x2 PUSH1 0x20 MSTORE PUSH1 0x5 PUSH1 0x40 PUSH1 0x0 KECCAK256 ADD PUSH2 0xFF00 NOT DUP2 SLOAD AND SWAP1 SSTORE CALLER PUSH32 0x8D11EF6404D9EEB0A13D346AD9B49ADF23BE5A095F5EFB8741C3EEC74E43EE9C PUSH1 0x0 DUP1 LOG2 STOP JUMPDEST CALLVALUE PUSH2 0x14B JUMPI PUSH2 0xEA8 CALLDATASIZE PUSH2 0x1334 JUMP JUMPDEST CALLER PUSH1 0x0 MSTORE PUSH1 0x2 PUSH1 0x20 MSTORE PUSH1 0xFF PUSH1 0x3 PUSH1 0x40 PUSH1 0x0 KECCAK256 ADD SLOAD AND PUSH2 0x1228 JUMPI DUP3 ISZERO PUSH2 0x11E3 JUMPI PUSH1 0x3 DUP2 GT ISZERO PUSH2 0x118F JUMPI PUSH2 0xEF4 PUSH1 0x20 PUSH1 0x40 MLOAD DUP4 DUP2 SWAP5 DUP4 DUP4 ADD SWAP7 DUP8 CALLDATACOPY DUP2 ADD PUSH1 0x0 DUP4 DUP3 ADD MSTORE SUB DUP1 DUP5 MSTORE ADD DUP3 PUSH2 0x140F JUMP JUMPDEST MLOAD SWAP1 KECCAK256 PUSH1 0x40 MLOAD PUSH8 0xFFFFFFFFFFFFFFFF SWAP4 SWAP2 PUSH1 0xE0 DUP3 ADD DUP6 DUP2 GT DUP4 DUP3 LT OR PUSH2 0x1179 JUMPI PUSH1 0x40 MSTORE PUSH2 0xF20 DUP5 PUSH2 0x14D7 JUMP JUMPDEST PUSH2 0xF2D PUSH1 0x40 MLOAD SWAP2 DUP3 PUSH2 0x140F JUMP JUMPDEST DUP5 DUP2 MSTORE CALLDATASIZE DUP6 DUP6 ADD GT PUSH2 0x14B JUMPI DUP5 DUP5 PUSH1 0x20 DUP4 ADD CALLDATACOPY PUSH1 0x0 PUSH1 0x20 DUP7 DUP4 ADD ADD MSTORE DUP3 MSTORE PUSH1 0x0 PUSH1 0x20 DUP4 ADD MSTORE PUSH1 0x40 DUP3 ADD MSTORE PUSH1 0x1 PUSH1 0x60 DUP3 ADD MSTORE TIMESTAMP PUSH1 0x80 DUP3 ADD MSTORE PUSH1 0x0 PUSH1 0xA0 DUP3 ADD MSTORE PUSH1 0x1 PUSH1 0xC0 DUP3 ADD MSTORE CALLER PUSH1 0x0 MSTORE PUSH1 0x2 PUSH1 0x20 MSTORE PUSH1 0x40 PUSH1 0x0 KECCAK256 SWAP4 DUP2 MLOAD DUP1 MLOAD SWAP2 DUP3 GT PUSH2 0x1179 JUMPI PUSH2 0xF96 DUP7 SLOAD PUSH2 0x13D5 JUMP JUMPDEST PUSH1 0x1F DUP2 GT PUSH2 0x1135 JUMPI JUMPDEST POP PUSH1 0x20 SWAP1 PUSH1 0x1F DUP4 GT PUSH1 0x1 EQ PUSH2 0x10A4 JUMPI SWAP6 DUP3 PUSH1 0xC0 SWAP4 PUSH1 0x5 SWAP4 PUSH32 0x48CAC28AD4DC618E15F4C2DD5E97751182F166DE97B25618318B2112AA951A2F SWAP9 SWAP10 PUSH1 0x0 SWAP3 PUSH2 0x1099 JUMPI JUMPDEST POP POP DUP2 PUSH1 0x1 SHL SWAP2 PUSH1 0x0 NOT SWAP1 PUSH1 0x3 SHL SHR NOT AND OR DUP2 SSTORE JUMPDEST PUSH1 0x20 DUP5 ADD MLOAD PUSH1 0x1 DUP3 ADD SSTORE PUSH1 0x40 DUP5 ADD MLOAD PUSH1 0x2 DUP3 ADD SSTORE PUSH2 0x1029 PUSH1 0x60 DUP6 ADD MLOAD ISZERO ISZERO PUSH1 0x3 DUP4 ADD SWAP1 PUSH1 0xFF DUP1 NOT DUP4 SLOAD AND SWAP2 ISZERO ISZERO AND OR SWAP1 SSTORE JUMP JUMPDEST PUSH1 0x80 DUP5 ADD MLOAD PUSH1 0x4 DUP3 ADD SSTORE ADD SWAP2 PUSH2 0x1051 PUSH1 0xA0 DUP3 ADD MLOAD ISZERO ISZERO DUP5 SWAP1 PUSH1 0xFF DUP1 NOT DUP4 SLOAD AND SWAP2 ISZERO ISZERO AND OR SWAP1 SSTORE JUMP JUMPDEST ADD MLOAD ISZERO ISZERO PUSH2 0xFF00 DUP3 SLOAD SWAP2 PUSH1 0x8 SHL AND SWAP1 PUSH2 0xFF00 NOT AND OR SWAP1 SSTORE DUP3 PUSH1 0x40 MLOAD SWAP2 PUSH1 0x20 DUP4 MSTORE DUP2 PUSH1 0x20 DUP5 ADD MSTORE PUSH1 0x40 DUP4 ADD CALLDATACOPY PUSH1 0x0 PUSH1 0x40 DUP5 DUP4 ADD ADD MSTORE PUSH1 0x40 DUP2 CALLER SWAP5 PUSH1 0x1F DUP1 NOT SWAP2 ADD AND DUP2 ADD SUB ADD SWAP1 LOG2 STOP JUMPDEST ADD MLOAD SWAP1 POP DUP10 DUP1 PUSH2 0xFE1 JUMP JUMPDEST SWAP1 DUP7 PUSH1 0x0 MSTORE PUSH1 0x20 PUSH1 0x0 KECCAK256 SWAP2 PUSH1 0x0 JUMPDEST PUSH1 0x1F NOT DUP6 AND DUP2 LT PUSH2 0x111D JUMPI POP DUP4 PUSH1 0x5 SWAP4 PUSH32 0x48CAC28AD4DC618E15F4C2DD5E97751182F166DE97B25618318B2112AA951A2F SWAP9 SWAP10 SWAP4 PUSH1 0x1 SWAP4 PUSH1 0xC0 SWAP8 PUSH1 0x1F NOT DUP2 AND LT PUSH2 0x1104 JUMPI JUMPDEST POP POP POP DUP2 SHL ADD DUP2 SSTORE PUSH2 0xFF6 JUMP JUMPDEST ADD MLOAD PUSH1 0x0 NOT PUSH1 0xF8 DUP5 PUSH1 0x3 SHL AND SHR NOT AND SWAP1 SSTORE DUP10 DUP1 DUP1 PUSH2 0x10F7 JUMP JUMPDEST SWAP2 SWAP3 PUSH1 0x20 PUSH1 0x1 DUP2 SWAP3 DUP7 DUP6 ADD MLOAD DUP2 SSTORE ADD SWAP5 ADD SWAP3 ADD PUSH2 0x10B2 JUMP JUMPDEST DUP7 PUSH1 0x0 MSTORE PUSH1 0x20 PUSH1 0x0 KECCAK256 PUSH1 0x1F DUP5 ADD PUSH1 0x5 SHR DUP2 ADD PUSH1 0x20 DUP6 LT PUSH2 0x1172 JUMPI JUMPDEST PUSH1 0x1F DUP4 ADD PUSH1 0x5 SHR DUP3 ADD DUP2 LT PUSH2 0x1166 JUMPI POP POP PUSH2 0xF9F JUMP JUMPDEST PUSH1 0x0 DUP2 SSTORE PUSH1 0x1 ADD PUSH2 0x1150 JUMP JUMPDEST POP DUP1 PUSH2 0x1150 JUMP JUMPDEST PUSH4 0x4E487B71 PUSH1 0xE0 SHL PUSH1 0x0 MSTORE PUSH1 0x41 PUSH1 0x4 MSTORE PUSH1 0x24 PUSH1 0x0 REVERT JUMPDEST PUSH1 0x40 MLOAD PUSH3 0x461BCD PUSH1 0xE5 SHL DUP2 MSTORE PUSH1 0x20 PUSH1 0x4 DUP3 ADD MSTORE PUSH1 0x26 PUSH1 0x24 DUP3 ADD MSTORE PUSH32 0x50617373776F7264206D757374206265206174206C6561737420342063686172 PUSH1 0x44 DUP3 ADD MSTORE PUSH6 0x616374657273 PUSH1 0xD0 SHL PUSH1 0x64 DUP3 ADD MSTORE PUSH1 0x84 SWAP1 REVERT JUMPDEST PUSH1 0x40 MLOAD PUSH3 0x461BCD PUSH1 0xE5 SHL DUP2 MSTORE PUSH1 0x20 PUSH1 0x4 DUP3 ADD MSTORE PUSH1 0x18 PUSH1 0x24 DUP3 ADD MSTORE PUSH32 0x557365726E616D652063616E6E6F7420626520656D7074790000000000000000 PUSH1 0x44 DUP3 ADD MSTORE PUSH1 0x64 SWAP1 REVERT JUMPDEST PUSH1 0x40 MLOAD PUSH3 0x461BCD PUSH1 0xE5 SHL DUP2 MSTORE PUSH1 0x20 PUSH1 0x4 DUP3 ADD MSTORE PUSH1 0x17 PUSH1 0x24 DUP3 ADD MSTORE PUSH32 0x5573657220616C72656164792072656769737465726564000000000000000000 PUSH1 0x44 DUP3 ADD MSTORE PUSH1 0x64 SWAP1 REVERT JUMPDEST CALLVALUE PUSH2 0x14B JUMPI PUSH1 0x20 CALLDATASIZE PUSH1 0x3 NOT ADD SLT PUSH2 0x14B JUMPI PUSH2 0x428 PUSH1 0x4 CALLDATALOAD PUSH1 0x1 DUP1 PUSH1 0xA0 SHL SUB PUSH1 0x0 SLOAD AND CALLER EQ DUP1 ISZERO PUSH2 0x12B4 JUMPI JUMPDEST PUSH2 0x12A1 SWAP1 PUSH2 0x17CC JUMP JUMPDEST PUSH2 0x12AC DUP2 ISZERO ISZERO PUSH2 0x185D JUMP JUMPDEST PUSH1 0x4 SLOAD PUSH2 0x1576 JUMP JUMPDEST POP CALLER PUSH1 0x0 SWAP1 DUP2 MSTORE PUSH1 0x3 PUSH1 0x20 MSTORE PUSH1 0x40 SWAP1 KECCAK256 SLOAD PUSH1 0xFF AND PUSH2 0x1298 JUMP JUMPDEST CALLVALUE PUSH2 0x14B JUMPI PUSH1 0x0 CALLDATASIZE PUSH1 0x3 NOT ADD SLT PUSH2 0x14B JUMPI PUSH1 0x20 PUSH1 0x1 SLOAD PUSH1 0x40 MLOAD SWAP1 DUP2 MSTORE RETURN JUMPDEST CALLVALUE PUSH2 0x14B JUMPI PUSH1 0x0 CALLDATASIZE PUSH1 0x3 NOT ADD SLT PUSH2 0x14B JUMPI PUSH1 0x20 PUSH2 0xB00 PUSH2 0x1599 JUMP JUMPDEST SWAP2 DUP2 PUSH1 0x1F DUP5 ADD SLT ISZERO PUSH2 0x14B JUMPI DUP3 CALLDATALOAD SWAP2 PUSH8 0xFFFFFFFFFFFFFFFF DUP4 GT PUSH2 0x14B JUMPI PUSH1 0x20 DUP4 DUP2 DUP7 ADD SWAP6 ADD ADD GT PUSH2 0x14B JUMPI JUMP JUMPDEST PUSH1 0x40 PUSH1 0x3 NOT DUP3 ADD SLT PUSH2 0x14B JUMPI PUSH8 0xFFFFFFFFFFFFFFFF SWAP2 PUSH1 0x4 CALLDATALOAD DUP4 DUP2 GT PUSH2 0x14B JUMPI DUP3 PUSH2 0x1361 SWAP2 PUSH1 0x4 ADD PUSH2 0x1306 JUMP JUMPDEST SWAP4 SWAP1 SWAP4 SWAP3 PUSH1 0x24 CALLDATALOAD SWAP2 DUP3 GT PUSH2 0x14B JUMPI PUSH2 0x137B SWAP2 PUSH1 0x4 ADD PUSH2 0x1306 JUMP JUMPDEST SWAP1 SWAP2 JUMP JUMPDEST PUSH1 0x4 CALLDATALOAD SWAP1 PUSH1 0x1 PUSH1 0x1 PUSH1 0xA0 SHL SUB DUP3 AND DUP3 SUB PUSH2 0x14B JUMPI JUMP JUMPDEST SWAP2 SWAP1 DUP3 MLOAD SWAP3 DUP4 DUP3 MSTORE PUSH1 0x0 JUMPDEST DUP5 DUP2 LT PUSH2 0x13C1 JUMPI POP POP DUP3 PUSH1 0x0 PUSH1 0x20 DUP1 SWAP5 SWAP6 DUP5 ADD ADD MSTORE PUSH1 0x1F DUP1 NOT SWAP2 ADD AND ADD ADD SWAP1 JUMP JUMPDEST PUSH1 0x20 DUP2 DUP4 ADD DUP2 ADD MLOAD DUP5 DUP4 ADD DUP3 ADD MSTORE ADD PUSH2 0x13A0 JUMP JUMPDEST SWAP1 PUSH1 0x1 DUP3 DUP2 SHR SWAP3 AND DUP1 ISZERO PUSH2 0x1405 JUMPI JUMPDEST PUSH1 0x20 DUP4 LT EQ PUSH2 0x13EF JUMPI JUMP JUMPDEST PUSH4 0x4E487B71 PUSH1 0xE0 SHL PUSH1 0x0 MSTORE PUSH1 0x22 PUSH1 0x4 MSTORE PUSH1 0x24 PUSH1 0x0 REVERT JUMPDEST SWAP2 PUSH1 0x7F AND SWAP2 PUSH2 0x13E4 JUMP JUMPDEST SWAP1 PUSH1 0x1F DUP1 NOT SWAP2 ADD AND DUP2 ADD SWAP1 DUP2 LT PUSH8 0xFFFFFFFFFFFFFFFF DUP3 GT OR PUSH2 0x1179 JUMPI PUSH1 0x40 MSTORE JUMP JUMPDEST SWAP1 PUSH1 0x40 MLOAD SWAP2 DUP3 PUSH1 0x0 DUP3 SLOAD SWAP3 PUSH2 0x1445 DUP5 PUSH2 0x13D5 JUMP JUMPDEST SWAP1 DUP2 DUP5 MSTORE PUSH1 0x1 SWAP5 DUP6 DUP2 AND SWAP1 DUP2 PUSH1 0x0 EQ PUSH2 0x14B4 JUMPI POP PUSH1 0x1 EQ PUSH2 0x1471 JUMPI JUMPDEST POP POP PUSH2 0x146F SWAP3 POP SUB DUP4 PUSH2 0x140F JUMP JUMPDEST JUMP JUMPDEST SWAP1 SWAP4 SWAP2 POP PUSH1 0x0 MSTORE PUSH1 0x20 SWAP1 DUP2 PUSH1 0x0 KECCAK256 SWAP4 PUSH1 0x0 SWAP2 JUMPDEST DUP2 DUP4 LT PUSH2 0x149C JUMPI POP POP PUSH2 0x146F SWAP4 POP DUP3 ADD ADD CODESIZE DUP1 PUSH2 0x1461 JUMP JUMPDEST DUP6 SLOAD DUP9 DUP5 ADD DUP6 ADD MSTORE SWAP5 DUP6 ADD SWAP5 DUP8 SWAP5 POP SWAP2 DUP4 ADD SWAP2 PUSH2 0x1484 JUMP JUMPDEST SWAP2 POP POP PUSH2 0x146F SWAP5 POP PUSH1 0x20 SWAP3 POP PUSH1 0xFF NOT AND DUP3 DUP5 ADD MSTORE ISZERO ISZERO PUSH1 0x5 SHL DUP3 ADD ADD CODESIZE DUP1 PUSH2 0x1461 JUMP JUMPDEST PUSH8 0xFFFFFFFFFFFFFFFF DUP2 GT PUSH2 0x1179 JUMPI PUSH1 0x1F ADD PUSH1 0x1F NOT AND PUSH1 0x20 ADD SWAP1 JUMP JUMPDEST ISZERO PUSH2 0x14FA JUMPI JUMP JUMPDEST PUSH1 0x40 MLOAD PUSH3 0x461BCD PUSH1 0xE5 SHL DUP2 MSTORE PUSH1 0x20 PUSH1 0x4 DUP3 ADD MSTORE PUSH1 0x13 PUSH1 0x24 DUP3 ADD MSTORE PUSH19 0x155CD95C881B9BDD081C9959DA5CDD195C9959 PUSH1 0x6A SHL PUSH1 0x44 DUP3 ADD MSTORE PUSH1 0x64 SWAP1 REVERT JUMPDEST ISZERO PUSH2 0x153C JUMPI JUMP JUMPDEST PUSH1 0x40 MLOAD PUSH3 0x461BCD PUSH1 0xE5 SHL DUP2 MSTORE PUSH1 0x20 PUSH1 0x4 DUP3 ADD MSTORE PUSH1 0x12 PUSH1 0x24 DUP3 ADD MSTORE PUSH18 0x2AB9B2B9103737BA103637B3B3B2B21034B7 PUSH1 0x71 SHL PUSH1 0x44 DUP3 ADD MSTORE PUSH1 0x64 SWAP1 REVERT JUMPDEST SWAP2 SWAP1 DUP3 ADD DUP1 SWAP3 GT PUSH2 0x1583 JUMPI JUMP JUMPDEST PUSH4 0x4E487B71 PUSH1 0xE0 SHL PUSH1 0x0 MSTORE PUSH1 0x11 PUSH1 0x4 MSTORE PUSH1 0x24 PUSH1 0x0 REVERT JUMPDEST CALLER PUSH1 0x0 MSTORE PUSH1 0x2 PUSH1 0x20 MSTORE PUSH1 0x40 PUSH1 0x0 KECCAK256 PUSH1 0xFF PUSH1 0x3 DUP3 ADD SLOAD AND ISZERO PUSH2 0x15D8 JUMPI PUSH2 0x15C5 PUSH1 0x4 DUP3 ADD SLOAD PUSH1 0x1 SLOAD SWAP1 PUSH2 0x1576 JUMP JUMPDEST TIMESTAMP GT PUSH2 0x15D8 JUMPI PUSH1 0x5 ADD SLOAD PUSH1 0x8 SHR PUSH1 0xFF AND SWAP1 JUMP JUMPDEST POP PUSH1 0x0 SWAP1 JUMP JUMPDEST SWAP2 SWAP1 DUP3 SUB SWAP2 DUP3 GT PUSH2 0x1583 JUMPI JUMP JUMPDEST PUSH1 0x1 PUSH1 0x1 PUSH1 0xA0 SHL SUB AND PUSH1 0x0 DUP2 DUP2 MSTORE PUSH1 0x2 PUSH1 0x20 MSTORE PUSH1 0x40 SWAP1 KECCAK256 PUSH1 0x3 ADD SLOAD PUSH2 0x1612 SWAP1 PUSH1 0xFF AND PUSH2 0x14F3 JUMP JUMPDEST PUSH1 0x0 MSTORE PUSH1 0x2 PUSH1 0x20 MSTORE PUSH1 0x40 PUSH1 0x0 KECCAK256 PUSH1 0xFF PUSH1 0x5 DUP3 ADD SLOAD PUSH1 0x8 SHR AND ISZERO PUSH2 0x1644 JUMPI PUSH1 0x4 PUSH2 0x163D SWAP2 ADD SLOAD TIMESTAMP PUSH2 0x15DE JUMP JUMPDEST PUSH1 0x1 SLOAD LT SWAP1 JUMP JUMPDEST POP PUSH1 0x1 SWAP1 JUMP JUMPDEST ISZERO PUSH2 0x1651 JUMPI JUMP JUMPDEST PUSH1 0x40 MLOAD PUSH3 0x461BCD PUSH1 0xE5 SHL DUP2 MSTORE PUSH1 0x20 PUSH1 0x4 DUP3 ADD MSTORE PUSH1 0x24 DUP1 DUP3 ADD MSTORE PUSH32 0x53657373696F6E20657870697265642C20706C65617365206C6F6720696E2061 PUSH1 0x44 DUP3 ADD MSTORE PUSH4 0x33B0B4B7 PUSH1 0xE1 SHL PUSH1 0x64 DUP3 ADD MSTORE PUSH1 0x84 SWAP1 REVERT JUMPDEST ISZERO PUSH2 0x16A9 JUMPI JUMP JUMPDEST PUSH1 0x40 MLOAD PUSH3 0x461BCD PUSH1 0xE5 SHL DUP2 MSTORE PUSH1 0x20 PUSH1 0x4 DUP3 ADD MSTORE PUSH1 0x16 PUSH1 0x24 DUP3 ADD MSTORE PUSH22 0x2AB9B2B91030B1B1B7BAB73A1034B990333937BD32B7 PUSH1 0x51 SHL PUSH1 0x44 DUP3 ADD MSTORE PUSH1 0x64 SWAP1 REVERT JUMPDEST ISZERO PUSH2 0x16EE JUMPI JUMP JUMPDEST PUSH1 0x40 MLOAD PUSH3 0x461BCD PUSH1 0xE5 SHL DUP2 MSTORE PUSH1 0x20 PUSH1 0x4 DUP3 ADD MSTORE PUSH1 0x14 PUSH1 0x24 DUP3 ADD MSTORE PUSH20 0x496E73756666696369656E742062616C616E6365 PUSH1 0x60 SHL PUSH1 0x44 DUP3 ADD MSTORE PUSH1 0x64 SWAP1 REVERT JUMPDEST ISZERO PUSH2 0x1731 JUMPI JUMP JUMPDEST PUSH1 0x40 MLOAD PUSH3 0x461BCD PUSH1 0xE5 SHL DUP2 MSTORE PUSH1 0x20 PUSH1 0x4 DUP3 ADD MSTORE PUSH1 0x21 PUSH1 0x24 DUP3 ADD MSTORE PUSH32 0x4F6E6C79206F776E65722063616E2063616C6C20746869732066756E6374696F PUSH1 0x44 DUP3 ADD MSTORE PUSH1 0x37 PUSH1 0xF9 SHL PUSH1 0x64 DUP3 ADD MSTORE PUSH1 0x84 SWAP1 REVERT JUMPDEST ISZERO PUSH2 0x1787 JUMPI JUMP JUMPDEST PUSH1 0x40 MLOAD PUSH3 0x461BCD PUSH1 0xE5 SHL DUP2 MSTORE PUSH1 0x20 PUSH1 0x4 DUP3 ADD MSTORE PUSH1 0x1D PUSH1 0x24 DUP3 ADD MSTORE PUSH32 0x416D6F756E74206D7573742062652067726561746572207468616E2030000000 PUSH1 0x44 DUP3 ADD MSTORE PUSH1 0x64 SWAP1 REVERT JUMPDEST ISZERO PUSH2 0x17D3 JUMPI JUMP JUMPDEST PUSH1 0x40 MLOAD PUSH3 0x461BCD PUSH1 0xE5 SHL DUP2 MSTORE PUSH1 0x20 PUSH1 0x4 DUP3 ADD MSTORE PUSH1 0x16 PUSH1 0x24 DUP3 ADD MSTORE PUSH22 0x139BDD081BDDDB995C881BDC881DDA1A5D195B1A5CDD PUSH1 0x52 SHL PUSH1 0x44 DUP3 ADD MSTORE PUSH1 0x64 SWAP1 REVERT JUMPDEST ISZERO PUSH2 0x1818 JUMPI JUMP JUMPDEST PUSH1 0x40 MLOAD PUSH3 0x461BCD PUSH1 0xE5 SHL DUP2 MSTORE PUSH1 0x20 PUSH1 0x4 DUP3 ADD MSTORE PUSH1 0x19 PUSH1 0x24 DUP3 ADD MSTORE PUSH32 0x496E73756666696369656E7420706F6F6C2062616C616E636500000000000000 PUSH1 0x44 DUP3 ADD MSTORE PUSH1 0x64 SWAP1 REVERT JUMPDEST ISZERO PUSH2 0x1864 JUMPI JUMP JUMPDEST PUSH1 0x40 MLOAD PUSH3 0x461BCD PUSH1 0xE5 SHL DUP2 MSTORE PUSH1 0x20 PUSH1 0x4 DUP3 ADD MSTORE PUSH1 0x12 PUSH1 0x24 DUP3 ADD MSTORE PUSH18 0x416D6F756E74206D757374206265203E203 PUSH1 0x74 SHL PUSH1 0x44 DUP3 ADD MSTORE PUSH1 0x64 SWAP1 REVERT INVALID LOG2 PUSH5 0x6970667358 0x22 SLT KECCAK256 0xE9 0xD SHR 0x2D 0xA8 SWAP11 SHL 0xD8 0xA8 0xA9 SWAP2 GASLIMIT NOT GT DELEGATECALL 0x1E MSTORE8 0xDF 0xDA 0xA8 0x22 0xB0 0x5C PUSH26 0x4DE7B95C021A5F6764736F6C6343000814003300000000000000 "},"methodIdentifiers":{"addToPool(uint256)":"1c5fc483","addToWhitelist(address)":"e43252d7","changePassword(string,string)":"84a83662","checkLoginStatus()":"080683e4","deposit()":"d0e30db0","gamePoolBalance()":"9ac27dd3","getUserInfo()":"5d8d1585","getVaultBalance()":"ed12e8ef","isAdmin(address)":"24d7806c","isBalanceGreaterThan(address,uint256)":"347c9e42","isSessionExpired(address)":"398d536c","login(string)":"3a7d280c","logout()":"1f3c99c3","owner()":"8da5cb5b","pushToPool(uint256)":"e8812805","registerUser(string,string)":"1d2e4afd","removeFromPool(uint256)":"d0a8bc2c","removeFromWhitelist(address)":"8ab1d681","scoopFromPool(address,uint256)":"9fdc17aa","sessionTimeout()":"09c01e8f","updateLastActivity()":"cee6b53c","users(address)":"a87430ba","verifyPassword(string)":"43589db8","whitelist(address)":"9b19251a","withdraw(uint256)":"2e1a7d4d"}}}}}