{"contracts/blackjack_settlement.sol":{"BlackjackSettlement":{"abi":[{"inputs":[{"internalType":"address","name":"vaultAddr","type":"address"}],"stateMutability":"nonpayable","type":"constructor"},{"anonymous":false,"inputs":[{"indexed":true,"internalType":"uint256","name":"roundId","type":"uint256"},{"indexed":true,"internalType":"address","name":"player","type":"address"},{"indexed":false,"internalType":"uint128","name":"stakeWei","type":"uint128"},{"indexed":false,"internalType":"uint128","name":"payoutWei","type":"uint128"},{"indexed":false,"internalType":"uint8[]","name":"playerCards","type":"uint8[]"},{"indexed":false,"internalType":"uint8","name":"dealerUp","type":"uint8"},{"indexed":false,"internalType":"uint8","name":"dealerHole","type":"uint8"},{"indexed":false,"internalType":"uint8[]","name":"dealerDraws","type":"uint8[]"}],"name":"RoundSettled","type":"event"},{"anonymous":false,"inputs":[{"indexed":true,"internalType":"uint256","name":"roundId","type":"uint256"},{"indexed":true,"internalType":"address","name":"player","type":"address"},{"indexed":false,"internalType":"uint128","name":"stakeWei","type":"uint128"},{"indexed":false,"internalType":"bytes32","name":"deckRoot","type":"bytes32"},{"indexed":false,"internalType":"uint8","name":"holePos","type":"uint8"},{"indexed":false,"internalType":"bytes32","name":"holeLeaf","type":"bytes32"}],"name":"RoundStarted","type":"event"},{"inputs":[],"name":"MAX_BET","outputs":[{"internalType":"uint256","name":"","type":"uint256"}],"stateMutability":"view","type":"function"},{"inputs":[{"internalType":"uint256","name":"","type":"uint256"}],"name":"R","outputs":[{"internalType":"address","name":"player","type":"address"},{"internalType":"uint128","name":"stakeWei","type":"uint128"},{"internalType":"bytes32","name":"deckRoot","type":"bytes32"},{"internalType":"uint8","name":"holePos","type":"uint8"},{"internalType":"bytes32","name":"holeLeaf","type":"bytes32"},{"internalType":"bool","name":"settled","type":"bool"}],"stateMutability":"view","type":"function"},{"inputs":[{"internalType":"uint8","name":"id","type":"uint8"}],"name":"cardName","outputs":[{"internalType":"string","name":"","type":"string"}],"stateMutability":"pure","type":"function"},{"inputs":[],"name":"nextRoundId","outputs":[{"internalType":"uint256","name":"","type":"uint256"}],"stateMutability":"view","type":"function"},{"inputs":[{"internalType":"uint256","name":"roundId","type":"uint256"},{"internalType":"uint8","name":"holeCardId","type":"uint8"},{"internalType":"bytes32","name":"holeSalt","type":"bytes32"},{"internalType":"bytes32[]","name":"holeProof","type":"bytes32[]"},{"components":[{"internalType":"uint8","name":"pos","type":"uint8"},{"internalType":"uint8","name":"cardId","type":"uint8"},{"internalType":"bytes32","name":"salt","type":"bytes32"},{"internalType":"bytes32[]","name":"proof","type":"bytes32[]"}],"internalType":"struct BlackjackSettlement.Reveal[]","name":"initial3","type":"tuple[]"},{"components":[{"internalType":"uint8","name":"pos","type":"uint8"},{"internalType":"uint8","name":"cardId","type":"uint8"},{"internalType":"bytes32","name":"salt","type":"bytes32"},{"internalType":"bytes32[]","name":"proof","type":"bytes32[]"}],"internalType":"struct BlackjackSettlement.Reveal[]","name":"playerExtra","type":"tuple[]"},{"components":[{"internalType":"uint8","name":"pos","type":"uint8"},{"internalType":"uint8","name":"cardId","type":"uint8"},{"internalType":"bytes32","name":"salt","type":"bytes32"},{"internalType":"bytes32[]","name":"proof","type":"bytes32[]"}],"internalType":"struct BlackjackSettlement.Reveal[]","name":"dealerDraws","type":"tuple[]"},{"internalType":"bool","name":"doubled","type":"bool"},{"internalType":"bool","name":"split","type":"bool"},{"components":[{"internalType":"uint8","name":"pos","type":"uint8"},{"internalType":"uint8","name":"cardId","type":"uint8"},{"internalType":"bytes32","name":"salt","type":"bytes32"},{"internalType":"bytes32[]","name":"proof","type":"bytes32[]"}],"internalType":"struct BlackjackSettlement.Reveal[]","name":"hand1Extra","type":"tuple[]"},{"components":[{"internalType":"uint8","name":"pos","type":"uint8"},{"internalType":"uint8","name":"cardId","type":"uint8"},{"internalType":"bytes32","name":"salt","type":"bytes32"},{"internalType":"bytes32[]","name":"proof","type":"bytes32[]"}],"internalType":"struct BlackjackSettlement.Reveal[]","name":"hand2Extra","type":"tuple[]"}],"name":"settle","outputs":[],"stateMutability":"nonpayable","type":"function"},{"inputs":[{"internalType":"bytes32","name":"deckRoot","type":"bytes32"},{"internalType":"uint8","name":"holePos","type":"uint8"},{"internalType":"bytes32","name":"holeLeaf","type":"bytes32"},{"internalType":"uint128","name":"stakeWei","type":"uint128"}],"name":"startRound","outputs":[{"internalType":"uint256","name":"roundId","type":"uint256"}],"stateMutability":"nonpayable","type":"function"},{"inputs":[],"name":"vault","outputs":[{"internalType":"contract IUserVaultSystem","name":"","type":"address"}],"stateMutability":"view","type":"function"}],"evm":{"bytecode":{"linkReferences":{},"object":"60803461007457601f61190038819003918201601f19168301916001600160401b038311848410176100795780849260209460405283398101031261007457516001600160a01b0381169081900361007457600080546001600160a01b03191691909117905560405161187090816100908239f35b600080fd5b634e487b7160e01b600052604160045260246000fdfe61030080604052600436101561001457600080fd5b60006102c05260003560e01c9081631367d0ab14611022575080634002eda6146110015780636ece35531461046f5780637e95b52314610449578063c45ac77c14610127578063e5cfd849146100a75763fbfa77cf1461007357600080fd5b346100a0576102c0518060031936011261009d57546040516001600160a01b039091168152602090f35b80fd5b6102c05180fd5b346100a05760203660031901126100a0576004356102c05152600260205260c060406102c0512060018060a01b03815416906001600160801b0360018201541690600281015460ff6003830154169060ff6005600485015494015416936040519586526020860152604085015260608401526080830152151560a0820152f35b346100a0576020806003193601126100a05760043560ff811680910361044457604051906001600160401b036101a083018181118482101761042e5780604052610170816112d9565b600190818152604160f81b6101c0860152845260405161018f816112d9565b818152601960f91b86820152858501526040516101ab816112d9565b818152603360f81b8682015260408501526040516101c8816112d9565b818152600d60fa1b8682015260608501526040516101e5816112d9565b818152603560f81b868201526080850152604051610202816112d9565b818152601b60f91b8682015260a085015260405161021f816112d9565b818152603760f81b8682015260c085015260405161023c816112d9565b818152600760fb1b8682015260e0850152604051610259816112d9565b818152603960f81b86820152610100850152604051610277816112d9565b6002815261031360f41b86820152610120850152604051610297816112d9565b818152602560f91b868201526101408501526040516102b5816112d9565b818152605160f81b86820152610160850152604051906102d4826112d9565b8152604b60f81b8582015261018084015260405190608082019081118282101761042e5780604052610305816112d9565b6003815262e299a360e81b60a08301528152604051610323816112d9565b6003815262714cd360e91b8582015281850152604051610342816112d9565b6003815262e299a560e81b858201526040820152604051610362816112d9565b60038152620714cd60ed1b858201526060820152600d808306939060ff8516101561041457600d90611fe0809560051b160151920492600460ff851610156104145760409360051b160151906103ea8484518094826103ca818401968781519384920161129b565b82016103de8251809386808501910161129b565b010380855201836112f4565b610406835194859381855251928380928601528585019061129b565b601f01601f19168101030190f35b634e487b7160e01b6102c05152603260045260246102c051fd5b634e487b7160e01b600052604160045260246000fd5b600080fd5b346100a0576102c0518060031936011261009d576020604051670de0b6b3a76400008152f35b346100a0576101603660031901126100a05761048961125b565b610220526064356001600160401b0381116100a0576104ac90369060040161126b565b9060c0526084356001600160401b0381116100a0576104cf90369060040161126b565b610140526102405260a4356001600160401b0381116100a0576104f690369060040161126b565b6101c05260c4356001600160401b0381116100a05761051990369060040161126b565b610200526102a05260e435151560e435036100a05761010435151561010435036100a057610124356001600160401b0381116100a05761055d90369060040161126b565b906001600160401b0361014435116100a05761057f366101443560040161126b565b60a052610260526102c080516004359052600260205251604090206101e0819052546001600160a01b031693338503610fd35760ff60056101e05101806102e0525416610fa45760036101405103610f775761010435610f41575b6040516102205160f81b6001600160f81b0319166020820152604435602182015261061281604181015b03601f1981018352826112f4565b6020815191012060046101e051015403610f1157610657906101e05160ff60036002830154928361016052015416806101205260c05191604435916102205191611659565b6102c0515060ff61067b610671610140516102405161133a565b80610100526113b9565b16610ee6576101205160ff610692610100516113b9565b1614610eb757610100516106a5816113b9565b6106b1602083016113b9565b918260e052606081013591601e19823603018312156100a0576001600160401b0383830135116100a0578282013560051b3603602084840101136100a05761070c936040602085850135958501019301359161016051611659565b61075460405161071b816112be565b6102c05181526102c05160208201526102c051604082015261074e6020610748610140516102405161133a565b016113b9565b9061148e565b6102805261012051600194908514610eae575b6107848561077b6101405161024051611355565b6101e0516115c8565b6108086107d16107c6604051610799816112be565b6102c05181526102c05160208201526102c051604082015261074e60206107486101405161024051611355565b9661012051906115ac565b6107e58161077b6101405161024051611376565b6107fa60206107486101405161024051611376565b6101805261012051906115ac565b926101043515610e36576102c0959395515b818110610dec57506102c051935b60a0518086101561087c576108646108759261084f8a61077b8a61086f9661026051611397565b61074e60206107488a60a05161026051611397565b9761012051906115ac565b94611315565b9395610828565b50909493509490945b6108c3604051610894816112be565b6102c05181526102c05160208201526102c05160408201526108be6102205191610180519061148e565b61148e565b916102c051925b601160ff8251161015610de45761020051841015610db357610911906108fb8361077b87610200516102a051611397565b61074e602061074887610200516102a051611397565b90601560ff61092e610928859461012051906115ac565b96611315565b9351161161093e579290926108ca565b92505b6102005103610d815760016101e051018060805254916102c05161010435600014610cf3575060ff926109a1610995928561028051511690866001600160801b039788968780971680958386511690611761565b97511691511690611761565b16911601908111610bb157935b6001600160801b038516610c63575b506102e051805460ff191660011790556102c051916101043515610c5957835b6101043515610c535760a051935b85600201600211610c3b5750610a0c610a0785876002016113c7565b6113eb565b6101a052610a256020610748610140516102405161133a565b6101a05190815115610c255760ff60209116910152610a4f60206107486101405161024051611355565b6101a05190815160011015610c255760ff604091169101526102c0515b858110610bcb57505050506102c0515b818110610b6c5783610a90610200516113eb565b6102c0515b610200519081811015610ad257610ab8602061074883610acd956102a051611397565b60ff610ac4838661141d565b91169052611315565b610a95565b50507ff318021f962a9c9cad487b96b26dd3147dcd3f7e80a70db0fb0deef0daa4499560018060a01b036101e0515416926001600160801b038060805154169160405192835216602082015260c0604082015280610b62610b3960c083016101a051611431565b60ff6101805116606084015260ff6102205116608084015282810360a084015260043595611431565b0390a36102c05180f35b610b8160206107488360a05161026051611397565b9083600201600211610bb157610bac9160ff610ac4610ba384886002016113c7565b6101a05161141d565b610a7c565b634e487b7160e01b6102c05152601160045260246102c051fd5b6101043515610c0c57610be46020610748838588611397565b905b80600201600211610bb157610c079160ff610ac4836002016101a05161141d565b610a6c565b610c1f6020610748836101c05187611397565b90610be6565b634e487b7160e01b600052603260045260246000fd5b634e487b7160e01b905260116004526102c051602490fd5b836109eb565b6101c051936109dd565b6102c05180546001600160a01b031690813b1561009d575060405191634fee0bd560e11b835260048301526001600160801b0386166024830152816044816102c05180945af18015610ce557156109bd576001600160401b038111610ccb57604052846109bd565b634e487b7160e01b6102c05152604160045260246102c051fd5b6040513d6102c051823e3d90fd5b91506102805192600260ff604086015116149384610d72575b506001600160801b0381169260e435610d3e575b5050610d389260ff80610280515116925116916117b3565b936109ae565b909192806002600160811b038460011b160460021490151715610c3b575060011b6002600160801b031690610d3888610d20565b5160ff16601514935088610d0c565b60405162461bcd60e51b815260206004820152600a602482015269115615149057d0d0549160b21b6044820152606490fd5b60405162461bcd60e51b81526020600482015260096024820152681391515117d0d0549160ba1b6044820152606490fd5b929050610941565b939561086f81610e04610e2e9361077b89878a611397565b610e20610e1760206107488a888b611397565b6102805161148e565b6102805261012051906115ac565b95939561081a565b610e54610e1760206107486101409996999897985161024051611355565b610280526102c051945b6101c05180871015610ea25781610e80610e9c9361077b8a610e96958b611397565b610e20610e1760206107488b6101c0518c611397565b95611315565b94610e5e565b50919592909450610885565b60029450610767565b60405162461bcd60e51b8152602060048201526007602482015266484f4c45504f5360c81b6044820152606490fd5b60405162461bcd60e51b8152602060048201526003602482015262504f5360e81b6044820152606490fd5b60405162461bcd60e51b81526020600482015260086024820152672427a622a622a0a360c11b6044820152606490fd5b60e435156105da5760405162461bcd60e51b81526020600482015260066024820152654e4f5f44415360d01b6044820152606490fd5b60405162461bcd60e51b8152602060048201526005602482015264494e49543360d81b6044820152606490fd5b60405162461bcd60e51b815260206004820152600760248201526614d1551513115160ca1b6044820152606490fd5b60405162461bcd60e51b8152602060048201526006602482015265282620aca2a960d11b6044820152606490fd5b346100a0576102c0518060031936011261009d576020600154604051908152f35b346104445760803660031901126104445760043561103e61125b565b90604435606435916001600160801b03948584168094036104445783151580611249575b1561122157506102c05154604051639ac27dd360e01b81526020966001600160a01b03939290919088908290600490829088165afa8015610ce55786916102c051916111f0575b50106111c5576110ba600154611315565b95866001556040519360c08501928584106001600160401b03851117610ccb5789958760ff936005938c97604052338452898401908c825260408501928a8452600288606088019a169c8d8b526080880196875260a088019b6102c0518d526102c051525260406102c051209551166bffffffffffffffffffffffff60a01b865416178555600185019151166001600160801b03198254161790555160028301558360038301955116948419958682541617905551600482015501925115159183541691161790556040519384528584015260408301526060820152817f851245cf748ea7f1e668be9648987eea87fcca7f0889f05ff24cd794581af96860803393a3604051908152f35b60405162461bcd60e51b815260048082018990526024820152631413d3d360e21b6044820152606490fd5b809250898092503d831161121a575b61120981836112f4565b810103126100a057859051896110a9565b503d6111ff565b62461bcd60e51b815260206004820152600360248201526210915560ea1b6044820152606490fd5b50670de0b6b3a7640000841115611062565b6024359060ff8216820361044457565b9181601f84011215610444578235916001600160401b038311610444576020808501948460051b01011161044457565b60005b8381106112ae5750506000910152565b818101518382015260200161129e565b606081019081106001600160401b0382111761042e57604052565b604081019081106001600160401b0382111761042e57604052565b90601f801991011681019081106001600160401b0382111761042e57604052565b60001981146113245760010190565b634e487b7160e01b600052601160045260246000fd5b9015610c2557803590607e1981360301821215610444570190565b9060011015610c2557602081013590607e1981360301821215610444570190565b9060021015610c2557604081013590607e1981360301821215610444570190565b9190811015610c255760051b81013590607e1981360301821215610444570190565b3560ff811681036104445790565b9190820180921161132457565b6001600160401b03811161042e5760051b60200190565b906113f5826113d4565b61140260405191826112f4565b8281528092611413601f19916113d4565b0190602036910137565b8051821015610c255760209160051b010190565b90815180825260208080930193019160005b828110611451575050505090565b835160ff1685529381019392810192600101611443565b60ff60019116019060ff821161132457565b9060ff8091169116019060ff821161132457565b91604092835161149d816112be565b60009481868093528260208201520152600d60ff809416069183831692831593846000146115835750506114f16114d9600b5b8685511661147a565b93856020850151169060001461157c5760019061147a565b925b848116906015821180611571575b156115395750600919018481116115255792841680156115255760001901926114f3565b634e487b7160e01b86526011600452602486fd5b948094938193975061155092506040015116611468565b91816040519561155f876112be565b16855216602084015216604082015290565b508585161515611501565b869061147a565b60091061159e576114d96115996114f192611468565b6114d0565b506114f16114d9600a6114d0565b60ff600181920116911681146115bf5790565b60010160ff1690565b909160ff806115d6856113b9565b9216911603610ee6576115e8826113b9565b60ff80600384015416911614610eb75760020154611605826113b9565b611611602084016113b9565b916060840135601e1985360301811215610444578401928335936001600160401b03851161044457602001928460051b3603841361044457604061165796013592611659565b565b92949093919360ff604095865161168f8161060460209b8c83019586909160219260ff60f81b9060f81b16825260018201520190565b519020911690926000915b8383106116d95750505050036116ae575050565b60649250519062461bcd60e51b825260048201526005602482015264282927a7a360d91b6044820152fd5b611718908360051b830135956001968783161560001461171e578951908b82019283528a82015289815261170c816112be565b519020955b1c92611315565b9161169a565b908951908b82019283528a820152898152611738816112be565b51902095611711565b60011b906002600160811b036002600160801b0383169216820361132457565b60ff169190601583116117ab5760ff16601581116117a05780831461179a576000921115611796576117939150611741565b90565b5090565b50905090565b506117939150611741565b505050600090565b909291926117ec5760ff1691601583116117ab5760ff16601581116117a05780831461179a576000921115611796576117939150611741565b509060009060ff166015036117ff575090565b6001600160801b0380921690600582029180830460051490151715611826575060011c1690565b634e487b7160e01b81526011600452602490fdfea264697066735822122065ff156a0c1bdbbd539a05b2d78f16912970d22301e9b3e82485ceee5a30d49e64736f6c63430008140033","opcodes":"PUSH1 0x80 CALLVALUE PUSH2 0x74 JUMPI PUSH1 0x1F PUSH2 0x1900 CODESIZE DUP2 SWAP1 SUB SWAP2 DUP3 ADD PUSH1 0x1F NOT AND DUP4 ADD SWAP2 PUSH1 0x1 PUSH1 0x1 PUSH1 0x40 SHL SUB DUP4 GT DUP5 DUP5 LT OR PUSH2 0x79 JUMPI DUP1 DUP5 SWAP3 PUSH1 0x20 SWAP5 PUSH1 0x40 MSTORE DUP4 CODECOPY DUP2 ADD SUB SLT PUSH2 0x74 JUMPI MLOAD PUSH1 0x1 PUSH1 0x1 PUSH1 0xA0 SHL SUB DUP2 AND SWAP1 DUP2 SWAP1 SUB PUSH2 0x74 JUMPI PUSH1 0x0 DUP1 SLOAD PUSH1 0x1 PUSH1 0x1 PUSH1 0xA0 SHL SUB NOT AND SWAP2 SWAP1 SWAP2 OR SWAP1 SSTORE PUSH1 0x40 MLOAD PUSH2 0x1870 SWAP1 DUP2 PUSH2 0x90 DUP3 CODECOPY RETURN JUMPDEST PUSH1 0x0 DUP1 REVERT JUMPDEST PUSH4 0x4E487B71 PUSH1 0xE0 SHL PUSH1 0x0 MSTORE PUSH1 0x41 PUSH1 0x4 MSTORE PUSH1 0x24 PUSH1 0x0 REVERT INVALID PUSH2 0x300 DUP1 PUSH1 0x40 MSTORE PUSH1 0x4 CALLDATASIZE LT ISZERO PUSH2 0x14 JUMPI PUSH1 0x0 DUP1 REVERT JUMPDEST PUSH1 0x0 PUSH2 0x2C0 MSTORE PUSH1 0x0 CALLDATALOAD PUSH1 0xE0 SHR SWAP1 DUP2 PUSH4 0x1367D0AB EQ PUSH2 0x1022 JUMPI POP DUP1 PUSH4 0x4002EDA6 EQ PUSH2 0x1001 JUMPI DUP1 PUSH4 0x6ECE3553 EQ PUSH2 0x46F JUMPI DUP1 PUSH4 0x7E95B523 EQ PUSH2 0x449 JUMPI DUP1 PUSH4 0xC45AC77C EQ PUSH2 0x127 JUMPI DUP1 PUSH4 0xE5CFD849 EQ PUSH2 0xA7 JUMPI PUSH4 0xFBFA77CF EQ PUSH2 0x73 JUMPI PUSH1 0x0 DUP1 REVERT JUMPDEST CALLVALUE PUSH2 0xA0 JUMPI PUSH2 0x2C0 MLOAD DUP1 PUSH1 0x3 NOT CALLDATASIZE ADD SLT PUSH2 0x9D JUMPI SLOAD PUSH1 0x40 MLOAD PUSH1 0x1 PUSH1 0x1 PUSH1 0xA0 SHL SUB SWAP1 SWAP2 AND DUP2 MSTORE PUSH1 0x20 SWAP1 RETURN JUMPDEST DUP1 REVERT JUMPDEST PUSH2 0x2C0 MLOAD DUP1 REVERT JUMPDEST CALLVALUE PUSH2 0xA0 JUMPI PUSH1 0x20 CALLDATASIZE PUSH1 0x3 NOT ADD SLT PUSH2 0xA0 JUMPI PUSH1 0x4 CALLDATALOAD PUSH2 0x2C0 MLOAD MSTORE PUSH1 0x2 PUSH1 0x20 MSTORE PUSH1 0xC0 PUSH1 0x40 PUSH2 0x2C0 MLOAD KECCAK256 PUSH1 0x1 DUP1 PUSH1 0xA0 SHL SUB DUP2 SLOAD AND SWAP1 PUSH1 0x1 PUSH1 0x1 PUSH1 0x80 SHL SUB PUSH1 0x1 DUP3 ADD SLOAD AND SWAP1 PUSH1 0x2 DUP2 ADD SLOAD PUSH1 0xFF PUSH1 0x3 DUP4 ADD SLOAD AND SWAP1 PUSH1 0xFF PUSH1 0x5 PUSH1 0x4 DUP6 ADD SLOAD SWAP5 ADD SLOAD AND SWAP4 PUSH1 0x40 MLOAD SWAP6 DUP7 MSTORE PUSH1 0x20 DUP7 ADD MSTORE PUSH1 0x40 DUP6 ADD MSTORE PUSH1 0x60 DUP5 ADD MSTORE PUSH1 0x80 DUP4 ADD MSTORE ISZERO ISZERO PUSH1 0xA0 DUP3 ADD MSTORE RETURN JUMPDEST CALLVALUE PUSH2 0xA0 JUMPI PUSH1 0x20 DUP1 PUSH1 0x3 NOT CALLDATASIZE ADD SLT PUSH2 0xA0 JUMPI PUSH1 0x4 CALLDATALOAD PUSH1 0xFF DUP2 AND DUP1 SWAP2 SUB PUSH2 0x444 JUMPI PUSH1 0x40 MLOAD SWAP1 PUSH1 0x1 PUSH1 0x1 PUSH1 0x40 SHL SUB PUSH2 0x1A0 DUP4 ADD DUP2 DUP2 GT DUP5 DUP3 LT OR PUSH2 0x42E JUMPI DUP1 PUSH1 0x40 MSTORE PUSH2 0x170 DUP2 PUSH2 0x12D9 JUMP JUMPDEST PUSH1 0x1 SWAP1 DUP2 DUP2 MSTORE PUSH1 0x41 PUSH1 0xF8 SHL PUSH2 0x1C0 DUP7 ADD MSTORE DUP5 MSTORE PUSH1 0x40 MLOAD PUSH2 0x18F DUP2 PUSH2 0x12D9 JUMP JUMPDEST DUP2 DUP2 MSTORE PUSH1 0x19 PUSH1 0xF9 SHL DUP7 DUP3 ADD MSTORE DUP6 DUP6 ADD MSTORE PUSH1 0x40 MLOAD PUSH2 0x1AB DUP2 PUSH2 0x12D9 JUMP JUMPDEST DUP2 DUP2 MSTORE PUSH1 0x33 PUSH1 0xF8 SHL DUP7 DUP3 ADD MSTORE PUSH1 0x40 DUP6 ADD MSTORE PUSH1 0x40 MLOAD PUSH2 0x1C8 DUP2 PUSH2 0x12D9 JUMP JUMPDEST DUP2 DUP2 MSTORE PUSH1 0xD PUSH1 0xFA SHL DUP7 DUP3 ADD MSTORE PUSH1 0x60 DUP6 ADD MSTORE PUSH1 0x40 MLOAD PUSH2 0x1E5 DUP2 PUSH2 0x12D9 JUMP JUMPDEST DUP2 DUP2 MSTORE PUSH1 0x35 PUSH1 0xF8 SHL DUP7 DUP3 ADD MSTORE PUSH1 0x80 DUP6 ADD MSTORE PUSH1 0x40 MLOAD PUSH2 0x202 DUP2 PUSH2 0x12D9 JUMP JUMPDEST DUP2 DUP2 MSTORE PUSH1 0x1B PUSH1 0xF9 SHL DUP7 DUP3 ADD MSTORE PUSH1 0xA0 DUP6 ADD MSTORE PUSH1 0x40 MLOAD PUSH2 0x21F DUP2 PUSH2 0x12D9 JUMP JUMPDEST DUP2 DUP2 MSTORE PUSH1 0x37 PUSH1 0xF8 SHL DUP7 DUP3 ADD MSTORE PUSH1 0xC0 DUP6 ADD MSTORE PUSH1 0x40 MLOAD PUSH2 0x23C DUP2 PUSH2 0x12D9 JUMP JUMPDEST DUP2 DUP2 MSTORE PUSH1 0x7 PUSH1 0xFB SHL DUP7 DUP3 ADD MSTORE PUSH1 0xE0 DUP6 ADD MSTORE PUSH1 0x40 MLOAD PUSH2 0x259 DUP2 PUSH2 0x12D9 JUMP JUMPDEST DUP2 DUP2 MSTORE PUSH1 0x39 PUSH1 0xF8 SHL DUP7 DUP3 ADD MSTORE PUSH2 0x100 DUP6 ADD MSTORE PUSH1 0x40 MLOAD PUSH2 0x277 DUP2 PUSH2 0x12D9 JUMP JUMPDEST PUSH1 0x2 DUP2 MSTORE PUSH2 0x313 PUSH1 0xF4 SHL DUP7 DUP3 ADD MSTORE PUSH2 0x120 DUP6 ADD MSTORE PUSH1 0x40 MLOAD PUSH2 0x297 DUP2 PUSH2 0x12D9 JUMP JUMPDEST DUP2 DUP2 MSTORE PUSH1 0x25 PUSH1 0xF9 SHL DUP7 DUP3 ADD MSTORE PUSH2 0x140 DUP6 ADD MSTORE PUSH1 0x40 MLOAD PUSH2 0x2B5 DUP2 PUSH2 0x12D9 JUMP JUMPDEST DUP2 DUP2 MSTORE PUSH1 0x51 PUSH1 0xF8 SHL DUP7 DUP3 ADD MSTORE PUSH2 0x160 DUP6 ADD MSTORE PUSH1 0x40 MLOAD SWAP1 PUSH2 0x2D4 DUP3 PUSH2 0x12D9 JUMP JUMPDEST DUP2 MSTORE PUSH1 0x4B PUSH1 0xF8 SHL DUP6 DUP3 ADD MSTORE PUSH2 0x180 DUP5 ADD MSTORE PUSH1 0x40 MLOAD SWAP1 PUSH1 0x80 DUP3 ADD SWAP1 DUP2 GT DUP3 DUP3 LT OR PUSH2 0x42E JUMPI DUP1 PUSH1 0x40 MSTORE PUSH2 0x305 DUP2 PUSH2 0x12D9 JUMP JUMPDEST PUSH1 0x3 DUP2 MSTORE PUSH3 0xE299A3 PUSH1 0xE8 SHL PUSH1 0xA0 DUP4 ADD MSTORE DUP2 MSTORE PUSH1 0x40 MLOAD PUSH2 0x323 DUP2 PUSH2 0x12D9 JUMP JUMPDEST PUSH1 0x3 DUP2 MSTORE PUSH3 0x714CD3 PUSH1 0xE9 SHL DUP6 DUP3 ADD MSTORE DUP2 DUP6 ADD MSTORE PUSH1 0x40 MLOAD PUSH2 0x342 DUP2 PUSH2 0x12D9 JUMP JUMPDEST PUSH1 0x3 DUP2 MSTORE PUSH3 0xE299A5 PUSH1 0xE8 SHL DUP6 DUP3 ADD MSTORE PUSH1 0x40 DUP3 ADD MSTORE PUSH1 0x40 MLOAD PUSH2 0x362 DUP2 PUSH2 0x12D9 JUMP JUMPDEST PUSH1 0x3 DUP2 MSTORE PUSH3 0x714CD PUSH1 0xED SHL DUP6 DUP3 ADD MSTORE PUSH1 0x60 DUP3 ADD MSTORE PUSH1 0xD DUP1 DUP4 MOD SWAP4 SWAP1 PUSH1 0xFF DUP6 AND LT ISZERO PUSH2 0x414 JUMPI PUSH1 0xD SWAP1 PUSH2 0x1FE0 DUP1 SWAP6 PUSH1 0x5 SHL AND ADD MLOAD SWAP3 DIV SWAP3 PUSH1 0x4 PUSH1 0xFF DUP6 AND LT ISZERO PUSH2 0x414 JUMPI PUSH1 0x40 SWAP4 PUSH1 0x5 SHL AND ADD MLOAD SWAP1 PUSH2 0x3EA DUP5 DUP5 MLOAD DUP1 SWAP5 DUP3 PUSH2 0x3CA DUP2 DUP5 ADD SWAP7 DUP8 DUP2 MLOAD SWAP4 DUP5 SWAP3 ADD PUSH2 0x129B JUMP JUMPDEST DUP3 ADD PUSH2 0x3DE DUP3 MLOAD DUP1 SWAP4 DUP7 DUP1 DUP6 ADD SWAP2 ADD PUSH2 0x129B JUMP JUMPDEST ADD SUB DUP1 DUP6 MSTORE ADD DUP4 PUSH2 0x12F4 JUMP JUMPDEST PUSH2 0x406 DUP4 MLOAD SWAP5 DUP6 SWAP4 DUP2 DUP6 MSTORE MLOAD SWAP3 DUP4 DUP1 SWAP3 DUP7 ADD MSTORE DUP6 DUP6 ADD SWAP1 PUSH2 0x129B JUMP JUMPDEST PUSH1 0x1F ADD PUSH1 0x1F NOT AND DUP2 ADD SUB ADD SWAP1 RETURN JUMPDEST PUSH4 0x4E487B71 PUSH1 0xE0 SHL PUSH2 0x2C0 MLOAD MSTORE PUSH1 0x32 PUSH1 0x4 MSTORE PUSH1 0x24 PUSH2 0x2C0 MLOAD REVERT JUMPDEST PUSH4 0x4E487B71 PUSH1 0xE0 SHL PUSH1 0x0 MSTORE PUSH1 0x41 PUSH1 0x4 MSTORE PUSH1 0x24 PUSH1 0x0 REVERT JUMPDEST PUSH1 0x0 DUP1 REVERT JUMPDEST CALLVALUE PUSH2 0xA0 JUMPI PUSH2 0x2C0 MLOAD DUP1 PUSH1 0x3 NOT CALLDATASIZE ADD SLT PUSH2 0x9D JUMPI PUSH1 0x20 PUSH1 0x40 MLOAD PUSH8 0xDE0B6B3A7640000 DUP2 MSTORE RETURN JUMPDEST CALLVALUE PUSH2 0xA0 JUMPI PUSH2 0x160 CALLDATASIZE PUSH1 0x3 NOT ADD SLT PUSH2 0xA0 JUMPI PUSH2 0x489 PUSH2 0x125B JUMP JUMPDEST PUSH2 0x220 MSTORE PUSH1 0x64 CALLDATALOAD PUSH1 0x1 PUSH1 0x1 PUSH1 0x40 SHL SUB DUP2 GT PUSH2 0xA0 JUMPI PUSH2 0x4AC SWAP1 CALLDATASIZE SWAP1 PUSH1 0x4 ADD PUSH2 0x126B JUMP JUMPDEST SWAP1 PUSH1 0xC0 MSTORE PUSH1 0x84 CALLDATALOAD PUSH1 0x1 PUSH1 0x1 PUSH1 0x40 SHL SUB DUP2 GT PUSH2 0xA0 JUMPI PUSH2 0x4CF SWAP1 CALLDATASIZE SWAP1 PUSH1 0x4 ADD PUSH2 0x126B JUMP JUMPDEST PUSH2 0x140 MSTORE PUSH2 0x240 MSTORE PUSH1 0xA4 CALLDATALOAD PUSH1 0x1 PUSH1 0x1 PUSH1 0x40 SHL SUB DUP2 GT PUSH2 0xA0 JUMPI PUSH2 0x4F6 SWAP1 CALLDATASIZE SWAP1 PUSH1 0x4 ADD PUSH2 0x126B JUMP JUMPDEST PUSH2 0x1C0 MSTORE PUSH1 0xC4 CALLDATALOAD PUSH1 0x1 PUSH1 0x1 PUSH1 0x40 SHL SUB DUP2 GT PUSH2 0xA0 JUMPI PUSH2 0x519 SWAP1 CALLDATASIZE SWAP1 PUSH1 0x4 ADD PUSH2 0x126B JUMP JUMPDEST PUSH2 0x200 MSTORE PUSH2 0x2A0 MSTORE PUSH1 0xE4 CALLDATALOAD ISZERO ISZERO PUSH1 0xE4 CALLDATALOAD SUB PUSH2 0xA0 JUMPI PUSH2 0x104 CALLDATALOAD ISZERO ISZERO PUSH2 0x104 CALLDATALOAD SUB PUSH2 0xA0 JUMPI PUSH2 0x124 CALLDATALOAD PUSH1 0x1 PUSH1 0x1 PUSH1 0x40 SHL SUB DUP2 GT PUSH2 0xA0 JUMPI PUSH2 0x55D SWAP1 CALLDATASIZE SWAP1 PUSH1 0x4 ADD PUSH2 0x126B JUMP JUMPDEST SWAP1 PUSH1 0x1 PUSH1 0x1 PUSH1 0x40 SHL SUB PUSH2 0x144 CALLDATALOAD GT PUSH2 0xA0 JUMPI PUSH2 0x57F CALLDATASIZE PUSH2 0x144 CALLDATALOAD PUSH1 0x4 ADD PUSH2 0x126B JUMP JUMPDEST PUSH1 0xA0 MSTORE PUSH2 0x260 MSTORE PUSH2 0x2C0 DUP1 MLOAD PUSH1 0x4 CALLDATALOAD SWAP1 MSTORE PUSH1 0x2 PUSH1 0x20 MSTORE MLOAD PUSH1 0x40 SWAP1 KECCAK256 PUSH2 0x1E0 DUP2 SWAP1 MSTORE SLOAD PUSH1 0x1 PUSH1 0x1 PUSH1 0xA0 SHL SUB AND SWAP4 CALLER DUP6 SUB PUSH2 0xFD3 JUMPI PUSH1 0xFF PUSH1 0x5 PUSH2 0x1E0 MLOAD ADD DUP1 PUSH2 0x2E0 MSTORE SLOAD AND PUSH2 0xFA4 JUMPI PUSH1 0x3 PUSH2 0x140 MLOAD SUB PUSH2 0xF77 JUMPI PUSH2 0x104 CALLDATALOAD PUSH2 0xF41 JUMPI JUMPDEST PUSH1 0x40 MLOAD PUSH2 0x220 MLOAD PUSH1 0xF8 SHL PUSH1 0x1 PUSH1 0x1 PUSH1 0xF8 SHL SUB NOT AND PUSH1 0x20 DUP3 ADD MSTORE PUSH1 0x44 CALLDATALOAD PUSH1 0x21 DUP3 ADD MSTORE PUSH2 0x612 DUP2 PUSH1 0x41 DUP2 ADD JUMPDEST SUB PUSH1 0x1F NOT DUP2 ADD DUP4 MSTORE DUP3 PUSH2 0x12F4 JUMP JUMPDEST PUSH1 0x20 DUP2 MLOAD SWAP2 ADD KECCAK256 PUSH1 0x4 PUSH2 0x1E0 MLOAD ADD SLOAD SUB PUSH2 0xF11 JUMPI PUSH2 0x657 SWAP1 PUSH2 0x1E0 MLOAD PUSH1 0xFF PUSH1 0x3 PUSH1 0x2 DUP4 ADD SLOAD SWAP3 DUP4 PUSH2 0x160 MSTORE ADD SLOAD AND DUP1 PUSH2 0x120 MSTORE PUSH1 0xC0 MLOAD SWAP2 PUSH1 0x44 CALLDATALOAD SWAP2 PUSH2 0x220 MLOAD SWAP2 PUSH2 0x1659 JUMP JUMPDEST PUSH2 0x2C0 MLOAD POP PUSH1 0xFF PUSH2 0x67B PUSH2 0x671 PUSH2 0x140 MLOAD PUSH2 0x240 MLOAD PUSH2 0x133A JUMP JUMPDEST DUP1 PUSH2 0x100 MSTORE PUSH2 0x13B9 JUMP JUMPDEST AND PUSH2 0xEE6 JUMPI PUSH2 0x120 MLOAD PUSH1 0xFF PUSH2 0x692 PUSH2 0x100 MLOAD PUSH2 0x13B9 JUMP JUMPDEST AND EQ PUSH2 0xEB7 JUMPI PUSH2 0x100 MLOAD PUSH2 0x6A5 DUP2 PUSH2 0x13B9 JUMP JUMPDEST PUSH2 0x6B1 PUSH1 0x20 DUP4 ADD PUSH2 0x13B9 JUMP JUMPDEST SWAP2 DUP3 PUSH1 0xE0 MSTORE PUSH1 0x60 DUP2 ADD CALLDATALOAD SWAP2 PUSH1 0x1E NOT DUP3 CALLDATASIZE SUB ADD DUP4 SLT ISZERO PUSH2 0xA0 JUMPI PUSH1 0x1 PUSH1 0x1 PUSH1 0x40 SHL SUB DUP4 DUP4 ADD CALLDATALOAD GT PUSH2 0xA0 JUMPI DUP3 DUP3 ADD CALLDATALOAD PUSH1 0x5 SHL CALLDATASIZE SUB PUSH1 0x20 DUP5 DUP5 ADD ADD SGT PUSH2 0xA0 JUMPI PUSH2 0x70C SWAP4 PUSH1 0x40 PUSH1 0x20 DUP6 DUP6 ADD CALLDATALOAD SWAP6 DUP6 ADD ADD SWAP4 ADD CALLDATALOAD SWAP2 PUSH2 0x160 MLOAD PUSH2 0x1659 JUMP JUMPDEST PUSH2 0x754 PUSH1 0x40 MLOAD PUSH2 0x71B DUP2 PUSH2 0x12BE JUMP JUMPDEST PUSH2 0x2C0 MLOAD DUP2 MSTORE PUSH2 0x2C0 MLOAD PUSH1 0x20 DUP3 ADD MSTORE PUSH2 0x2C0 MLOAD PUSH1 0x40 DUP3 ADD MSTORE PUSH2 0x74E PUSH1 0x20 PUSH2 0x748 PUSH2 0x140 MLOAD PUSH2 0x240 MLOAD PUSH2 0x133A JUMP JUMPDEST ADD PUSH2 0x13B9 JUMP JUMPDEST SWAP1 PUSH2 0x148E JUMP JUMPDEST PUSH2 0x280 MSTORE PUSH2 0x120 MLOAD PUSH1 0x1 SWAP5 SWAP1 DUP6 EQ PUSH2 0xEAE JUMPI JUMPDEST PUSH2 0x784 DUP6 PUSH2 0x77B PUSH2 0x140 MLOAD PUSH2 0x240 MLOAD PUSH2 0x1355 JUMP JUMPDEST PUSH2 0x1E0 MLOAD PUSH2 0x15C8 JUMP JUMPDEST PUSH2 0x808 PUSH2 0x7D1 PUSH2 0x7C6 PUSH1 0x40 MLOAD PUSH2 0x799 DUP2 PUSH2 0x12BE JUMP JUMPDEST PUSH2 0x2C0 MLOAD DUP2 MSTORE PUSH2 0x2C0 MLOAD PUSH1 0x20 DUP3 ADD MSTORE PUSH2 0x2C0 MLOAD PUSH1 0x40 DUP3 ADD MSTORE PUSH2 0x74E PUSH1 0x20 PUSH2 0x748 PUSH2 0x140 MLOAD PUSH2 0x240 MLOAD PUSH2 0x1355 JUMP JUMPDEST SWAP7 PUSH2 0x120 MLOAD SWAP1 PUSH2 0x15AC JUMP JUMPDEST PUSH2 0x7E5 DUP2 PUSH2 0x77B PUSH2 0x140 MLOAD PUSH2 0x240 MLOAD PUSH2 0x1376 JUMP JUMPDEST PUSH2 0x7FA PUSH1 0x20 PUSH2 0x748 PUSH2 0x140 MLOAD PUSH2 0x240 MLOAD PUSH2 0x1376 JUMP JUMPDEST PUSH2 0x180 MSTORE PUSH2 0x120 MLOAD SWAP1 PUSH2 0x15AC JUMP JUMPDEST SWAP3 PUSH2 0x104 CALLDATALOAD ISZERO PUSH2 0xE36 JUMPI PUSH2 0x2C0 SWAP6 SWAP4 SWAP6 MLOAD JUMPDEST DUP2 DUP2 LT PUSH2 0xDEC JUMPI POP PUSH2 0x2C0 MLOAD SWAP4 JUMPDEST PUSH1 0xA0 MLOAD DUP1 DUP7 LT ISZERO PUSH2 0x87C JUMPI PUSH2 0x864 PUSH2 0x875 SWAP3 PUSH2 0x84F DUP11 PUSH2 0x77B DUP11 PUSH2 0x86F SWAP7 PUSH2 0x260 MLOAD PUSH2 0x1397 JUMP JUMPDEST PUSH2 0x74E PUSH1 0x20 PUSH2 0x748 DUP11 PUSH1 0xA0 MLOAD PUSH2 0x260 MLOAD PUSH2 0x1397 JUMP JUMPDEST SWAP8 PUSH2 0x120 MLOAD SWAP1 PUSH2 0x15AC JUMP JUMPDEST SWAP5 PUSH2 0x1315 JUMP JUMPDEST SWAP4 SWAP6 PUSH2 0x828 JUMP JUMPDEST POP SWAP1 SWAP5 SWAP4 POP SWAP5 SWAP1 SWAP5 JUMPDEST PUSH2 0x8C3 PUSH1 0x40 MLOAD PUSH2 0x894 DUP2 PUSH2 0x12BE JUMP JUMPDEST PUSH2 0x2C0 MLOAD DUP2 MSTORE PUSH2 0x2C0 MLOAD PUSH1 0x20 DUP3 ADD MSTORE PUSH2 0x2C0 MLOAD PUSH1 0x40 DUP3 ADD MSTORE PUSH2 0x8BE PUSH2 0x220 MLOAD SWAP2 PUSH2 0x180 MLOAD SWAP1 PUSH2 0x148E JUMP JUMPDEST PUSH2 0x148E JUMP JUMPDEST SWAP2 PUSH2 0x2C0 MLOAD SWAP3 JUMPDEST PUSH1 0x11 PUSH1 0xFF DUP3 MLOAD AND LT ISZERO PUSH2 0xDE4 JUMPI PUSH2 0x200 MLOAD DUP5 LT ISZERO PUSH2 0xDB3 JUMPI PUSH2 0x911 SWAP1 PUSH2 0x8FB DUP4 PUSH2 0x77B DUP8 PUSH2 0x200 MLOAD PUSH2 0x2A0 MLOAD PUSH2 0x1397 JUMP JUMPDEST PUSH2 0x74E PUSH1 0x20 PUSH2 0x748 DUP8 PUSH2 0x200 MLOAD PUSH2 0x2A0 MLOAD PUSH2 0x1397 JUMP JUMPDEST SWAP1 PUSH1 0x15 PUSH1 0xFF PUSH2 0x92E PUSH2 0x928 DUP6 SWAP5 PUSH2 0x120 MLOAD SWAP1 PUSH2 0x15AC JUMP JUMPDEST SWAP7 PUSH2 0x1315 JUMP JUMPDEST SWAP4 MLOAD AND GT PUSH2 0x93E JUMPI SWAP3 SWAP1 SWAP3 PUSH2 0x8CA JUMP JUMPDEST SWAP3 POP JUMPDEST PUSH2 0x200 MLOAD SUB PUSH2 0xD81 JUMPI PUSH1 0x1 PUSH2 0x1E0 MLOAD ADD DUP1 PUSH1 0x80 MSTORE SLOAD SWAP2 PUSH2 0x2C0 MLOAD PUSH2 0x104 CALLDATALOAD PUSH1 0x0 EQ PUSH2 0xCF3 JUMPI POP PUSH1 0xFF SWAP3 PUSH2 0x9A1 PUSH2 0x995 SWAP3 DUP6 PUSH2 0x280 MLOAD MLOAD AND SWAP1 DUP7 PUSH1 0x1 PUSH1 0x1 PUSH1 0x80 SHL SUB SWAP8 DUP9 SWAP7 DUP8 DUP1 SWAP8 AND DUP1 SWAP6 DUP4 DUP7 MLOAD AND SWAP1 PUSH2 0x1761 JUMP JUMPDEST SWAP8 MLOAD AND SWAP2 MLOAD AND SWAP1 PUSH2 0x1761 JUMP JUMPDEST AND SWAP2 AND ADD SWAP1 DUP2 GT PUSH2 0xBB1 JUMPI SWAP4 JUMPDEST PUSH1 0x1 PUSH1 0x1 PUSH1 0x80 SHL SUB DUP6 AND PUSH2 0xC63 JUMPI JUMPDEST POP PUSH2 0x2E0 MLOAD DUP1 SLOAD PUSH1 0xFF NOT AND PUSH1 0x1 OR SWAP1 SSTORE PUSH2 0x2C0 MLOAD SWAP2 PUSH2 0x104 CALLDATALOAD ISZERO PUSH2 0xC59 JUMPI DUP4 JUMPDEST PUSH2 0x104 CALLDATALOAD ISZERO PUSH2 0xC53 JUMPI PUSH1 0xA0 MLOAD SWAP4 JUMPDEST DUP6 PUSH1 0x2 ADD PUSH1 0x2 GT PUSH2 0xC3B JUMPI POP PUSH2 0xA0C PUSH2 0xA07 DUP6 DUP8 PUSH1 0x2 ADD PUSH2 0x13C7 JUMP JUMPDEST PUSH2 0x13EB JUMP JUMPDEST PUSH2 0x1A0 MSTORE PUSH2 0xA25 PUSH1 0x20 PUSH2 0x748 PUSH2 0x140 MLOAD PUSH2 0x240 MLOAD PUSH2 0x133A JUMP JUMPDEST PUSH2 0x1A0 MLOAD SWAP1 DUP2 MLOAD ISZERO PUSH2 0xC25 JUMPI PUSH1 0xFF PUSH1 0x20 SWAP2 AND SWAP2 ADD MSTORE PUSH2 0xA4F PUSH1 0x20 PUSH2 0x748 PUSH2 0x140 MLOAD PUSH2 0x240 MLOAD PUSH2 0x1355 JUMP JUMPDEST PUSH2 0x1A0 MLOAD SWAP1 DUP2 MLOAD PUSH1 0x1 LT ISZERO PUSH2 0xC25 JUMPI PUSH1 0xFF PUSH1 0x40 SWAP2 AND SWAP2 ADD MSTORE PUSH2 0x2C0 MLOAD JUMPDEST DUP6 DUP2 LT PUSH2 0xBCB JUMPI POP POP POP POP PUSH2 0x2C0 MLOAD JUMPDEST DUP2 DUP2 LT PUSH2 0xB6C JUMPI DUP4 PUSH2 0xA90 PUSH2 0x200 MLOAD PUSH2 0x13EB JUMP JUMPDEST PUSH2 0x2C0 MLOAD JUMPDEST PUSH2 0x200 MLOAD SWAP1 DUP2 DUP2 LT ISZERO PUSH2 0xAD2 JUMPI PUSH2 0xAB8 PUSH1 0x20 PUSH2 0x748 DUP4 PUSH2 0xACD SWAP6 PUSH2 0x2A0 MLOAD PUSH2 0x1397 JUMP JUMPDEST PUSH1 0xFF PUSH2 0xAC4 DUP4 DUP7 PUSH2 0x141D JUMP JUMPDEST SWAP2 AND SWAP1 MSTORE PUSH2 0x1315 JUMP JUMPDEST PUSH2 0xA95 JUMP JUMPDEST POP POP PUSH32 0xF318021F962A9C9CAD487B96B26DD3147DCD3F7E80A70DB0FB0DEEF0DAA44995 PUSH1 0x1 DUP1 PUSH1 0xA0 SHL SUB PUSH2 0x1E0 MLOAD SLOAD AND SWAP3 PUSH1 0x1 PUSH1 0x1 PUSH1 0x80 SHL SUB DUP1 PUSH1 0x80 MLOAD SLOAD AND SWAP2 PUSH1 0x40 MLOAD SWAP3 DUP4 MSTORE AND PUSH1 0x20 DUP3 ADD MSTORE PUSH1 0xC0 PUSH1 0x40 DUP3 ADD MSTORE DUP1 PUSH2 0xB62 PUSH2 0xB39 PUSH1 0xC0 DUP4 ADD PUSH2 0x1A0 MLOAD PUSH2 0x1431 JUMP JUMPDEST PUSH1 0xFF PUSH2 0x180 MLOAD AND PUSH1 0x60 DUP5 ADD MSTORE PUSH1 0xFF PUSH2 0x220 MLOAD AND PUSH1 0x80 DUP5 ADD MSTORE DUP3 DUP2 SUB PUSH1 0xA0 DUP5 ADD MSTORE PUSH1 0x4 CALLDATALOAD SWAP6 PUSH2 0x1431 JUMP JUMPDEST SUB SWAP1 LOG3 PUSH2 0x2C0 MLOAD DUP1 RETURN JUMPDEST PUSH2 0xB81 PUSH1 0x20 PUSH2 0x748 DUP4 PUSH1 0xA0 MLOAD PUSH2 0x260 MLOAD PUSH2 0x1397 JUMP JUMPDEST SWAP1 DUP4 PUSH1 0x2 ADD PUSH1 0x2 GT PUSH2 0xBB1 JUMPI PUSH2 0xBAC SWAP2 PUSH1 0xFF PUSH2 0xAC4 PUSH2 0xBA3 DUP5 DUP9 PUSH1 0x2 ADD PUSH2 0x13C7 JUMP JUMPDEST PUSH2 0x1A0 MLOAD PUSH2 0x141D JUMP JUMPDEST PUSH2 0xA7C JUMP JUMPDEST PUSH4 0x4E487B71 PUSH1 0xE0 SHL PUSH2 0x2C0 MLOAD MSTORE PUSH1 0x11 PUSH1 0x4 MSTORE PUSH1 0x24 PUSH2 0x2C0 MLOAD REVERT JUMPDEST PUSH2 0x104 CALLDATALOAD ISZERO PUSH2 0xC0C JUMPI PUSH2 0xBE4 PUSH1 0x20 PUSH2 0x748 DUP4 DUP6 DUP9 PUSH2 0x1397 JUMP JUMPDEST SWAP1 JUMPDEST DUP1 PUSH1 0x2 ADD PUSH1 0x2 GT PUSH2 0xBB1 JUMPI PUSH2 0xC07 SWAP2 PUSH1 0xFF PUSH2 0xAC4 DUP4 PUSH1 0x2 ADD PUSH2 0x1A0 MLOAD PUSH2 0x141D JUMP JUMPDEST PUSH2 0xA6C JUMP JUMPDEST PUSH2 0xC1F PUSH1 0x20 PUSH2 0x748 DUP4 PUSH2 0x1C0 MLOAD DUP8 PUSH2 0x1397 JUMP JUMPDEST SWAP1 PUSH2 0xBE6 JUMP JUMPDEST PUSH4 0x4E487B71 PUSH1 0xE0 SHL PUSH1 0x0 MSTORE PUSH1 0x32 PUSH1 0x4 MSTORE PUSH1 0x24 PUSH1 0x0 REVERT JUMPDEST PUSH4 0x4E487B71 PUSH1 0xE0 SHL SWAP1 MSTORE PUSH1 0x11 PUSH1 0x4 MSTORE PUSH2 0x2C0 MLOAD PUSH1 0x24 SWAP1 REVERT JUMPDEST DUP4 PUSH2 0x9EB JUMP JUMPDEST PUSH2 0x1C0 MLOAD SWAP4 PUSH2 0x9DD JUMP JUMPDEST PUSH2 0x2C0 MLOAD DUP1 SLOAD PUSH1 0x1 PUSH1 0x1 PUSH1 0xA0 SHL SUB AND SWAP1 DUP2 EXTCODESIZE ISZERO PUSH2 0x9D JUMPI POP PUSH1 0x40 MLOAD SWAP2 PUSH4 0x4FEE0BD5 PUSH1 0xE1 SHL DUP4 MSTORE PUSH1 0x4 DUP4 ADD MSTORE PUSH1 0x1 PUSH1 0x1 PUSH1 0x80 SHL SUB DUP7 AND PUSH1 0x24 DUP4 ADD MSTORE DUP2 PUSH1 0x44 DUP2 PUSH2 0x2C0 MLOAD DUP1 SWAP5 GAS CALL DUP1 ISZERO PUSH2 0xCE5 JUMPI ISZERO PUSH2 0x9BD JUMPI PUSH1 0x1 PUSH1 0x1 PUSH1 0x40 SHL SUB DUP2 GT PUSH2 0xCCB JUMPI PUSH1 0x40 MSTORE DUP5 PUSH2 0x9BD JUMP JUMPDEST PUSH4 0x4E487B71 PUSH1 0xE0 SHL PUSH2 0x2C0 MLOAD MSTORE PUSH1 0x41 PUSH1 0x4 MSTORE PUSH1 0x24 PUSH2 0x2C0 MLOAD REVERT JUMPDEST PUSH1 0x40 MLOAD RETURNDATASIZE PUSH2 0x2C0 MLOAD DUP3 RETURNDATACOPY RETURNDATASIZE SWAP1 REVERT JUMPDEST SWAP2 POP PUSH2 0x280 MLOAD SWAP3 PUSH1 0x2 PUSH1 0xFF PUSH1 0x40 DUP7 ADD MLOAD AND EQ SWAP4 DUP5 PUSH2 0xD72 JUMPI JUMPDEST POP PUSH1 0x1 PUSH1 0x1 PUSH1 0x80 SHL SUB DUP2 AND SWAP3 PUSH1 0xE4 CALLDATALOAD PUSH2 0xD3E JUMPI JUMPDEST POP POP PUSH2 0xD38 SWAP3 PUSH1 0xFF DUP1 PUSH2 0x280 MLOAD MLOAD AND SWAP3 MLOAD AND SWAP2 PUSH2 0x17B3 JUMP JUMPDEST SWAP4 PUSH2 0x9AE JUMP JUMPDEST SWAP1 SWAP2 SWAP3 DUP1 PUSH1 0x2 PUSH1 0x1 PUSH1 0x81 SHL SUB DUP5 PUSH1 0x1 SHL AND DIV PUSH1 0x2 EQ SWAP1 ISZERO OR ISZERO PUSH2 0xC3B JUMPI POP PUSH1 0x1 SHL PUSH1 0x2 PUSH1 0x1 PUSH1 0x80 SHL SUB AND SWAP1 PUSH2 0xD38 DUP9 PUSH2 0xD20 JUMP JUMPDEST MLOAD PUSH1 0xFF AND PUSH1 0x15 EQ SWAP4 POP DUP9 PUSH2 0xD0C JUMP JUMPDEST PUSH1 0x40 MLOAD PUSH3 0x461BCD PUSH1 0xE5 SHL DUP2 MSTORE PUSH1 0x20 PUSH1 0x4 DUP3 ADD MSTORE PUSH1 0xA PUSH1 0x24 DUP3 ADD MSTORE PUSH10 0x115615149057D0D05491 PUSH1 0xB2 SHL PUSH1 0x44 DUP3 ADD MSTORE PUSH1 0x64 SWAP1 REVERT JUMPDEST PUSH1 0x40 MLOAD PUSH3 0x461BCD PUSH1 0xE5 SHL DUP2 MSTORE PUSH1 0x20 PUSH1 0x4 DUP3 ADD MSTORE PUSH1 0x9 PUSH1 0x24 DUP3 ADD MSTORE PUSH9 0x1391515117D0D05491 PUSH1 0xBA SHL PUSH1 0x44 DUP3 ADD MSTORE PUSH1 0x64 SWAP1 REVERT JUMPDEST SWAP3 SWAP1 POP PUSH2 0x941 JUMP JUMPDEST SWAP4 SWAP6 PUSH2 0x86F DUP2 PUSH2 0xE04 PUSH2 0xE2E SWAP4 PUSH2 0x77B DUP10 DUP8 DUP11 PUSH2 0x1397 JUMP JUMPDEST PUSH2 0xE20 PUSH2 0xE17 PUSH1 0x20 PUSH2 0x748 DUP11 DUP9 DUP12 PUSH2 0x1397 JUMP JUMPDEST PUSH2 0x280 MLOAD PUSH2 0x148E JUMP JUMPDEST PUSH2 0x280 MSTORE PUSH2 0x120 MLOAD SWAP1 PUSH2 0x15AC JUMP JUMPDEST SWAP6 SWAP4 SWAP6 PUSH2 0x81A JUMP JUMPDEST PUSH2 0xE54 PUSH2 0xE17 PUSH1 0x20 PUSH2 0x748 PUSH2 0x140 SWAP10 SWAP7 SWAP10 SWAP9 SWAP8 SWAP9 MLOAD PUSH2 0x240 MLOAD PUSH2 0x1355 JUMP JUMPDEST PUSH2 0x280 MSTORE PUSH2 0x2C0 MLOAD SWAP5 JUMPDEST PUSH2 0x1C0 MLOAD DUP1 DUP8 LT ISZERO PUSH2 0xEA2 JUMPI DUP2 PUSH2 0xE80 PUSH2 0xE9C SWAP4 PUSH2 0x77B DUP11 PUSH2 0xE96 SWAP6 DUP12 PUSH2 0x1397 JUMP JUMPDEST PUSH2 0xE20 PUSH2 0xE17 PUSH1 0x20 PUSH2 0x748 DUP12 PUSH2 0x1C0 MLOAD DUP13 PUSH2 0x1397 JUMP JUMPDEST SWAP6 PUSH2 0x1315 JUMP JUMPDEST SWAP5 PUSH2 0xE5E JUMP JUMPDEST POP SWAP2 SWAP6 SWAP3 SWAP1 SWAP5 POP PUSH2 0x885 JUMP JUMPDEST PUSH1 0x2 SWAP5 POP PUSH2 0x767 JUMP JUMPDEST PUSH1 0x40 MLOAD PUSH3 0x461BCD PUSH1 0xE5 SHL DUP2 MSTORE PUSH1 0x20 PUSH1 0x4 DUP3 ADD MSTORE PUSH1 0x7 PUSH1 0x24 DUP3 ADD MSTORE PUSH7 0x484F4C45504F53 PUSH1 0xC8 SHL PUSH1 0x44 DUP3 ADD MSTORE PUSH1 0x64 SWAP1 REVERT JUMPDEST PUSH1 0x40 MLOAD PUSH3 0x461BCD PUSH1 0xE5 SHL DUP2 MSTORE PUSH1 0x20 PUSH1 0x4 DUP3 ADD MSTORE PUSH1 0x3 PUSH1 0x24 DUP3 ADD MSTORE PUSH3 0x504F53 PUSH1 0xE8 SHL PUSH1 0x44 DUP3 ADD MSTORE PUSH1 0x64 SWAP1 REVERT JUMPDEST PUSH1 0x40 MLOAD PUSH3 0x461BCD PUSH1 0xE5 SHL DUP2 MSTORE PUSH1 0x20 PUSH1 0x4 DUP3 ADD MSTORE PUSH1 0x8 PUSH1 0x24 DUP3 ADD MSTORE PUSH8 0x2427A622A622A0A3 PUSH1 0xC1 SHL PUSH1 0x44 DUP3 ADD MSTORE PUSH1 0x64 SWAP1 REVERT JUMPDEST PUSH1 0xE4 CALLDATALOAD ISZERO PUSH2 0x5DA JUMPI PUSH1 0x40 MLOAD PUSH3 0x461BCD PUSH1 0xE5 SHL DUP2 MSTORE PUSH1 0x20 PUSH1 0x4 DUP3 ADD MSTORE PUSH1 0x6 PUSH1 0x24 DUP3 ADD MSTORE PUSH6 0x4E4F5F444153 PUSH1 0xD0 SHL PUSH1 0x44 DUP3 ADD MSTORE PUSH1 0x64 SWAP1 REVERT JUMPDEST PUSH1 0x40 MLOAD PUSH3 0x461BCD PUSH1 0xE5 SHL DUP2 MSTORE PUSH1 0x20 PUSH1 0x4 DUP3 ADD MSTORE PUSH1 0x5 PUSH1 0x24 DUP3 ADD MSTORE PUSH5 0x494E495433 PUSH1 0xD8 SHL PUSH1 0x44 DUP3 ADD MSTORE PUSH1 0x64 SWAP1 REVERT JUMPDEST PUSH1 0x40 MLOAD PUSH3 0x461BCD PUSH1 0xE5 SHL DUP2 MSTORE PUSH1 0x20 PUSH1 0x4 DUP3 ADD MSTORE PUSH1 0x7 PUSH1 0x24 DUP3 ADD MSTORE PUSH7 0x14D15515131151 PUSH1 0xCA SHL PUSH1 0x44 DUP3 ADD MSTORE PUSH1 0x64 SWAP1 REVERT JUMPDEST PUSH1 0x40 MLOAD PUSH3 0x461BCD PUSH1 0xE5 SHL DUP2 MSTORE PUSH1 0x20 PUSH1 0x4 DUP3 ADD MSTORE PUSH1 0x6 PUSH1 0x24 DUP3 ADD MSTORE PUSH6 0x282620ACA2A9 PUSH1 0xD1 SHL PUSH1 0x44 DUP3 ADD MSTORE PUSH1 0x64 SWAP1 REVERT JUMPDEST CALLVALUE PUSH2 0xA0 JUMPI PUSH2 0x2C0 MLOAD DUP1 PUSH1 0x3 NOT CALLDATASIZE ADD SLT PUSH2 0x9D JUMPI PUSH1 0x20 PUSH1 0x1 SLOAD PUSH1 0x40 MLOAD SWAP1 DUP2 MSTORE RETURN JUMPDEST CALLVALUE PUSH2 0x444 JUMPI PUSH1 0x80 CALLDATASIZE PUSH1 0x3 NOT ADD SLT PUSH2 0x444 JUMPI PUSH1 0x4 CALLDATALOAD PUSH2 0x103E PUSH2 0x125B JUMP JUMPDEST SWAP1 PUSH1 0x44 CALLDATALOAD PUSH1 0x64 CALLDATALOAD SWAP2 PUSH1 0x1 PUSH1 0x1 PUSH1 0x80 SHL SUB SWAP5 DUP6 DUP5 AND DUP1 SWAP5 SUB PUSH2 0x444 JUMPI DUP4 ISZERO ISZERO DUP1 PUSH2 0x1249 JUMPI JUMPDEST ISZERO PUSH2 0x1221 JUMPI POP PUSH2 0x2C0 MLOAD SLOAD PUSH1 0x40 MLOAD PUSH4 0x9AC27DD3 PUSH1 0xE0 SHL DUP2 MSTORE PUSH1 0x20 SWAP7 PUSH1 0x1 PUSH1 0x1 PUSH1 0xA0 SHL SUB SWAP4 SWAP3 SWAP1 SWAP2 SWAP1 DUP9 SWAP1 DUP3 SWAP1 PUSH1 0x4 SWAP1 DUP3 SWAP1 DUP9 AND GAS STATICCALL DUP1 ISZERO PUSH2 0xCE5 JUMPI DUP7 SWAP2 PUSH2 0x2C0 MLOAD SWAP2 PUSH2 0x11F0 JUMPI JUMPDEST POP LT PUSH2 0x11C5 JUMPI PUSH2 0x10BA PUSH1 0x1 SLOAD PUSH2 0x1315 JUMP JUMPDEST SWAP6 DUP7 PUSH1 0x1 SSTORE PUSH1 0x40 MLOAD SWAP4 PUSH1 0xC0 DUP6 ADD SWAP3 DUP6 DUP5 LT PUSH1 0x1 PUSH1 0x1 PUSH1 0x40 SHL SUB DUP6 GT OR PUSH2 0xCCB JUMPI DUP10 SWAP6 DUP8 PUSH1 0xFF SWAP4 PUSH1 0x5 SWAP4 DUP13 SWAP8 PUSH1 0x40 MSTORE CALLER DUP5 MSTORE DUP10 DUP5 ADD SWAP1 DUP13 DUP3 MSTORE PUSH1 0x40 DUP6 ADD SWAP3 DUP11 DUP5 MSTORE PUSH1 0x2 DUP9 PUSH1 0x60 DUP9 ADD SWAP11 AND SWAP13 DUP14 DUP12 MSTORE PUSH1 0x80 DUP9 ADD SWAP7 DUP8 MSTORE PUSH1 0xA0 DUP9 ADD SWAP12 PUSH2 0x2C0 MLOAD DUP14 MSTORE PUSH2 0x2C0 MLOAD MSTORE MSTORE PUSH1 0x40 PUSH2 0x2C0 MLOAD KECCAK256 SWAP6 MLOAD AND PUSH12 0xFFFFFFFFFFFFFFFFFFFFFFFF PUSH1 0xA0 SHL DUP7 SLOAD AND OR DUP6 SSTORE PUSH1 0x1 DUP6 ADD SWAP2 MLOAD AND PUSH1 0x1 PUSH1 0x1 PUSH1 0x80 SHL SUB NOT DUP3 SLOAD AND OR SWAP1 SSTORE MLOAD PUSH1 0x2 DUP4 ADD SSTORE DUP4 PUSH1 0x3 DUP4 ADD SWAP6 MLOAD AND SWAP5 DUP5 NOT SWAP6 DUP7 DUP3 SLOAD AND OR SWAP1 SSTORE MLOAD PUSH1 0x4 DUP3 ADD SSTORE ADD SWAP3 MLOAD ISZERO ISZERO SWAP2 DUP4 SLOAD AND SWAP2 AND OR SWAP1 SSTORE PUSH1 0x40 MLOAD SWAP4 DUP5 MSTORE DUP6 DUP5 ADD MSTORE PUSH1 0x40 DUP4 ADD MSTORE PUSH1 0x60 DUP3 ADD MSTORE DUP2 PUSH32 0x851245CF748EA7F1E668BE9648987EEA87FCCA7F0889F05FF24CD794581AF968 PUSH1 0x80 CALLER SWAP4 LOG3 PUSH1 0x40 MLOAD SWAP1 DUP2 MSTORE RETURN JUMPDEST PUSH1 0x40 MLOAD PUSH3 0x461BCD PUSH1 0xE5 SHL DUP2 MSTORE PUSH1 0x4 DUP1 DUP3 ADD DUP10 SWAP1 MSTORE PUSH1 0x24 DUP3 ADD MSTORE PUSH4 0x1413D3D3 PUSH1 0xE2 SHL PUSH1 0x44 DUP3 ADD MSTORE PUSH1 0x64 SWAP1 REVERT JUMPDEST DUP1 SWAP3 POP DUP10 DUP1 SWAP3 POP RETURNDATASIZE DUP4 GT PUSH2 0x121A JUMPI JUMPDEST PUSH2 0x1209 DUP2 DUP4 PUSH2 0x12F4 JUMP JUMPDEST DUP2 ADD SUB SLT PUSH2 0xA0 JUMPI DUP6 SWAP1 MLOAD DUP10 PUSH2 0x10A9 JUMP JUMPDEST POP RETURNDATASIZE PUSH2 0x11FF JUMP JUMPDEST PUSH3 0x461BCD PUSH1 0xE5 SHL DUP2 MSTORE PUSH1 0x20 PUSH1 0x4 DUP3 ADD MSTORE PUSH1 0x3 PUSH1 0x24 DUP3 ADD MSTORE PUSH3 0x109155 PUSH1 0xEA SHL PUSH1 0x44 DUP3 ADD MSTORE PUSH1 0x64 SWAP1 REVERT JUMPDEST POP PUSH8 0xDE0B6B3A7640000 DUP5 GT ISZERO PUSH2 0x1062 JUMP JUMPDEST PUSH1 0x24 CALLDATALOAD SWAP1 PUSH1 0xFF DUP3 AND DUP3 SUB PUSH2 0x444 JUMPI JUMP JUMPDEST SWAP2 DUP2 PUSH1 0x1F DUP5 ADD SLT ISZERO PUSH2 0x444 JUMPI DUP3 CALLDATALOAD SWAP2 PUSH1 0x1 PUSH1 0x1 PUSH1 0x40 SHL SUB DUP4 GT PUSH2 0x444 JUMPI PUSH1 0x20 DUP1 DUP6 ADD SWAP5 DUP5 PUSH1 0x5 SHL ADD ADD GT PUSH2 0x444 JUMPI JUMP JUMPDEST PUSH1 0x0 JUMPDEST DUP4 DUP2 LT PUSH2 0x12AE JUMPI POP POP PUSH1 0x0 SWAP2 ADD MSTORE JUMP JUMPDEST DUP2 DUP2 ADD MLOAD DUP4 DUP3 ADD MSTORE PUSH1 0x20 ADD PUSH2 0x129E JUMP JUMPDEST PUSH1 0x60 DUP2 ADD SWAP1 DUP2 LT PUSH1 0x1 PUSH1 0x1 PUSH1 0x40 SHL SUB DUP3 GT OR PUSH2 0x42E JUMPI PUSH1 0x40 MSTORE JUMP JUMPDEST PUSH1 0x40 DUP2 ADD SWAP1 DUP2 LT PUSH1 0x1 PUSH1 0x1 PUSH1 0x40 SHL SUB DUP3 GT OR PUSH2 0x42E JUMPI PUSH1 0x40 MSTORE JUMP JUMPDEST SWAP1 PUSH1 0x1F DUP1 NOT SWAP2 ADD AND DUP2 ADD SWAP1 DUP2 LT PUSH1 0x1 PUSH1 0x1 PUSH1 0x40 SHL SUB DUP3 GT OR PUSH2 0x42E JUMPI PUSH1 0x40 MSTORE JUMP JUMPDEST PUSH1 0x0 NOT DUP2 EQ PUSH2 0x1324 JUMPI PUSH1 0x1 ADD SWAP1 JUMP JUMPDEST PUSH4 0x4E487B71 PUSH1 0xE0 SHL PUSH1 0x0 MSTORE PUSH1 0x11 PUSH1 0x4 MSTORE PUSH1 0x24 PUSH1 0x0 REVERT JUMPDEST SWAP1 ISZERO PUSH2 0xC25 JUMPI DUP1 CALLDATALOAD SWAP1 PUSH1 0x7E NOT DUP2 CALLDATASIZE SUB ADD DUP3 SLT ISZERO PUSH2 0x444 JUMPI ADD SWAP1 JUMP JUMPDEST SWAP1 PUSH1 0x1 LT ISZERO PUSH2 0xC25 JUMPI PUSH1 0x20 DUP2 ADD CALLDATALOAD SWAP1 PUSH1 0x7E NOT DUP2 CALLDATASIZE SUB ADD DUP3 SLT ISZERO PUSH2 0x444 JUMPI ADD SWAP1 JUMP JUMPDEST SWAP1 PUSH1 0x2 LT ISZERO PUSH2 0xC25 JUMPI PUSH1 0x40 DUP2 ADD CALLDATALOAD SWAP1 PUSH1 0x7E NOT DUP2 CALLDATASIZE SUB ADD DUP3 SLT ISZERO PUSH2 0x444 JUMPI ADD SWAP1 JUMP JUMPDEST SWAP2 SWAP1 DUP2 LT ISZERO PUSH2 0xC25 JUMPI PUSH1 0x5 SHL DUP2 ADD CALLDATALOAD SWAP1 PUSH1 0x7E NOT DUP2 CALLDATASIZE SUB ADD DUP3 SLT ISZERO PUSH2 0x444 JUMPI ADD SWAP1 JUMP JUMPDEST CALLDATALOAD PUSH1 0xFF DUP2 AND DUP2 SUB PUSH2 0x444 JUMPI SWAP1 JUMP JUMPDEST SWAP2 SWAP1 DUP3 ADD DUP1 SWAP3 GT PUSH2 0x1324 JUMPI JUMP JUMPDEST PUSH1 0x1 PUSH1 0x1 PUSH1 0x40 SHL SUB DUP2 GT PUSH2 0x42E JUMPI PUSH1 0x5 SHL PUSH1 0x20 ADD SWAP1 JUMP JUMPDEST SWAP1 PUSH2 0x13F5 DUP3 PUSH2 0x13D4 JUMP JUMPDEST PUSH2 0x1402 PUSH1 0x40 MLOAD SWAP2 DUP3 PUSH2 0x12F4 JUMP JUMPDEST DUP3 DUP2 MSTORE DUP1 SWAP3 PUSH2 0x1413 PUSH1 0x1F NOT SWAP2 PUSH2 0x13D4 JUMP JUMPDEST ADD SWAP1 PUSH1 0x20 CALLDATASIZE SWAP2 ADD CALLDATACOPY JUMP JUMPDEST DUP1 MLOAD DUP3 LT ISZERO PUSH2 0xC25 JUMPI PUSH1 0x20 SWAP2 PUSH1 0x5 SHL ADD ADD SWAP1 JUMP JUMPDEST SWAP1 DUP2 MLOAD DUP1 DUP3 MSTORE PUSH1 0x20 DUP1 DUP1 SWAP4 ADD SWAP4 ADD SWAP2 PUSH1 0x0 JUMPDEST DUP3 DUP2 LT PUSH2 0x1451 JUMPI POP POP POP POP SWAP1 JUMP JUMPDEST DUP4 MLOAD PUSH1 0xFF AND DUP6 MSTORE SWAP4 DUP2 ADD SWAP4 SWAP3 DUP2 ADD SWAP3 PUSH1 0x1 ADD PUSH2 0x1443 JUMP JUMPDEST PUSH1 0xFF PUSH1 0x1 SWAP2 AND ADD SWAP1 PUSH1 0xFF DUP3 GT PUSH2 0x1324 JUMPI JUMP JUMPDEST SWAP1 PUSH1 0xFF DUP1 SWAP2 AND SWAP2 AND ADD SWAP1 PUSH1 0xFF DUP3 GT PUSH2 0x1324 JUMPI JUMP JUMPDEST SWAP2 PUSH1 0x40 SWAP3 DUP4 MLOAD PUSH2 0x149D DUP2 PUSH2 0x12BE JUMP JUMPDEST PUSH1 0x0 SWAP5 DUP2 DUP7 DUP1 SWAP4 MSTORE DUP3 PUSH1 0x20 DUP3 ADD MSTORE ADD MSTORE PUSH1 0xD PUSH1 0xFF DUP1 SWAP5 AND MOD SWAP2 DUP4 DUP4 AND SWAP3 DUP4 ISZERO SWAP4 DUP5 PUSH1 0x0 EQ PUSH2 0x1583 JUMPI POP POP PUSH2 0x14F1 PUSH2 0x14D9 PUSH1 0xB JUMPDEST DUP7 DUP6 MLOAD AND PUSH2 0x147A JUMP JUMPDEST SWAP4 DUP6 PUSH1 0x20 DUP6 ADD MLOAD AND SWAP1 PUSH1 0x0 EQ PUSH2 0x157C JUMPI PUSH1 0x1 SWAP1 PUSH2 0x147A JUMP JUMPDEST SWAP3 JUMPDEST DUP5 DUP2 AND SWAP1 PUSH1 0x15 DUP3 GT DUP1 PUSH2 0x1571 JUMPI JUMPDEST ISZERO PUSH2 0x1539 JUMPI POP PUSH1 0x9 NOT ADD DUP5 DUP2 GT PUSH2 0x1525 JUMPI SWAP3 DUP5 AND DUP1 ISZERO PUSH2 0x1525 JUMPI PUSH1 0x0 NOT ADD SWAP3 PUSH2 0x14F3 JUMP JUMPDEST PUSH4 0x4E487B71 PUSH1 0xE0 SHL DUP7 MSTORE PUSH1 0x11 PUSH1 0x4 MSTORE PUSH1 0x24 DUP7 REVERT JUMPDEST SWAP5 DUP1 SWAP5 SWAP4 DUP2 SWAP4 SWAP8 POP PUSH2 0x1550 SWAP3 POP PUSH1 0x40 ADD MLOAD AND PUSH2 0x1468 JUMP JUMPDEST SWAP2 DUP2 PUSH1 0x40 MLOAD SWAP6 PUSH2 0x155F DUP8 PUSH2 0x12BE JUMP JUMPDEST AND DUP6 MSTORE AND PUSH1 0x20 DUP5 ADD MSTORE AND PUSH1 0x40 DUP3 ADD MSTORE SWAP1 JUMP JUMPDEST POP DUP6 DUP6 AND ISZERO ISZERO PUSH2 0x1501 JUMP JUMPDEST DUP7 SWAP1 PUSH2 0x147A JUMP JUMPDEST PUSH1 0x9 LT PUSH2 0x159E JUMPI PUSH2 0x14D9 PUSH2 0x1599 PUSH2 0x14F1 SWAP3 PUSH2 0x1468 JUMP JUMPDEST PUSH2 0x14D0 JUMP JUMPDEST POP PUSH2 0x14F1 PUSH2 0x14D9 PUSH1 0xA PUSH2 0x14D0 JUMP JUMPDEST PUSH1 0xFF PUSH1 0x1 DUP2 SWAP3 ADD AND SWAP2 AND DUP2 EQ PUSH2 0x15BF JUMPI SWAP1 JUMP JUMPDEST PUSH1 0x1 ADD PUSH1 0xFF AND SWAP1 JUMP JUMPDEST SWAP1 SWAP2 PUSH1 0xFF DUP1 PUSH2 0x15D6 DUP6 PUSH2 0x13B9 JUMP JUMPDEST SWAP3 AND SWAP2 AND SUB PUSH2 0xEE6 JUMPI PUSH2 0x15E8 DUP3 PUSH2 0x13B9 JUMP JUMPDEST PUSH1 0xFF DUP1 PUSH1 0x3 DUP5 ADD SLOAD AND SWAP2 AND EQ PUSH2 0xEB7 JUMPI PUSH1 0x2 ADD SLOAD PUSH2 0x1605 DUP3 PUSH2 0x13B9 JUMP JUMPDEST PUSH2 0x1611 PUSH1 0x20 DUP5 ADD PUSH2 0x13B9 JUMP JUMPDEST SWAP2 PUSH1 0x60 DUP5 ADD CALLDATALOAD PUSH1 0x1E NOT DUP6 CALLDATASIZE SUB ADD DUP2 SLT ISZERO PUSH2 0x444 JUMPI DUP5 ADD SWAP3 DUP4 CALLDATALOAD SWAP4 PUSH1 0x1 PUSH1 0x1 PUSH1 0x40 SHL SUB DUP6 GT PUSH2 0x444 JUMPI PUSH1 0x20 ADD SWAP3 DUP5 PUSH1 0x5 SHL CALLDATASIZE SUB DUP5 SGT PUSH2 0x444 JUMPI PUSH1 0x40 PUSH2 0x1657 SWAP7 ADD CALLDATALOAD SWAP3 PUSH2 0x1659 JUMP JUMPDEST JUMP JUMPDEST SWAP3 SWAP5 SWAP1 SWAP4 SWAP2 SWAP4 PUSH1 0xFF PUSH1 0x40 SWAP6 DUP7 MLOAD PUSH2 0x168F DUP2 PUSH2 0x604 PUSH1 0x20 SWAP12 DUP13 DUP4 ADD SWAP6 DUP7 SWAP1 SWAP2 PUSH1 0x21 SWAP3 PUSH1 0xFF PUSH1 0xF8 SHL SWAP1 PUSH1 0xF8 SHL AND DUP3 MSTORE PUSH1 0x1 DUP3 ADD MSTORE ADD SWAP1 JUMP JUMPDEST MLOAD SWAP1 KECCAK256 SWAP2 AND SWAP1 SWAP3 PUSH1 0x0 SWAP2 JUMPDEST DUP4 DUP4 LT PUSH2 0x16D9 JUMPI POP POP POP POP SUB PUSH2 0x16AE JUMPI POP POP JUMP JUMPDEST PUSH1 0x64 SWAP3 POP MLOAD SWAP1 PUSH3 0x461BCD PUSH1 0xE5 SHL DUP3 MSTORE PUSH1 0x4 DUP3 ADD MSTORE PUSH1 0x5 PUSH1 0x24 DUP3 ADD MSTORE PUSH5 0x282927A7A3 PUSH1 0xD9 SHL PUSH1 0x44 DUP3 ADD MSTORE REVERT JUMPDEST PUSH2 0x1718 SWAP1 DUP4 PUSH1 0x5 SHL DUP4 ADD CALLDATALOAD SWAP6 PUSH1 0x1 SWAP7 DUP8 DUP4 AND ISZERO PUSH1 0x0 EQ PUSH2 0x171E JUMPI DUP10 MLOAD SWAP1 DUP12 DUP3 ADD SWAP3 DUP4 MSTORE DUP11 DUP3 ADD MSTORE DUP10 DUP2 MSTORE PUSH2 0x170C DUP2 PUSH2 0x12BE JUMP JUMPDEST MLOAD SWAP1 KECCAK256 SWAP6 JUMPDEST SHR SWAP3 PUSH2 0x1315 JUMP JUMPDEST SWAP2 PUSH2 0x169A JUMP JUMPDEST SWAP1 DUP10 MLOAD SWAP1 DUP12 DUP3 ADD SWAP3 DUP4 MSTORE DUP11 DUP3 ADD MSTORE DUP10 DUP2 MSTORE PUSH2 0x1738 DUP2 PUSH2 0x12BE JUMP JUMPDEST MLOAD SWAP1 KECCAK256 SWAP6 PUSH2 0x1711 JUMP JUMPDEST PUSH1 0x1 SHL SWAP1 PUSH1 0x2 PUSH1 0x1 PUSH1 0x81 SHL SUB PUSH1 0x2 PUSH1 0x1 PUSH1 0x80 SHL SUB DUP4 AND SWAP3 AND DUP3 SUB PUSH2 0x1324 JUMPI JUMP JUMPDEST PUSH1 0xFF AND SWAP2 SWAP1 PUSH1 0x15 DUP4 GT PUSH2 0x17AB JUMPI PUSH1 0xFF AND PUSH1 0x15 DUP2 GT PUSH2 0x17A0 JUMPI DUP1 DUP4 EQ PUSH2 0x179A JUMPI PUSH1 0x0 SWAP3 GT ISZERO PUSH2 0x1796 JUMPI PUSH2 0x1793 SWAP2 POP PUSH2 0x1741 JUMP JUMPDEST SWAP1 JUMP JUMPDEST POP SWAP1 JUMP JUMPDEST POP SWAP1 POP SWAP1 JUMP JUMPDEST POP PUSH2 0x1793 SWAP2 POP PUSH2 0x1741 JUMP JUMPDEST POP POP POP PUSH1 0x0 SWAP1 JUMP JUMPDEST SWAP1 SWAP3 SWAP2 SWAP3 PUSH2 0x17EC JUMPI PUSH1 0xFF AND SWAP2 PUSH1 0x15 DUP4 GT PUSH2 0x17AB JUMPI PUSH1 0xFF AND PUSH1 0x15 DUP2 GT PUSH2 0x17A0 JUMPI DUP1 DUP4 EQ PUSH2 0x179A JUMPI PUSH1 0x0 SWAP3 GT ISZERO PUSH2 0x1796 JUMPI PUSH2 0x1793 SWAP2 POP PUSH2 0x1741 JUMP JUMPDEST POP SWAP1 PUSH1 0x0 SWAP1 PUSH1 0xFF AND PUSH1 0x15 SUB PUSH2 0x17FF JUMPI POP SWAP1 JUMP JUMPDEST PUSH1 0x1 PUSH1 0x1 PUSH1 0x80 SHL SUB DUP1 SWAP3 AND SWAP1 PUSH1 0x5 DUP3 MUL SWAP2 DUP1 DUP4 DIV PUSH1 0x5 EQ SWAP1 ISZERO OR ISZERO PUSH2 0x1826 JUMPI POP PUSH1 0x1 SHR AND SWAP1 JUMP JUMPDEST PUSH4 0x4E487B71 PUSH1 0xE0 SHL DUP2 MSTORE PUSH1 0x11 PUSH1 0x4 MSTORE PUSH1 0x24 SWAP1 REVERT INVALID LOG2 PUSH5 0x6970667358 0x22 SLT KECCAK256 PUSH6 0xFF156A0C1BDB 0xBD MSTORE8 SWAP11 SDIV 0xB2 0xD7 DUP16 AND SWAP2 0x29 PUSH17 0xD22301E9B3E82485CEEE5A30D49E64736F PUSH13 0x63430008140033000000000000 "},"methodIdentifiers":{"MAX_BET()":"7e95b523","R(uint256)":"e5cfd849","cardName(uint8)":"c45ac77c","nextRoundId()":"4002eda6","settle(uint256,uint8,bytes32,bytes32[],(uint8,uint8,bytes32,bytes32[])[],(uint8,uint8,bytes32,bytes32[])[],(uint8,uint8,bytes32,bytes32[])[],bool,bool,(uint8,uint8,bytes32,bytes32[])[],(uint8,uint8,bytes32,bytes32[])[])":"6ece3553","startRound(bytes32,uint8,bytes32,uint128)":"1367d0ab","vault()":"fbfa77cf"}}}}}