{
  "_format": "hh-sol-artifact-1",
  "contractName": "BlackjackSettlement",
  "sourceName": "contracts/blackjack_settlement.sol",
  "abi": [
    {
      "inputs": [
        {
          "internalType": "address",
          "name": "vaultAddr",
          "type": "address"
        }
      ],
      "stateMutability": "nonpayable",
      "type": "constructor"
    },
    {
      "anonymous": false,
      "inputs": [
        {
          "indexed": true,
          "internalType": "uint256",
          "name": "roundId",
          "type": "uint256"
        },
        {
          "indexed": true,
          "internalType": "address",
          "name": "player",
          "type": "address"
        },
        {
          "indexed": false,
          "internalType": "uint128",
          "name": "stakeWei",
          "type": "uint128"
        },
        {
          "indexed": false,
          "internalType": "uint128",
          "name": "payoutWei",
          "type": "uint128"
        },
        {
          "indexed": false,
          "internalType": "uint8[]",
          "name": "playerCards",
          "type": "uint8[]"
        },
        {
          "indexed": false,
          "internalType": "uint8",
          "name": "dealerUp",
          "type": "uint8"
        },
        {
          "indexed": false,
          "internalType": "uint8",
          "name": "dealerHole",
          "type": "uint8"
        },
        {
          "indexed": false,
          "internalType": "uint8[]",
          "name": "dealerDraws",
          "type": "uint8[]"
        }
      ],
      "name": "RoundSettled",
      "type": "event"
    },
    {
      "anonymous": false,
      "inputs": [
        {
          "indexed": true,
          "internalType": "uint256",
          "name": "roundId",
          "type": "uint256"
        },
        {
          "indexed": true,
          "internalType": "address",
          "name": "player",
          "type": "address"
        },
        {
          "indexed": false,
          "internalType": "uint128",
          "name": "stakeWei",
          "type": "uint128"
        },
        {
          "indexed": false,
          "internalType": "bytes32",
          "name": "deckRoot",
          "type": "bytes32"
        },
        {
          "indexed": false,
          "internalType": "uint8",
          "name": "holePos",
          "type": "uint8"
        },
        {
          "indexed": false,
          "internalType": "bytes32",
          "name": "holeLeaf",
          "type": "bytes32"
        }
      ],
      "name": "RoundStarted",
      "type": "event"
    },
    {
      "inputs": [],
      "name": "MAX_BET",
      "outputs": [
        {
          "internalType": "uint256",
          "name": "",
          "type": "uint256"
        }
      ],
      "stateMutability": "view",
      "type": "function"
    },
    {
      "inputs": [
        {
          "internalType": "uint256",
          "name": "",
          "type": "uint256"
        }
      ],
      "name": "R",
      "outputs": [
        {
          "internalType": "address",
          "name": "player",
          "type": "address"
        },
        {
          "internalType": "uint128",
          "name": "stakeWei",
          "type": "uint128"
        },
        {
          "internalType": "bytes32",
          "name": "deckRoot",
          "type": "bytes32"
        },
        {
          "internalType": "uint8",
          "name": "holePos",
          "type": "uint8"
        },
        {
          "internalType": "bytes32",
          "name": "holeLeaf",
          "type": "bytes32"
        },
        {
          "internalType": "bool",
          "name": "settled",
          "type": "bool"
        }
      ],
      "stateMutability": "view",
      "type": "function"
    },
    {
      "inputs": [
        {
          "internalType": "uint8",
          "name": "id",
          "type": "uint8"
        }
      ],
      "name": "cardName",
      "outputs": [
        {
          "internalType": "string",
          "name": "",
          "type": "string"
        }
      ],
      "stateMutability": "pure",
      "type": "function"
    },
    {
      "inputs": [],
      "name": "nextRoundId",
      "outputs": [
        {
          "internalType": "uint256",
          "name": "",
          "type": "uint256"
        }
      ],
      "stateMutability": "view",
      "type": "function"
    },
    {
      "inputs": [
        {
          "internalType": "uint256",
          "name": "roundId",
          "type": "uint256"
        },
        {
          "internalType": "uint8",
          "name": "holeCardId",
          "type": "uint8"
        },
        {
          "internalType": "bytes32",
          "name": "holeSalt",
          "type": "bytes32"
        },
        {
          "internalType": "bytes32[]",
          "name": "holeProof",
          "type": "bytes32[]"
        },
        {
          "components": [
            {
              "internalType": "uint8",
              "name": "pos",
              "type": "uint8"
            },
            {
              "internalType": "uint8",
              "name": "cardId",
              "type": "uint8"
            },
            {
              "internalType": "bytes32",
              "name": "salt",
              "type": "bytes32"
            },
            {
              "internalType": "bytes32[]",
              "name": "proof",
              "type": "bytes32[]"
            }
          ],
          "internalType": "struct BlackjackSettlement.Reveal[]",
          "name": "initial3",
          "type": "tuple[]"
        },
        {
          "components": [
            {
              "internalType": "uint8",
              "name": "pos",
              "type": "uint8"
            },
            {
              "internalType": "uint8",
              "name": "cardId",
              "type": "uint8"
            },
            {
              "internalType": "bytes32",
              "name": "salt",
              "type": "bytes32"
            },
            {
              "internalType": "bytes32[]",
              "name": "proof",
              "type": "bytes32[]"
            }
          ],
          "internalType": "struct BlackjackSettlement.Reveal[]",
          "name": "playerExtra",
          "type": "tuple[]"
        },
        {
          "components": [
            {
              "internalType": "uint8",
              "name": "pos",
              "type": "uint8"
            },
            {
              "internalType": "uint8",
              "name": "cardId",
              "type": "uint8"
            },
            {
              "internalType": "bytes32",
              "name": "salt",
              "type": "bytes32"
            },
            {
              "internalType": "bytes32[]",
              "name": "proof",
              "type": "bytes32[]"
            }
          ],
          "internalType": "struct BlackjackSettlement.Reveal[]",
          "name": "dealerDraws",
          "type": "tuple[]"
        },
        {
          "internalType": "bool",
          "name": "doubled",
          "type": "bool"
        },
        {
          "internalType": "bool",
          "name": "split",
          "type": "bool"
        },
        {
          "components": [
            {
              "internalType": "uint8",
              "name": "pos",
              "type": "uint8"
            },
            {
              "internalType": "uint8",
              "name": "cardId",
              "type": "uint8"
            },
            {
              "internalType": "bytes32",
              "name": "salt",
              "type": "bytes32"
            },
            {
              "internalType": "bytes32[]",
              "name": "proof",
              "type": "bytes32[]"
            }
          ],
          "internalType": "struct BlackjackSettlement.Reveal[]",
          "name": "hand1Extra",
          "type": "tuple[]"
        },
        {
          "components": [
            {
              "internalType": "uint8",
              "name": "pos",
              "type": "uint8"
            },
            {
              "internalType": "uint8",
              "name": "cardId",
              "type": "uint8"
            },
            {
              "internalType": "bytes32",
              "name": "salt",
              "type": "bytes32"
            },
            {
              "internalType": "bytes32[]",
              "name": "proof",
              "type": "bytes32[]"
            }
          ],
          "internalType": "struct BlackjackSettlement.Reveal[]",
          "name": "hand2Extra",
          "type": "tuple[]"
        }
      ],
      "name": "settle",
      "outputs": [],
      "stateMutability": "nonpayable",
      "type": "function"
    },
    {
      "inputs": [
        {
          "internalType": "bytes32",
          "name": "deckRoot",
          "type": "bytes32"
        },
        {
          "internalType": "uint8",
          "name": "holePos",
          "type": "uint8"
        },
        {
          "internalType": "bytes32",
          "name": "holeLeaf",
          "type": "bytes32"
        },
        {
          "internalType": "uint128",
          "name": "stakeWei",
          "type": "uint128"
        }
      ],
      "name": "startRound",
      "outputs": [
        {
          "internalType": "uint256",
          "name": "roundId",
          "type": "uint256"
        }
      ],
      "stateMutability": "nonpayable",
      "type": "function"
    },
    {
      "inputs": [],
      "name": "vault",
      "outputs": [
        {
          "internalType": "contract IUserVaultSystem",
          "name": "",
          "type": "address"
        }
      ],
      "stateMutability": "view",
      "type": "function"
    }
  ],
  "bytecode": "0x60803461007457601f6118fe38819003918201601f19168301916001600160401b038311848410176100795780849260209460405283398101031261007457516001600160a01b0381169081900361007457600080546001600160a01b03191691909117905560405161186e90816100908239f35b600080fd5b634e487b7160e01b600052604160045260246000fdfe61030080604052600436101561001457600080fd5b60006102a05260003560e01c9081631367d0ab14611020575080634002eda614610fff5780636ece35531461046f5780637e95b52314610449578063c45ac77c14610127578063e5cfd849146100a75763fbfa77cf1461007357600080fd5b346100a0576102a0518060031936011261009d57546040516001600160a01b039091168152602090f35b80fd5b6102a05180fd5b346100a05760203660031901126100a0576004356102a05152600260205260c060406102a0512060018060a01b03815416906001600160801b0360018201541690600281015460ff6003830154169060ff6005600485015494015416936040519586526020860152604085015260608401526080830152151560a0820152f35b346100a0576020806003193601126100a05760043560ff811680910361044457604051906001600160401b036101a083018181118482101761042e5780604052610170816112d7565b600190818152604160f81b6101c0860152845260405161018f816112d7565b818152601960f91b86820152858501526040516101ab816112d7565b818152603360f81b8682015260408501526040516101c8816112d7565b818152600d60fa1b8682015260608501526040516101e5816112d7565b818152603560f81b868201526080850152604051610202816112d7565b818152601b60f91b8682015260a085015260405161021f816112d7565b818152603760f81b8682015260c085015260405161023c816112d7565b818152600760fb1b8682015260e0850152604051610259816112d7565b818152603960f81b86820152610100850152604051610277816112d7565b6002815261031360f41b86820152610120850152604051610297816112d7565b818152602560f91b868201526101408501526040516102b5816112d7565b818152605160f81b86820152610160850152604051906102d4826112d7565b8152604b60f81b8582015261018084015260405190608082019081118282101761042e5780604052610305816112d7565b6003815262e299a360e81b60a08301528152604051610323816112d7565b6003815262714cd360e91b8582015281850152604051610342816112d7565b6003815262e299a560e81b858201526040820152604051610362816112d7565b60038152620714cd60ed1b858201526060820152600d808306939060ff8516101561041457600d90611fe0809560051b160151920492600460ff851610156104145760409360051b160151906103ea8484518094826103ca8184019687815193849201611299565b82016103de82518093868085019101611299565b010380855201836112f2565b6104068351948593818552519283809286015285850190611299565b601f01601f19168101030190f35b634e487b7160e01b6102a05152603260045260246102a051fd5b634e487b7160e01b600052604160045260246000fd5b600080fd5b346100a0576102a0518060031936011261009d576020604051670de0b6b3a76400008152f35b346100a0576101603660031901126100a057610489611259565b610200526064356001600160401b0381116100a0576104ac903690600401611269565b90610100526084356001600160401b0381116100a0576104d0903690600401611269565b610160526102205260a4356001600160401b0381116100a0576104f7903690600401611269565b6101a05260c4356001600160401b0381116100a05761051a903690600401611269565b6101e0526102805260e435151560e435036100a05761010435151561010435036100a057610124356001600160401b0381116100a05761055e903690600401611269565b90610144356001600160401b0381116100a05761057f903690600401611269565b60e052610240526102a080516004359052600260205251604090206101c0819052546001600160a01b031693338503610fd15760ff60056101c05101806102c0525416610fa25760036101605103610f755761010435610f3f575b6040516102005160f81b6001600160f81b0319166020820152604435602182015261061281604181015b03601f1981018352826112f2565b6020815191012060046101c051015403610f0f57610658906101c05160ff6003600283015492836101805201541680610140526101005191604435916102005191611657565b6102a0515060ff61067c6106726101605161022051611338565b80610120526113b7565b16610ee4576101405160ff610693610120516113b7565b1614610eb557610120516106a6816113b7565b6106b2602083016113b7565b9182608052606081013591601e19823603018312156100a0576001600160401b0383830135116100a0578282013560051b3603602084840101136100a05761070d936040602085850135958501019301359161018051611657565b61075560405161071c816112bc565b6102a05181526102a05160208201526102a051604082015261074f60206107496101605161022051611338565b016113b7565b9061148c565b6102605261014051600194908514610eac575b6107858561077c6101605161022051611353565b6101c0516115c6565b6108086107d26107c760405161079a816112bc565b6102a05181526102a05160208201526102a051604082015261074f60206107496101605161022051611353565b9661014051906115aa565b6107e68161077c6101605161022051611374565b6107fb60206107496101605161022051611374565b60c05261014051906115aa565b926101043515610e34576102a0959395515b818110610dea57506102a051935b60e0518086101561087c576108646108759261084f8a61077c8a61086f9661024051611395565b61074f60206107498a60e05161024051611395565b9761014051906115aa565b94611313565b9395610828565b50909493509490945b6108c2604051610894816112bc565b6102a05181526102a05160208201526102a05160408201526108bd610200519160c0519061148c565b61148c565b916102a051925b601160ff8251161015610de2576101e051841015610db157610910906108fa8361077c876101e05161028051611395565b61074f6020610749876101e05161028051611395565b90601560ff61092d610927859461014051906115aa565b96611313565b9351161161093d579290926108c9565b92505b6101e05103610d7f5760016101c051018060a05254916102a05161010435600014610cf1575060ff926109a0610994928561026051511690866001600160801b03978896878097168095838651169061175f565b9751169151169061175f565b16911601908111610baf57935b6001600160801b038516610c61575b506102c051805460ff191660011790556102a051916101043515610c5757835b6101043515610c515760e051935b85600201600211610c395750610a0b610a0685876002016113c5565b6113e9565b6102e052610a2460206107496101605161022051611338565b6102e05190815115610c235760ff60209116910152610a4e60206107496101605161022051611353565b6102e05190815160011015610c235760ff604091169101526102a0515b858110610bc957505050506102a0515b818110610b6a5783610a8f6101e0516113e9565b6102a0515b6101e0519081811015610ad157610ab7602061074983610acc9561028051611395565b60ff610ac3838661141b565b91169052611313565b610a94565b50507ff318021f962a9c9cad487b96b26dd3147dcd3f7e80a70db0fb0deef0daa4499560018060a01b036101c0515416926001600160801b038060a05154169160405192835216602082015260c0604082015280610b60610b3860c083016102e05161142f565b60ff60c05116606084015260ff6102005116608084015282810360a08401526004359561142f565b0390a36102a05180f35b610b7f60206107498360e05161024051611395565b9083600201600211610baf57610baa9160ff610ac3610ba184886002016113c5565b6102e05161141b565b610a7b565b634e487b7160e01b6102a05152601160045260246102a051fd5b6101043515610c0a57610be26020610749838588611395565b905b80600201600211610baf57610c059160ff610ac3836002016102e05161141b565b610a6b565b610c1d6020610749836101a05187611395565b90610be4565b634e487b7160e01b600052603260045260246000fd5b634e487b7160e01b905260116004526102a051602490fd5b836109ea565b6101a051936109dc565b6102a05180546001600160a01b031690813b1561009d575060405191634fee0bd560e11b835260048301526001600160801b0386166024830152816044816102a05180945af18015610ce357156109bc576001600160401b038111610cc957604052846109bc565b634e487b7160e01b6102a05152604160045260246102a051fd5b6040513d6102a051823e3d90fd5b91506102605192600260ff604086015116149384610d70575b506001600160801b0381169260e435610d3c575b5050610d369260ff80610260515116925116916117b1565b936109ad565b909192806002600160811b038460011b160460021490151715610c39575060011b6002600160801b031690610d3688610d1e565b5160ff16601514935088610d0a565b60405162461bcd60e51b815260206004820152600a602482015269115615149057d0d0549160b21b6044820152606490fd5b60405162461bcd60e51b81526020600482015260096024820152681391515117d0d0549160ba1b6044820152606490fd5b929050610940565b939561086f81610e02610e2c9361077c89878a611395565b610e1e610e1560206107498a888b611395565b6102605161148c565b6102605261014051906115aa565b95939561081a565b610e52610e1560206107496101609996999897985161022051611353565b610260526102a051945b6101a05180871015610ea05781610e7e610e9a9361077c8a610e94958b611395565b610e1e610e1560206107498b6101a0518c611395565b95611313565b94610e5c565b50919592909450610885565b60029450610768565b60405162461bcd60e51b8152602060048201526007602482015266484f4c45504f5360c81b6044820152606490fd5b60405162461bcd60e51b8152602060048201526003602482015262504f5360e81b6044820152606490fd5b60405162461bcd60e51b81526020600482015260086024820152672427a622a622a0a360c11b6044820152606490fd5b60e435156105da5760405162461bcd60e51b81526020600482015260066024820152654e4f5f44415360d01b6044820152606490fd5b60405162461bcd60e51b8152602060048201526005602482015264494e49543360d81b6044820152606490fd5b60405162461bcd60e51b815260206004820152600760248201526614d1551513115160ca1b6044820152606490fd5b60405162461bcd60e51b8152602060048201526006602482015265282620aca2a960d11b6044820152606490fd5b346100a0576102a0518060031936011261009d576020600154604051908152f35b346104445760803660031901126104445760043561103c611259565b90604435606435916001600160801b03948584168094036104445783151580611247575b1561121f57506102a05154604051639ac27dd360e01b81526020966001600160a01b03939290919088908290600490829088165afa8015610ce35786916102a051916111ee575b50106111c3576110b8600154611313565b95866001556040519360c08501928584106001600160401b03851117610cc95789958760ff936005938c97604052338452898401908c825260408501928a8452600288606088019a169c8d8b526080880196875260a088019b6102a0518d526102a051525260406102a051209551166bffffffffffffffffffffffff60a01b865416178555600185019151166001600160801b03198254161790555160028301558360038301955116948419958682541617905551600482015501925115159183541691161790556040519384528584015260408301526060820152817f851245cf748ea7f1e668be9648987eea87fcca7f0889f05ff24cd794581af96860803393a3604051908152f35b60405162461bcd60e51b815260048082018990526024820152631413d3d360e21b6044820152606490fd5b809250898092503d8311611218575b61120781836112f2565b810103126100a057859051896110a7565b503d6111fd565b62461bcd60e51b815260206004820152600360248201526210915560ea1b6044820152606490fd5b50670de0b6b3a7640000841115611060565b6024359060ff8216820361044457565b9181601f84011215610444578235916001600160401b038311610444576020808501948460051b01011161044457565b60005b8381106112ac5750506000910152565b818101518382015260200161129c565b606081019081106001600160401b0382111761042e57604052565b604081019081106001600160401b0382111761042e57604052565b90601f801991011681019081106001600160401b0382111761042e57604052565b60001981146113225760010190565b634e487b7160e01b600052601160045260246000fd5b9015610c2357803590607e1981360301821215610444570190565b9060011015610c2357602081013590607e1981360301821215610444570190565b9060021015610c2357604081013590607e1981360301821215610444570190565b9190811015610c235760051b81013590607e1981360301821215610444570190565b3560ff811681036104445790565b9190820180921161132257565b6001600160401b03811161042e5760051b60200190565b906113f3826113d2565b61140060405191826112f2565b8281528092611411601f19916113d2565b0190602036910137565b8051821015610c235760209160051b010190565b90815180825260208080930193019160005b82811061144f575050505090565b835160ff1685529381019392810192600101611441565b60ff60019116019060ff821161132257565b9060ff8091169116019060ff821161132257565b91604092835161149b816112bc565b60009481868093528260208201520152600d60ff809416069183831692831593846000146115815750506114ef6114d7600b5b86855116611478565b93856020850151169060001461157a57600190611478565b925b84811690601582118061156f575b156115375750600919018481116115235792841680156115235760001901926114f1565b634e487b7160e01b86526011600452602486fd5b948094938193975061154e92506040015116611466565b91816040519561155d876112bc565b16855216602084015216604082015290565b5085851615156114ff565b8690611478565b60091061159c576114d76115976114ef92611466565b6114ce565b506114ef6114d7600a6114ce565b60ff600181920116911681146115bd5790565b60010160ff1690565b909160ff806115d4856113b7565b9216911603610ee4576115e6826113b7565b60ff80600384015416911614610eb55760020154611603826113b7565b61160f602084016113b7565b916060840135601e1985360301811215610444578401928335936001600160401b03851161044457602001928460051b3603841361044457604061165596013592611657565b565b92949093919360ff604095865161168d8161060460209b8c83019586909160219260ff60f81b9060f81b16825260018201520190565b519020911690926000915b8383106116d75750505050036116ac575050565b60649250519062461bcd60e51b825260048201526005602482015264282927a7a360d91b6044820152fd5b611716908360051b830135956001968783161560001461171c578951908b82019283528a82015289815261170a816112bc565b519020955b1c92611313565b91611698565b908951908b82019283528a820152898152611736816112bc565b5190209561170f565b60011b906002600160811b036002600160801b0383169216820361132257565b60ff169190601583116117a95760ff166015811161179e5780831461179857600092111561179457611791915061173f565b90565b5090565b50905090565b50611791915061173f565b505050600090565b909291926117ea5760ff1691601583116117a95760ff166015811161179e5780831461179857600092111561179457611791915061173f565b509060009060ff166015036117fd575090565b6001600160801b0380921690600582029180830460051490151715611824575060011c1690565b634e487b7160e01b81526011600452602490fdfea264697066735822122065ff156a0c1bdbbd539a05b2d78f16912970d22301e9b3e82485ceee5a30d49e64736f6c63430008140033",
  "linkReferences": {},
  "deployedLinkReferences": {}
}